:100000000C94E6000C9403010C9403010C942B0C4B
:100010000C9403010C9403010C9403010C94030150
:100020000C9403010C9403010C9403010C94030140
:100030000C9403010C9403010C9403010C94030130
:100040000C9403010C9403010C9403010C94030120
:100050000C9403010C9403010C9403010C94030110
:100060000C94D70E0C9403010C9403010C9403011F
:100070000C9403010C9403010C9403010C940301F0
:100080000C9403010C9403010C9403010C940301E0
:100090000C9403010C9403010C9403010C940301D0
:1000A000FD17F6170B180418201812181918C02677
:1000B000C0260A279626AB26B126E126E1263A2756
:1000C00080266C276C276C276C27B7260009121B2B
:1000D000242D363F48415A536C657E7719100B0228
:1000E0003D342F265158434A757C676E323B202998
:1000F000161F040D7A7368615E574C452B22393008
:100100000F061D14636A7178474E555C646D767FE7
:100110004049525B2C253E3708011A137D746F66E7
:1001200059504B42353C272E1118030A565F444D57
:10013000727B60691E170C053A3328214F465D54C7
:100140006B627970070E151C232A31384148535AC7
:10015000656C777E09001B122D243F3658514A43A7
:100160007C756E671019020B343D262F737A616817
:10017000575E454C3B3229201F160D046A63787187
:100180004E475C55222B3039060F141D252C373E67
:100190000108131A6D647F7649405B523C352E2767
:1001A00018110A03747D666F5059424B171E050CD7
:1001B000333A21285F564D447B7269600E071C1547
:1001C0002A233831464F545D626B707911241FBE6B
:1001D000CFEFCDBFDFE3DEBF18E2A0E0B8E2EEE391
:1001E000FAE702C005900D92A434B107D9F72FE2C7
:1001F000A4E4B8E201C01D92AD32B207E1F70E945B
:1002000066040C94423C0C940000CF93DF93CDB76E
:10021000DEB70E943B0A0000DF91CF910895CF9393
:10022000DF93CDB7DEB780E894E020E834E0F90151
:1002300020812860FC01208380E894E020E834E0FD
:10024000F90120812460FC01208380E894E020E80B
:1002500034E0F90124812B7FFC01248380E894E0C1
:1002600020E834E0F90124812860FC01248380EA3D
:1002700094E020EA34E0F90120812064FC0120832D
:1002800080EA94E020EA34E0F90120812061FC0159
:10029000208380EA94E020EA34E0F90124812F7B76
:1002A000FC01248380EA94E020EA34E0F90124810F
:1002B0002061FC0124830000DF91CF910895CF934A
:1002C000DF93CDB7DEB780E294E020E234E0F901BD
:1002D00020812062FC01208384E294E024E234E067
:1002E000F90120812062FC01208380EB9AE02AEF53
:1002F000FC01248780EB9AE028ECFC01258780EB49
:100300009AE020EB3AE0F90120812160FC01208392
:1003100080EB9AE020EB3AE0F90121812061FC01B9
:10032000218380EB9AE020EB3AE0F90121812760FC
:10033000FC0121830000DF91CF910895CF93DF93DB
:10034000CDB7DEB780EA94E020EA34E0F9012081FD
:100350002062FC01208380EA94E020EA34E0F90185
:1003600024812062FC01248380E99AE02AEFFC01C9
:10037000248780E99AE028ECFC01258780E99AE04F
:1003800020E93AE0F90120812160FC01208380E925
:100390009AE020E93AE0F90121812061FC01218302
:1003A00080E99AE020E93AE0F90121812760FC0127
:1003B000218380EE95E020EE35E0F9012581226071
:1003C000FC0125830000DF91CF910895CF93DF9347
:1003D000CDB7DEB780EB9AE020EB3AE0F90120815F
:1003E0002E7FFC01208380EB9AE02AEFFC0124871A
:1003F00080EB9AE028ECFC01258780EB9AE0FC0179
:100400001286138680EB9AE020EB3AE0F901208116
:100410002160FC0120830000DF91CF910895CF93EC
:10042000DF93CDB7DEB780E99AE020E93AE0F90141
:1004300020812E7FFC01208380E99AE02AEFFC01D5
:10044000248780E99AE028ECFC01258780E99AE07E
:10045000FC011286138680E99AE020E93AE0F9016E
:1004600020812160FC0120830000DF91CF9108955D
:10047000CF93DF93CDB7DEB780E894E020E834E097
:10048000F901348128E02327FC01248380E894E0EB
:1004900020E834E0F901348124E02327FC0124839F
:1004A0000000DF91CF910895CF93DF93CDB7DEB7F2
:1004B0006197CDBFDEBF888B998B0E942B0FCE0139
:1004C00002964EE050E060E070E00E942A39888990
:1004D0009989FC01808191818A839B83CE01029658
:1004E0000E94D31A89838981882309F0FFCF0000F5
:1004F0006196CDBFDEBFDF91CF910895CF93DF939B
:1005000000D01F92CDB7DEB789836A837B83898150
:10051000882F90E00E94A90C00002396CDBFDEBF7B
:10052000DF91CF910895CF93DF93CDB7DEB72697B4
:10053000CDBFDEBF8B839C836D837E8319821A823D
:1005400018C089819A812B813C81820F931F2D8154
:100550003E81F9014081518129813A81240F351F63
:10056000F9012081FC01208389819A810196898388
:100570009A838D819E81FC012081318189819A81BC
:10058000820F931FFC0180818D30D9F600002696E2
:10059000CDBFDEBFDF91CF9108950F931F93CF930F
:1005A000DF93CDB7DEB72C97CDBFDEBF89876A87D3
:1005B0004B875C878A85882F90E08430910509F409
:1005C0005CC08530910534F48130910559F0029773
:1005D00069F1FBC08630910509F496C0079709F4CC
:1005E0007EC0F3C08B859C8589839A8389819A819B
:1005F000892B81F089819A81FC018081882351F4C3
:1006000088E898EB0E94503980910E2860E00E94A3
:10061000F333DBC082EA98EB0E94503980910E28B8
:100620000E9414368FEF80930E28CFC08B859C8557
:100630008B839C838B819C81892B99F08B819C81FE
:10064000FC018081882369F48AEB98EB0E94503981
:1006500080910E2840E050E060E070E00E944E344F
:10066000B4C086ED98EB0E94503980910E280E940C
:1006700014368FEF80930E28A8C08B859C858D83C0
:100680009E838D819E81892BF1F080EF98EB0E94F3
:10069000503980910E2840E050E060E070E00E9408
:1006A0004E348D819E81FC01808180930F28809142
:1006B0000F2800E010E0980144EB55E065E478E293
:1006C0000E942A3582C08CE099EB0E9450398091BB
:1006D0000E280E9414368FEF80930E2876C086E293
:1006E00099EB0E94503980E499EB0E9450398BE5D8
:1006F00099EB0E94503980910F280E941436809106
:100700000E280E94143661C08B859C858F83988744
:100710008F819885892B09F44CC08F819885FC01C5
:1007200082819381181619060CF043C088E699EB74
:100730000E9450398F819885BC0180E89EE20E941A
:10074000930262E879EB80E89EE20E943139892BBE
:1007500089F40E94E6010E940F020E94380289E893
:1007600099EB892F8F9389E899EB8F930E943A39FF
:100770000F900F9080E89EE2892F8F9380E89EE291
:100780008F9385E999EB892F8F9385E999EB8F9367
:100790000E943A390F900F900F900F9080910F2880
:1007A00020E030E048E250E060E178E20E947734F7
:1007B0000BC08DE999EB0E94503980910E280E9460
:1007C00014368FEF80930E28000000002C96CDBFCA
:1007D000DEBFDF91CF911F910F910895CF93DF93EB
:1007E000CDB7DEB72797CDBFDEBF8D836E837F8306
:1007F0008D81882F90E08C32910519F0C297E9F035
:100800005EC08E819F8189839A8389819A81FC0150
:100810008081813021F481E0809344284FC0898118
:100820009A81FC018081882309F048C010924428F5
:1008300085EB99EB0E94503941C08E819F818B835B
:100840009C8381E0809344288BEC99EB0E94503983
:100850008B819C810396FC018081682F70E08B81E5
:100860009C810296FC018081482F50E08B819C8105
:100870000196FC018081282F30E08B819C81FC0156
:100880008081882F90E0E72FEF936F93652F6F9310
:100890004F93432F4F932F93292F2F938F938EEDA9
:1008A00099EB892F8F938EED99EB8F930E943A39B4
:1008B0008DB79EB70A96CDBFDEBF01C00000000015
:1008C0002796CDBFDEBFDF91CF9108950F931F9381
:1008D000CF93DF93CDB7DEB7C75AD109CDBFDEBF07
:1008E000198280E098E28093292F90932A2F0E940A
:1008F00005010E940F010E945F010E949E017894F1
:100900000E942B0FCE0188569F4F22E030E0FC0161
:1009100020833183CE0188569F4F2AE13AE0FC01C3
:10092000228333839E0128563F4F8FEF9FEFDC01D8
:10093000F90184839583A683B783CE0102964EE0A6
:1009400050E060E070E00E942A398EEE93E08A83E6
:100950009B83CE0102960E9454020E944B3260E0BB
:1009600070E08DEC92E00E946C32CE01409648E837
:1009700050E060E070E00E942A39CE01409629E004
:10098000EAEFF9EBDC0101900D922A95E1F786E0A0
:1009900089ABCE01815B9F4F22E0FC012083CE0119
:1009A0008F5A9F4F20ECFC012083CE018E5A9F4F1F
:1009B00028EAFC012083CE018D5A9F4FFC01108252
:1009C000CE018C5A9F4F21E0FC0120830FEF10E0F5
:1009D00023E03AEB42E069E08AEF99EB0E94281BA2
:1009E00023C0809144288130F9F480910E28882317
:1009F000DCF440E061E082E090E00E948932809384
:100A00000E2880910E2888232CF48DE09AEB0E940A
:100A100050390AC020910E28CE0188569F4F40E1E0
:100A2000BC01822F0E946B3380E090E00E941A1B71
:100A30008823B9F2D5CFCF93DF93CDB7DEB780E06F
:100A4000DF91CF910895CF93DF9300D01F92CDB760
:100A5000DEB789839A836B8389819A814B8168EDA4
:100A60000E948A0A00002396CDBFDEBFDF91CF919E
:100A70000895CF93DF93CDB7DEB765E081E690E0D0
:100A80000E94230580E0DF91CF910895CF93DF93FB
:100A9000CDB7DEB780E0DF91CF910895CF93DF939C
:100AA00000D000D0CDB7DEB78B836C838B81882FCD
:100AB00090E0805F9B4F89839A838C81813059F4C9
:100AC00089819A81FC018081282F286089819A81FF
:100AD000FC0120830DC08C81882351F489819A8187
:100AE000FC018081282F277F89819A81FC01208346
:100AF00000002496CDBFDEBFDF91CF910895CF9344
:100B0000DF9300D0CDB7DEB789836A838A81882FCF
:100B100090E081309105E1F08230910571F1892BEF
:100B200009F03BC020E030E080E090E0FC018081F3
:100B3000682F8981482F50E081E090E002C0880F43
:100B4000991F4A95E2F780958623F901808325C095
:100B500020E030E080E090E0FC018081682F898116
:100B6000482F50E081E090E002C0880F991F4A951D
:100B7000E2F7862BF901808310C08981882F90E0ED
:100B8000805F9B4F2981222F30E0205F3B4FF9018E
:100B900020812860FC012083000000000F900F904E
:100BA000DF91CF910895CF93DF9300D0CDB7DEB71B
:100BB00089836A838A818823A9F020E030E080E07D
:100BC00090E0FC018181682F8981482F50E081E00D
:100BD00090E002C0880F991F4A95E2F7862BF90131
:100BE000818315C020E030E080E090E0FC0181814D
:100BF000682F8981482F50E081E090E002C0880F83
:100C0000991F4A95E2F780958623F90181830000B8
:100C10000F900F90DF91CF910895CF93DF9300D085
:100C200000D0CDB7DEB78B836C838B81882F90E0AB
:100C3000805D9B4F89839A838C81813059F48981AF
:100C40009A81FC018081282F286089819A81FC018A
:100C500020830DC08C81882351F489819A81FC0105
:100C60008081282F277F89819A81FC0120830000C1
:100C70002496CDBFDEBFDF91CF910895CF93DF9350
:100C800000D0CDB7DEB789836A838A81882F90E050
:100C900081309105E1F08230910571F1892B09F0E5
:100CA0003BC084E090E024E030E0F9012081622F35
:100CB0002981422F50E021E030E002C0220F331F93
:100CC0004A95E2F720952623FC01208325C084E085
:100CD00090E024E030E0F9012081622F2981422F49
:100CE00050E021E030E002C0220F331F4A95E2F7C6
:100CF000262BFC01208310C08981882F90E0805D25
:100D00009B4F2981222F30E0205D3B4FF90120814C
:100D10002860FC012083000000000F900F90DF91FD
:100D2000CF910895CF93DF9300D0CDB7DEB78983FD
:100D30006A838A818823A9F084E090E024E030E08F
:100D4000F9012181622F2981422F50E021E030E01A
:100D500002C0220F331F4A95E2F7262BFC012183A4
:100D600015C084E090E024E030E0F9012181622F99
:100D70002981422F50E021E030E002C0220F331FD2
:100D80004A95E2F720952623FC01218300000F906D
:100D90000F90DF91CF910895CF93DF9300D000D0D3
:100DA000CDB7DEB78B836C838B81882F90E0805B1F
:100DB0009B4F89839A838C81813059F489819A81F0
:100DC000FC018081282F286089819A81FC01208381
:100DD0000DC08C81882351F489819A81FC01808126
:100DE000282F277F89819A81FC0120830000249687
:100DF000CDBFDEBFDF91CF910895CF93DF9300D0B9
:100E000000D0CDB7DEB78B836C838B81882F90E0C9
:100E1000805B9B4F89839A838C81882359F08981D9
:100E20009A81FC018081282F206889819A81FC01A8
:100E300020830AC089819A81FC018081282F2F7725
:100E400089819A81FC01208300002496CDBFDEBFFA
:100E5000DF91CF910895CF93DF9300D000D0CDB72D
:100E6000DEB78B836C838B81882F90E0805B9B4FF8
:100E700089839A8389819A81FC018081982F987F48
:100E80008C81892B282F89819A81FC012083000085
:100E90002496CDBFDEBFDF91CF910895CF93DF932E
:100EA00000D0CDB7DEB789836A838A81882F90E02E
:100EB00081309105E1F08230910571F1892B09F0C3
:100EC0003BC088E090E028E030E0F9012081622F0B
:100ED0002981422F50E021E030E002C0220F331F71
:100EE0004A95E2F720952623FC01208325C088E05F
:100EF00090E028E030E0F9012081622F2981422F23
:100F000050E021E030E002C0220F331F4A95E2F7A3
:100F1000262BFC01208310C08981882F90E0805B04
:100F20009B4F2981222F30E0205B3B4FF90120812C
:100F30002860FC012083000000000F900F90DF91DB
:100F4000CF910895CF93DF9300D0CDB7DEB78983DB
:100F50006A838A818823A9F088E090E028E030E065
:100F6000F9012181622F2981422F50E021E030E0F8
:100F700002C0220F331F4A95E2F7262BFC01218382
:100F800015C088E090E028E030E0F9012181622F6F
:100F90002981422F50E021E030E002C0220F331FB0
:100FA0004A95E2F720952623FC01218300000F904B
:100FB0000F90DF91CF910895CF93DF931F92CDB71C
:100FC000DEB78983698182E00E947F0500000F906F
:100FD000DF91CF910895CF93DF931F92CDB7DEB706
:100FE0008983698182E00E94D30500000F90DF9120
:100FF000CF910895CF93DF931F92CDB7DEB789834A
:10100000698183E00E947F0500000F90DF91CF91FE
:101010000895CF93DF931F92CDB7DEB7898369819F
:1010200083E00E94D30500000F90DF91CF910895D7
:10103000CF93DF931F92CDB7DEB78983698184E0B8
:101040000E947F0500000F90DF91CF910895CF930C
:10105000DF931F92CDB7DEB78983698184E00E9458
:10106000D30500000F90DF91CF910895CF93DF93C8
:101070001F92CDB7DEB78983698185E00E944E0556
:1010800000000F90DF91CF910895CF93DF931F92CF
:10109000CDB7DEB78983698185E00E947F050000B6
:1010A0000F90DF91CF910895CF93DF931F92CDB72B
:1010B000DEB78983698186E00E947F0500000F907A
:1010C000DF91CF910895CF93DF931F92CDB7DEB715
:1010D0008983698186E00E94D30500000F90DF912B
:1010E000CF910895CF93DF931F92CDB7DEB7898359
:1010F000698187E00E947F0500000F90DF91CF910A
:101100000895CF93DF931F92CDB7DEB789836981AE
:1011100087E00E94D30500000F90DF91CF910895E2
:10112000CF93DF931F92CDB7DEB78983698182E0C9
:101130000E940D0600000F90DF91CF910895CF938C
:10114000DF931F92CDB7DEB78983698182E00E9469
:101150003E0600000F90DF91CF910895CF93DF936B
:101160001F92CDB7DEB78983698185E00E943E0674
:1011700000000F90DF91CF910895CF93DF931F92DE
:10118000CDB7DEB78983698185E00E9492060000B1
:101190000F90DF91CF910895CF93DF931F92CDB73A
:1011A000DEB78983698180E00E944E0700000F90BE
:1011B000DF91CF910895CF93DF931F92CDB7DEB724
:1011C0008983698180E00E94A20700000F90DF916F
:1011D000CF910895CF93DF931F92CDB7DEB7898368
:1011E000698181E00E94CC0600000F90DF91CF91D1
:1011F0000895CF93DF931F92CDB7DEB789836981BE
:1012000081E00E944E0700000F90DF91CF9108957A
:10121000CF93DF931F92CDB7DEB78983698186E0D4
:101220000E94CC0600000F90DF91CF910895CF93DC
:10123000DF931F92CDB7DEB78983698186E00E9474
:101240004E0700000F90DF91CF910895CF93DF9369
:101250001F92CDB7DEB78983698186E00E942B0794
:1012600000000F90DF91CF910895CF93DF931F92ED
:10127000CDB7DEB78983698186E00E94FD06000054
:101280000F90DF91CF910895CF93DF931F92CDB749
:10129000DEB78983698186E00E94A20700000F9073
:1012A000DF91CF910895CF93DF931F92CDB7DEB733
:1012B0008983698187E00E944E0700000F90DF91CB
:1012C000CF910895CF93DF931F92CDB7DEB7898377
:1012D000698187E00E94A20700000F90DF91CF9103
:1012E0000895CF93DF93CDB7DEB72697CDBFDEBF8E
:1012F000198212C08981882F90E0805F9B4F2981DD
:10130000222F30E0205F3B4FF90120812860FC0153
:10131000208389818F5F89838981883058F31A827D
:1013200012C08A81882F90E0805D9B4F2A81222FF6
:1013300030E0205D3B4FF90120812860FC012083D3
:101340008A818F5F8A838A81883058F31B8212C01A
:101350008B81882F90E0805B9B4F2B81222F30E088
:10136000205B3B4FF90120812860FC0120838B81A9
:101370008F5F8B838B81883058F31C8212C08C81E5
:10138000882F90E080599B4F2C81222F30E02059EC
:101390003B4FF90120812860FC0120838C818F5F05
:1013A0008C838C81883058F31D8212C08D81882FE8
:1013B00090E080579B4F2D81222F30E020573B4FEC
:1013C000F90120812860FC0120838D818F5F8D834E
:1013D0008D81883058F31E8212C08E81882F90E054
:1013E00080559B4F2E81222F30E020553B4FF90135
:1013F00020812860FC0120838E818F5F8E838E8107
:10140000883058F300002696CDBFDEBFDF91CF9124
:101410000895CF93DF93CDB7DEB780E00E94F9083F
:1014200080E00E94EA0881E00E94CC0881E00E94EE
:10143000DB080E94950C0000DF91CF910895CF93B7
:10144000DF93CDB7DEB780E00E94450880E00E94C0
:10145000360881E00E94180880E00E94270881E099
:101460000E94540880E00E9463080E94970A0000CE
:10147000DF91CF910895CF93DF93CDB7DEB70E9470
:1014800071090E9439050E94090A81E00E94DC0767
:1014900080E00E94EB0781E00E94FA0780E00E9452
:1014A000090881E00E94720881E00E94810880E0C2
:1014B0000E949F0881E00E94900881E00E94AE088F
:1014C00080E00E94BD0880E00E94170980E00E9431
:1014D000440981E00E94080980E00E94350983E008
:1014E0000E94260981E00E94530980E00E9462095F
:1014F0000E9439050E94E70A0E94090A0E941F0AF9
:101500000E9446050E948F0A0E941B050000DF9181
:10151000CF9108951BBEFC0164BF40830895CF9313
:10152000DF93CDB7DEB780E0DF91CF910895CF9301
:10153000DF93CDB7DEB780EC98E021E3FC01208398
:101540001092F92D0000DF91CF910895CF93DF9392
:10155000CDB7DEB780EC98E020EC38E0F9012081CF
:101560002160FC0120830000DF91CF910895CF938B
:10157000DF931F92CDB7DEB7898300008091F92DEC
:101580008230E1F380EC98E02981FC0124830000A3
:1015900080EC98E0FC0183818823D4F780EC98E00C
:1015A000FC0184810F90DF91CF910895CF93DF9359
:1015B00000D0CDB7DEB789839A8380E090E0DC016C
:1015C000BC01CD010F900F90DF91CF910895CF9383
:1015D000DF93CDB7DEB7000080E491E0FC018181AC
:1015E0008823D1F780E491E021E0FC01208380E4AE
:1015F00091E021E0FC01278380E491E021E0FC01FF
:1016000022830000DF91CF910895CF93DF93CDB770
:10161000DEB780E491E020E431E0F90122812E7F01
:10162000FC0122831092FE2D1092FF2D1092002EAD
:101630001092012E1092062E0000DF91CF91089596
:10164000EF92FF920F931F93CF93DF9300D000D0C0
:10165000CDB7DEB769837A838B839C832FEF3FEF0F
:1016600040E050E089819A81AB81BC8179018A0197
:10167000E81AF90A0A0B1B0BD801C7018093022E46
:101680009093032EA093042EB093052E20E431E016
:101690008091022E9091032EA091042EB091052EE0
:1016A000F90180879187000080E491E0FC0181814D
:1016B000882F90E082709927892BB1F7000024963B
:1016C000CDBFDEBFDF91CF911F910F91FF90EF90C3
:1016D0000895CF93DF9300D000D0CDB7DEB780E47C
:1016E00091E020E431E0F90122812E7FFC01228388
:1016F0008091FA2D9091FB2D892B19F40E94050BF6
:1017000068C08091FA2D9091FB2D892B51F080912A
:10171000FA2D9091FB2DFC0186819781A085B185E2
:1017200003C080E090E0DC012091FE2D3091FF2D80
:101730004091002E5091012E821B930BA40BB50BF0
:1017400089839A83AB83BC8389819A81AB81BC8175
:101750000097A140B10548F18091FE2D9091FF2D99
:10176000A091002EB091012E0197AF4FBF4F8093F3
:101770003E2890933F28A0934028B0934128809121
:10178000FA2D9091FB2D80933C2890933D2888E37F
:1017900098E28093FA2D9093FB2D8FEF9FEFA0E0BE
:1017A000B0E089839A83AB83BC8389819A81AB81C2
:1017B000BC81BC01CD010E94200B80E491E020E4BB
:1017C00031E0F90122812160FC01228381E08093D4
:1017D000062E2496CDBFDEBFDF91CF910895CF9323
:1017E000DF9300D000D0CDB7DEB78B839C838B8195
:1017F0009C81FC01148215828091FC2D9091FD2D1D
:10180000892B39F48B819C818093FC2D9093FD2D45
:101810001CC08091FC2D9091FD2D89839A8307C077
:1018200089819A81FC018481958189839A83898148
:101830009A81FC0184819581892B91F789819A8114
:101840002B813C81FC01248335832496CDBFDEBFF0
:10185000DF91CF9108951F920F9200903F000F9259
:1018600011242F933F934F935F936F937F938F93A5
:101870009F93AF93BF93EF93FF93CF93DF9300D0EA
:10188000CDB7DEB78091FA2D9091FB2DFC018481BC
:10189000958189839A838091FA2D9091FB2DFC018B
:1018A00086819781A085B1858093FE2D9093FF2D31
:1018B000A093002EB093012E1092022E1092032EB0
:1018C0001092042E1092052E8091FA2D9091FB2DEE
:1018D0008853984231F08091FA2D9091FB2D0E940F
:1018E000EF0B89819A818093FA2D9093FB2D0E94B2
:1018F000690B80E491E021E0FC01238300000F905C
:101900000F90DF91CF91FF91EF91BF91AF919F9198
:101910008F917F916F915F914F913F912F910F9098
:1019200000923F000F901F901895CF93DF93CDB793
:10193000DEB780E298E02EEA30E0FC0120873187B4
:1019400080E298E020ECFC01268380E0DF91CF91DB
:101950000895CF93DF931F92CDB7DEB78983000040
:1019600080E298E0FC018481882F90E080729927C2
:10197000892BB1F380E298E02981FC0122830000E9
:101980000F90DF91CF910895CF93DF9300D0CDB723
:10199000DEB789836A838A81882F90E08130910540
:1019A000E1F08230910571F1892B09F03BC020E014
:1019B00030E080E090E0FC018081682F8981482F31
:1019C00050E081E090E002C0880F991F4A95E2F74D
:1019D00080958623F901808325C020E030E080E0F7
:1019E00090E0FC018081682F8981482F50E081E0E0
:1019F00090E002C0880F991F4A95E2F7862BF90103
:101A0000808310C08981882F90E0805F9B4F29815F
:101A1000222F30E0205F3B4FF90120812860FC013C
:101A20002083000000000F900F90DF91CF91089568
:101A3000CF93DF9300D0CDB7DEB789836A838A81E5
:101A40008823A9F020E030E080E090E0FC01818173
:101A5000682F8981482F50E081E090E002C0880F14
:101A6000991F4A95E2F7862BF901818315C020E082
:101A700030E080E090E0FC018181682F8981482F6F
:101A800050E081E090E002C0880F991F4A95E2F78C
:101A900080958623F901818300000F900F90DF91DC
:101AA000CF910895CF93DF9300D000D0CDB7DEB7AC
:101AB0008B836C838B81882F90E0805B9B4F898325
:101AC0009A838C81813059F489819A81FC018081CB
:101AD000282F286089819A81FC0120830DC08C8188
:101AE000882351F489819A81FC018081282F277FE6
:101AF00089819A81FC01208300002496CDBFDEBF3E
:101B0000DF91CF910895CF93DF9300D000D0CDB770
:101B1000DEB78B836C838B81882F90E0805B9B4F3B
:101B200089839A8389819A81FC018081982F987F8B
:101B30008C81892B282F89819A81FC0120830000C8
:101B40002496CDBFDEBFDF91CF910895CF93DF9371
:101B500000D0CDB7DEB789836A838A81882F90E071
:101B600081309105E1F08230910571F1892B09F006
:101B70003BC088E090E028E030E0F9012081622F4E
:101B80002981422F50E021E030E002C0220F331FB4
:101B90004A95E2F720952623FC01208325C088E0A2
:101BA00090E028E030E0F9012081622F2981422F66
:101BB00050E021E030E002C0220F331F4A95E2F7E7
:101BC000262BFC01208310C08981882F90E0805B48
:101BD0009B4F2981222F30E0205B3B4FF901208170
:101BE0002860FC012083000000000F900F90DF911F
:101BF000CF910895CF93DF9300D0CDB7DEB789831F
:101C00006A838A818823A9F088E090E028E030E0A8
:101C1000F9012181622F2981422F50E021E030E03B
:101C200002C0220F331F4A95E2F7262BFC012183C5
:101C300015C088E090E028E030E0F9012181622FB2
:101C40002981422F50E021E030E002C0220F331FF3
:101C50004A95E2F720952623FC01218300000F908E
:101C60000F90DF91CF910895CF93DF931F92CDB75F
:101C7000DEB7898388E090E0FC018281282F30E084
:101C80008981482F50E081E090E002C0880F991FC1
:101C90004A95E2F78223932321E0892B09F420E07F
:101CA000822F0F90DF91CF910895CF93DF931F92F2
:101CB000CDB7DEB78983698182E00E94C40C000041
:101CC0000F90DF91CF910895CF93DF931F92CDB7FF
:101CD000DEB78983698182E00E94180D00000F90B1
:101CE000DF91CF910895CF93DF931F92CDB7DEB7E9
:101CF0008983698183E00E94C40C00000F90DF910A
:101D0000CF910895CF93DF931F92CDB7DEB789832C
:101D1000698186E00E94520D00000F90DF91CF9103
:101D20000895CF93DF931F92CDB7DEB78983698182
:101D300086E00E94A60D00000F90DF91CF910895DC
:101D4000CF93DF931F92CDB7DEB78983698186E099
:101D50000E94830D00000F90DF91CF910895CF93E3
:101D6000DF93CDB7DEB786E00E94340EDF91CF91CE
:101D70000895CF93DF931F92CDB7DEB78983698132
:101D800087E00E94A60D00000F90DF91CF9108958B
:101D9000CF93DF931F92CDB7DEB78983698187E048
:101DA0000E94FA0D00000F90DF91CF9108951F92CD
:101DB0000F9200903F000F9211242F933F934F9367
:101DC0005F936F937F938F939F93AF93BF93EF93A3
:101DD000FF93CF93DF93CDB7DEB70E94AF0E982F5E
:101DE00081E08927882361F08091072E9091082E49
:101DF000892B31F08091072E9091082EFC010995D6
:101E00008BE090E020ECFC0120830000DF91CF917B
:101E1000FF91EF91BF91AF919F918F917F916F91C2
:101E20005F914F913F912F910F9000923F000F9043
:101E30001F901895CF93DF93CDB7DEB781E00E9456
:101E4000550E81E00E94B90E81E00E94730E0000E1
:101E5000DF91CF910895CF93DF93CDB7DEB7109286
:101E6000072E1092082E0E941A0F0E943C0F7894A1
:101E700080E0DF91CF910895CF93DF93CDB7DEB7A8
:101E800080E00E94C80E80E00E94640E61E070E075
:101E900080E090E00E945C0F81E00E94C80E6AE042
:101EA00070E080E090E00E945C0F81E00E94640E90
:101EB0000000DF91CF910895CF93DF93CDB7DEB7C8
:101EC0006297CDBFDEBF6F87788B898B9A8B72C08C
:101ED00080E090E0A0E8BFE389839A83AB83BC8372
:101EE00020E030E44CE155E469817A818B819C816A
:101EF0000E946738DC01CB018D839E83AF83B88756
:101F000020E030E040E85FE36D817E818F8198853D
:101F10000E94E13788232CF481E090E089879A873A
:101F20003FC020E03FEF4FE757E46D817E818F8116
:101F300098850E94623818164CF520E030E040E2A7
:101F400051E469817A818B819C810E946738DC0130
:101F5000CB01BC01CD010E94E637DC01CB018987B2
:101F60009A870FC08AEF90E08B879C878B859C8532
:101F70000197F1F78B879C8789859A8501978987D7
:101F80009A8789859A85892B69F714C06D817E812E
:101F90008F8198850E94E637DC01CB0189879A877B
:101FA00089859A858D879E878D859E850197F1F716
:101FB0008D879E878F859889A989BA899C01AD01F3
:101FC00021503109410951092F87388B498B5A8B90
:101FD000892B8A2B8B2B09F07BCF00006296CDBF1B
:101FE000DEBFDF91CF910895CF93DF9300D0CDB7BF
:101FF000DEB789839A8389819A818093072E909393
:10200000082E80E00E94910E81E00E94820E83E003
:102010000E94A00E83E00E94A00E789400000F9012
:102020000F90DF91CF910895CF93DF931F92CDB79B
:10203000DEB789838981882321F083E00E94A00E86
:1020400003C080E00E94A00E00000F90DF91CF91AE
:102050000895CF93DF9300D0CDB7DEB789836A832D
:102060008A81882F90E081309105E1F082309105DE
:1020700071F1892B09F03BC020E030E080E090E076
:10208000FC018081682F8981482F50E081E090E039
:1020900002C0880F991F4A95E2F780958623F901BF
:1020A000808325C020E030E080E090E0FC0180816A
:1020B000682F8981482F50E081E090E002C0880FAE
:1020C000991F4A95E2F7862BF901808310C0898118
:1020D000882F90E0805F9B4F2981222F30E0205F86
:1020E0003B4FF90120812860FC01208300000000A3
:1020F0000F900F90DF91CF910895CF93DF9300D091
:10210000CDB7DEB789836A838A818823A9F020E06E
:1021100030E080E090E0FC018181682F8981482FC8
:1021200050E081E090E002C0880F991F4A95E2F7E5
:10213000862BF901818315C020E030E080E090E03B
:10214000FC018181682F8981482F50E081E090E077
:1021500002C0880F991F4A95E2F780958623F901FE
:10216000818300000F900F90DF91CF910895CF935E
:10217000DF931F92CDB7DEB78983698184E00E9427
:10218000291000000F90DF91CF910895CF93DF9336
:102190001F92CDB7DEB78983698184E00E947D10EC
:1021A00000000F90DF91CF910895CF93DF931F929E
:1021B000CDB7DEB78983698185E00E9429100000D0
:1021C0000F90DF91CF910895CF93DF931F92CDB7FA
:1021D000DEB78983698186E00E94291000000F9094
:1021E000DF91CF910895CF93DF931F92CDB7DEB7E4
:1021F0008983698186E00E947D1000000F90DF9145
:10220000CF910895CF93DF931F92CDB7DEB7898327
:10221000698187E00E94291000000F90DF91CF9123
:102220000895CF93DF931F92CDB7DEB7898369817D
:1022300087E00E947D1000000F90DF91CF910895FC
:10224000CF93DF93CDB7DEB72D97CDBFDEBF8887A5
:1022500099876A877B874C875D871F8219821A82DC
:102260001B821C821D821E8288859985892B39F4E8
:10227000CE0107968887998781E089830DC08A857A
:102280009B85892B39F4CE0107968A879B8781E04D
:102290008A8302C08AEF34C080E00E94111128C0F6
:1022A00088859985FC018081882F90E08B839C83B1
:1022B0008B819C810E94B70A8D839E832D818A85A4
:1022C0009B85FC0120838C859D8501978C879D874C
:1022D0008A81882329F48A859B8501968A879B8732
:1022E0008981882329F4888599850196888799872B
:1022F0008C859D85892BA1F681E00E94111180E0DB
:102300002D96CDBFDEBFDF91CF910895CF93DF93A0
:1023100000D01F92CDB7DEB78A839B83198281E0FC
:102320000E94021181E00E94111181E00E94B71009
:1023300081E00E94C61080E00E94D51081E00E94DA
:10234000E41080E00E94F3100E94970A0E94A60AFF
:102350000E943C0F61E070E080E090E00E945C0F22
:1023600089812396CDBFDEBFDF91CF910895CF93B2
:10237000DF93CDB7DEB72697CDBFDEBF8C836D83ED
:102380007E8319828C81882F90E00397C1F48D8120
:102390009E818A839B838A819B81FC014481558134
:1023A0008A819B81FC01228133818A819B81FC018E
:1023B00080819181B9010E942011898303C08FEF30
:1023C0008983000089812696CDBFDEBFDF91CF9142
:1023D0000895CF93DF93CDB7DEB780E0DF91CF9143
:1023E0000895CF93DF93CDB7DEB72897CDBFDEBF7B
:1023F00089839A836B837C832D833E834F835887A5
:102400008D819E81AF81B885892B8A2B8B2B31F1F1
:102410008B819C81FC01208189819A81FC01208330
:1024200089819A81019689839A838B819C81019607
:102430008B839C838D819E81AF81B8850197A10993
:10244000B1098D839E83AF83B8878D819E81AF81D3
:10245000B885892B8A2B8B2BD9F601C000002896D2
:10246000CDBFDEBFDF91CF910895CF93DF93CDB77E
:10247000DEB72797CDBFDEBF89839A836B832C831A
:102480003D834E835F838C819D81AE81BF81892B8B
:102490008A2B8B2BF1F089819A812B81FC0120837F
:1024A00089819A81019689839A838C819D81AE81ED
:1024B000BF810197A109B1098C839D83AE83BF833E
:1024C0008C819D81AE81BF81892B8A2B8B2B19F743
:1024D00001C000002796CDBFDEBFDF91CF910895E8
:1024E000CF93DF9300D000D0CDB7DEB78B839C8332
:1024F00019821A820AC089819A81019689839A83F6
:102500008B819C8101968B839C838B819C81FC01B8
:102510008081882381F789819A812496CDBFDEBF8F
:10252000DF91CF910895CF93DF93CDB7DEB7809140
:102530008D2E8F5F80938D2E0000DF91CF910895B7
:10254000CF93DF93CDB7DEB72597CDBFDEBF19821E
:1025500010928C2E81E00E941410CE010296AC01E4
:1025600060E770E180E090E00E946E2289838981BB
:102570008823B9F48A819B81AC81BD8182608A8382
:102580009B83AC83BD838A819B81AC81BD819C018F
:10259000AD0160E770E180E090E00E948C228983C9
:1025A00001C0000089812596CDBFDEBFDF91CF91AC
:1025B0000895CF93DF93CDB7DEB72797CDBFDEBFAA
:1025C00089836A837B832C833D834E835F830000F2
:1025D0002796CDBFDEBFDF91CF910895CF93DF93D4
:1025E0001F92CDB7DEB7198280918C2E882311F00F
:1025F000898116C080918B2E882351F480918A2E78
:10260000882331F00E949D1F89838981882331F4BA
:1026100080918B2E8F5F80938B2E01C0000089816B
:102620000F90DF91CF910895CF93DF93CDB7DEB7B1
:1026300080918B2E882329F080918B2E815080935E
:102640008B2E80E0DF91CF910895CF93DF931F927F
:10265000CDB7DEB7198280918B2E882329F0809127
:102660008B2E815080938B2E80918B2E882339F472
:1026700080918A2E882319F00E94081F89838981FE
:102680000F90DF91CF910895CF93DF9300D0CDB716
:10269000DEB789839A832AE130E040E050E060E0D1
:1026A0008AE89EE20E94351283E992E10E94F40FCB
:1026B00069ED72E183E00E94D71780E00F900F90E0
:1026C000DF91CF910895CF92DF92EF92FF920F9317
:1026D0001F93CF93DF93CDB7DEB76F97CDBFDEBF2C
:1026E0008C8B6D8B4E8B5F8B288F398F0A8F1B8F56
:1026F000EC8EFD8ECE8EDF8E8FEF89838D898F7766
:102700008B838C898A8388E090E08C839D838A8D7B
:102710009B8D892B69F02C813D814E8D5F8D8C8D39
:102720009D8D840F951F820F931F8C839D8308C0FE
:102730002C813D81888D998D820F931F8C839D8381
:102740000E94EE1289838981882309F0A6C11A8626
:102750001B861C861D861E861F861E821F8218866B
:1027600019868C89282F30E040E050E08E819F81CF
:10277000A885B985822B932BA42BB52B8E839F83A1
:10278000A887B9878D89882F90E0A0E0B0E0222744
:10279000382F492F5A2F8E819F81A885B985822B8A
:1027A000932BA42BB52B8E839F83A887B9878C810D
:1027B0009D81CC01A0E0B0E0AC01332722278E81BF
:1027C0009F81A885B985822B932BA42BB52B8E8353
:1027D0009F83A887B9878E819F81A885B9859C0131
:1027E000AD016CE870E180E090E00E948C2289836A
:1027F0008981882309F045C11E821F8218861986A7
:102800008E819F81A885B98582608E839F83A887EA
:10281000B9878E819F81A885B9859C01AD0168E744
:1028200070E180E090E00E948C2289838981882376
:1028300009F029C11A861B861C861D861E861F86E6
:102840003DC0CE010696AC0168E770E180E090E003
:102850000E946E22898389818823B9F58E859F85A0
:10286000843F914040F08E859F8561E070E080E07C
:1028700090E00E945C0F8E819F81A885B98582704F
:102880009927AA27BB27892B8A2B8B2B91F4CE0162
:102890000A96AC0160E074E085E190E00E946E224F
:1028A00089838981882399F01A861B861C861D8658
:1028B000F1C08E859F8501968E879F878E859F8527
:1028C000883E934008F4BDCF03C0000001C0000063
:1028D0008A859B85AC85BD85892B8A2B8B2B09F43A
:1028E000C5C08A859B85AC85BD85888B998BAA8B55
:1028F000BB8B8C819D818C839D8388899989AA89D2
:10290000BB89AE014E5F5F4F08E010E020E030E091
:10291000BC01CD010E94912389838981882309F01C
:10292000B4C088899989AA89BB890896A11DB11D5F
:10293000888B998BAA8BBB8B8E899F89892B41F1C0
:10294000888D998D9C0140E050E088899989AA89F9
:10295000BB896E897F8989019A01AB01BC01CD01D8
:102960000E94912389838981882309F090C0888DF2
:10297000998D9C0140E050E088899989AA89BB899A
:10298000820F931FA41FB51F888B998BAA8BBB8BBB
:102990008A8D9B8D892B09F43FC02E8D3F8D888DAC
:1029A000998DA901481B590BCA019C0140E050E0D8
:1029B00088899989AA89BB89820F931FA41FB51F93
:1029C000888B998BAA8BBB8B8C8D9D8D9C0140E055
:1029D00050E088899989AA89BB896A8D7B8D890194
:1029E0009A01AB01BC01CD010E94912389838981A9
:1029F000882309F04EC08C8D9D8D9C0140E050E0F5
:102A000088899989AA89BB89820F931FA41FB51F42
:102A1000888B998BAA8BBB8B8A859B85AC85BD8562
:102A2000880F991FAA1FBB1F880F991FAA1FBB1FC2
:102A30008E839F83A887B9878E819F81A885B9855A
:102A400082608E839F83A887B9878E819F81A885A6
:102A5000B9859C01AD016CE670E180E090E00E94D8
:102A60008C2289838981882339F014C00E94251320
:102A700089838DEF898312C00E9425138983898100
:102A80000EC0000007C0000005C0000003C0000029
:102A900001C000000E94141301C0000089816F96DC
:102AA000CDBFDEBFDF91CF911F910F91FF90EF90CF
:102AB000DF90CF9008950F931F93CF93DF93CDB7FF
:102AC000DEB72F97CDBFDEBF1982CE010496AC01D1
:102AD00060E770E180E090E00E946E228983898146
:102AE000882309F070C18C819D81AE81BF81817086
:102AF0009927AA27BB27892B8A2B8B2B09F460C126
:102B000080E00E9414108C819D81AE81BF818E7FF8
:102B10008C839D83AE83BF838C819D81AE81BF8179
:102B20009C01AD0160E770E180E090E00E948C22A2
:102B300089838981882309F048C181E080938C2EA4
:102B40008C819D81AE81BF81B695A795979587951C
:102B5000B695A795979587959F708A839B838A8161
:102B60009B81892B09F429C11C861D861E861F8620
:102B7000CE010C96AC0164E870E180E090E00E9428
:102B80006E2289838981882321F081E00E941410BC
:102B90001DC18C859D85AE85BF8580938E2E9093BB
:102BA0008F2EA093902EB093912E8A819B81CC0181
:102BB000A0E0B0E08093922E9093932EA093942E59
:102BC000B093952E8C859D85AE85BF85AE01485FFF
:102BD0005F4F04E010E020E030E0BC01CD010E9436
:102BE000CE2289838A859B858A879B8789818823D2
:102BF00021F081E00E941410E9C02A853B858A817A
:102C00009B812817390781F08A859B852A813B8122
:102C1000A901481B590BCA01059730F081E00E94B9
:102C200014108AEF8983D2C088858130E9F48091BD
:102C3000962E9091972E892B09F4B7C0E091962E8D
:102C4000F091972E8C859D85AE85BF850896A11D38
:102C5000B11D2A853B85B9016850710919859C0110
:102C6000AD01812F0995A1C088858230E9F480915A
:102C7000982E9091992E892B09F497C0E091982E67
:102C8000F091992E8C859D85AE85BF850896A11DF6
:102C9000B11D2A853B85B9016850710919859C01D0
:102CA000AD01812F099581C088858430E9F4809138
:102CB0009A2E90919B2E892B09F477C0E0919A2E41
:102CC000F0919B2E8C859D85AE85BF850896A11DB4
:102CD000B11D2A853B85B9016850710919859C0190
:102CE000AD01812F099561C088858630E9F4809116
:102CF000A02E9091A12E892B09F457C0E091A02E0F
:102D0000F091A12E8C859D85AE85BF850896A11D6D
:102D1000B11D2A853B85B9016850710919859C014F
:102D2000AD01812F099541C088858730E1F48091FC
:102D30009C2E90919D2E892BC1F1E0919C2EF091BB
:102D40009D2E8C859D85AE85BF850896A11DB11DE4
:102D50002A853B85B9016850710919859C01AD012F
:102D6000812F099522C088858530E1F48091A22EBB
:102D70009091A32E892BC9F0E091A22EF091A32E61
:102D80008C859D85AE85BF850896A11DB11D2A85C0
:102D90003B85B9016850710919859C01AD01812FEE
:102DA000099503C08AEF898311C080918C2E8823F6
:102DB00069F00E94A012898309C08EEF898306C042
:102DC00084EF898303C0000001C0000089812F9631
:102DD000CDBFDEBFDF91CF911F910F910895CF93AB
:102DE000DF931F92CDB7DEB719820BC080918D2E75
:102DF000815080938D2E0E945B1589838981882361
:102E0000D1F780918D2E882389F789810F90DF91EA
:102E1000CF910895EF92FF920F931F93CF93DF937B
:102E2000CDB7DEB72A97CDBFDEBF6A837B838C83A5
:102E30009D834E835F83288739870A8719828A8119
:102E40009B81AC81BD81892B8A2B8B2B41F08E819C
:102E50009F81892B21F088859985892B51F48A855A
:102E6000882321F00E94A012898396C084EF898371
:102E700093C0888599859C0140E050E08091922E16
:102E80009091932EA091942EB091952E8217930736
:102E9000A407B50718F484EF89837EC020918E2E95
:102EA00030918F2E4091902E5091912E8A819B814E
:102EB000AC81BD8182179307A407B50730F18885DF
:102EC00099859C0140E050E08A819B81AC81BD8165
:102ED000280F391F4A1F5B1FE0908E2EF0908F2E17
:102EE0000091902E1091912E8091922E9091932E80
:102EF000A091942EB091952E8E0D9F1DA01FB11FF5
:102F000082179307A407B50718F484EF898344C098
:102F1000888599859C0140E050E06E817F818A819F
:102F20009B81AC81BD8189019A01AB01BC01CD01BE
:102F30000E94CE2289838981882369F520918E2E73
:102F400030918F2E4091902E5091912E8091922E03
:102F50009091932EA091942EB091952E280F391F09
:102F60004A1F5B1F888599857C0100E010E08A81FB
:102F70009B81AC81BD818E0D9F1DA01FB11F2817A5
:102F800039074A075B0719F08A85882329F00E94D0
:102F9000A012898301C0000089812A96CDBFDEBFBF
:102FA000DF91CF911F910F91FF90EF900895CF93F4
:102FB000DF9300D000D0CDB7DEB78A836B837C83EC
:102FC00019828A81882F90E0092E000CAA0BBB0B76
:102FD00041E050E026E030E0841B950B28173907CC
:102FE000B0F1805B9F4FFC010C9410398B819C8168
:102FF0008093982E9093992E2DC08B819C818093E5
:10300000962E9093972E26C08B819C8180939A2E2A
:1030100090939B2E1FC08B819C8180939E2E9093BA
:103020009F2E18C08B819C818093A02E9093A12EFF
:1030300011C08B819C8180939C2E90939D2E0AC001
:103040008B819C818093A22E9093A32E03C084EF4A
:103050008983000089812496CDBFDEBFDF91CF91A7
:1030600008950F93CF93DF93CDB7DEB7C55AD1093B
:10307000CDBFDEBFFE01E156FF4F8083CE018056FB
:103080009F4FFC0160837183CE018E559F4FFC01E1
:103090002083318342835383CE0181569F4FFC01AD
:1030A00080818C3239F5AE01475F5F4FCE018E557E
:1030B0009F4FFC0180819181A281B38100E024E0D7
:1030C00030E0BC01CD010E940A17882309F062C2DA
:1030D00080910B2E90910C2E892B09F45BC22091CC
:1030E0000B2E30910C2ECE010996BC018CE2F90119
:1030F000099550C2CE0181569F4FFC0180818B31D2
:1031000039F5AE01435F5F4FCE018E559F4FFC01F5
:1031100080819181A281B38100E028E030E0BC0190
:10312000CD010E940A17882309F034C280910B2E2A
:1031300090910C2E892B09F42DC220910B2E3091E9
:103140000C2ECE010D96BC018BE1F901099522C22E
:10315000CE0181569F4FFC018081863039F5AE014A
:10316000455C5F4FCE018E559F4FFC018081918160
:10317000A281B38101E020E330E0BC01CD010E94D7
:103180000A17882309F006C280910B2E90910C2E0D
:10319000892B09F4FFC120910B2E30910C2ECE010A
:1031A000CB96BC0186E0F9010995F4C1CE018156A8
:1031B0009F4FFC0180818E3009F4ECC1CE01815615
:1031C0009F4FFC018081823339F5AE014B5E5F4F2A
:1031D000CE018E559F4FFC0180819181A281B381E8
:1031E00000E024E130E0BC01CD010E940A178823F1
:1031F00009F0D0C180910B2E90910C2E892B09F4EF
:10320000C9C120910B2E30910C2ECE014596BC01E8
:1032100082E3F9010995BEC1CE0181569F4FFC01A1
:1032200080818F3281F5CE01CB9624E630E040E0FC
:1032300050E060E00E943512AE01455C5F4FCE0168
:103240008E559F4FFC0180819181A281B38100E066
:1032500024E630E0BC01CD010E940A17882309F062
:1032600099C180910B2E90910C2E892B09F492C15B
:1032700020910B2E30910C2ECE01CB96BC018FE20B
:10328000F901099587C1CE0181569F4FFC018081CC
:10329000843331F5AE01475D5F4FCE018E559F4FB0
:1032A000FC0180819181A281B38100E024E030E0C3
:1032B000BC01CD010E940A17882309F06BC18091DF
:1032C0000B2E90910C2E892B09F464C120910B2EAA
:1032D00030910C2E60E070E084E3F90109955AC149
:1032E000CE0181569F4FFC018081813161F51092A2
:1032F0000A2EAE01435D5F4FCE018E559F4FFC01FC
:1033000080819181A281B38100E024E030E0BC01A2
:10331000CD010E940A17882309F03CC18DA5809336
:10332000092E80910B2E90910C2E892B09F432C11D
:1033300020910B2E30910C2ECE018D96BC0181E197
:10334000F901099527C1CE0181569F4FFC0180816B
:10335000833139F5AE01455C5F4FCE018E559F4FED
:10336000FC0180819181A281B38100E02CE230E0F8
:10337000BC01CD010E940A17882309F00BC180917E
:103380000B2E90910C2E892B09F404C120910B2E49
:1033900030910C2ECE01CB96BC0183E1F901099549
:1033A000F9C0CE0181569F4FFC018081843039F5F0
:1033B000CE018E559F4FFC0180819181A281B38106
:1033C00000E024E030E0AE014F5F5F4FBC01CD0173
:1033D0000E940A17882309F0DDC080910B2E90917E
:1033E0000C2E892B09F4D6C020910B2E30910C2E77
:1033F000CE010196BC0184E0F9010995CBC0CE0154
:1034000081569F4FFC018081853639F5CE018E555E
:103410009F4FFC0180819181A281B38100E024E073
:1034200030E0AE014F5F5F4FBC01CD010E940A1733
:10343000882309F0AFC080910B2E90910C2E892B20
:1034400009F4A8C020910B2E30910C2ECE010196CC
:10345000BC0185E6F90109959DC0CE0181569F4FBB
:10346000FC018081893039F5AE01455C5F4FCE01AA
:103470008E559F4FFC0180819181A281B38101E033
:1034800024E630E0BC01CD010E940A17882309F030
:1034900081C080910B2E90910C2E892B09F47AC05B
:1034A00020910B2E30910C2ECE01CB96BC0189E0E1
:1034B000F90109956FC0CE0181569F4FFC018081B3
:1034C0008A3239F5AE014F5C5F4FCE018E559F4F6A
:1034D000FC0180819181A281B38101E024E030E090
:1034E000BC01CD010E940A17882309F053C08091C6
:1034F0000B2E90910C2E892B09F44CC020910B2E91
:1035000030910C2ECE01C196BC018AE2F9010995D9
:1035100041C0CE0181569F4FFC0180818032D1F5A0
:10352000AE014B5C5F4FCE018E559F4FFC018081F9
:103530009181A281B38100E026E030E0BC01CD01A1
:103540000E940A17882331F52FA938AD4DA95EA92D
:10355000CE018E559F4FFC0180819181A281B38164
:103560000696A11DB11D01E0BC01CD010E940A1704
:10357000882381F480910B2E90910C2E892B51F091
:1035800020910B2E30910C2ECE01C596BC0180E20D
:10359000F90109950000CB55DF4FCDBFDEBFDF91AC
:1035A000CF910F910895CF93DF93CDB7DEB7AA9750
:1035B000CDBFDEBF89A79AA7198281E088A789A518
:1035C0009AA5892B19F484EF89832DC089A59AA522
:1035D000FC018081918180930B2E90930C2E109290
:1035E0000A2ECE0188960E942F25898389818823FF
:1035F000C9F480E090E00E94441389838981882384
:1036000059F461E378E181E00E94D717CE01029678
:103610000E943324898307C0000080E090E00E946C
:10362000822501C000008981AA96CDBFDEBFDF914F
:10363000CF910895CF93DF9300D0CDB7DEB78983C4
:103640009A830E94EF160F900F90DF91CF9108950B
:10365000EF920F931F93CF93DF93CDB7DEB72897E9
:10366000CDBFDEBF89839A836B834C832D833E83DA
:103670000F8318874F8158852D813E8189819A81DA
:10368000E12C8A014C816B810E944F1B2896CDBF93
:10369000DEBFDF91CF911F910F91EF900895CF92F0
:1036A000DF92EF92FF920F931F93CF93DF93CDB7EB
:1036B000DEB7C358D109CDBFDEBFFE01E758FF4FCB
:1036C00080839183CE0185589F4FDC016C93CE019E
:1036D00084589F4FFC014083CE0183589F4FDC01EB
:1036E0002D933C93CE0181589F4FFC0100831183A1
:1036F000CE018F579F4FDC01EC921982CE01845886
:103700009F4FFC018081813009F475C0CE01835840
:103710009F4FDC018D919C91892B19F484EF898353
:10372000BDC1CE0184589F4FFC018081823009F0D9
:1037300062C0CE0183589F4FDC018D919C910E9405
:1037400070128034910509F056C01A82CE01835858
:103750009F4FFC01808191818B839C8348C08A812B
:10376000882F90E02B813C81820F931FDC018C918C
:103770008033B8F18A81882F90E02B813C81820FC1
:10378000931FFC0180818A3358F08A81882F90E052
:103790002B813C81820F931FDC018C91813408F1D5
:1037A0008A81882F90E02B813C81820F931FFC013E
:1037B0008081873458F08A81882F90E02B813C816A
:1037C000820F931FDC018C91813658F08A81882FFB
:1037D00090E02B813C81820F931FFC018081873612
:1037E00018F084EF89835AC18A818F5F8A838A8126
:1037F000803408F4B4CFCE0185589F4FDC018C9102
:10380000882339F0CE0185589F4FFC018081813299
:1038100018F084EF898342C1CE0181589F4FDC01AB
:103820008D919C91892B41F0CE0181589F4FFC01D5
:10383000808191810F9760F0CE0181589F4FDC010C
:103840008D919C918F3F910519F084EF898326C15A
:10385000CE0185589F4FFC018081882F90E0A0E029
:10386000B0E09E0127583F4FF901608171819E01B0
:10387000235F3F4FF901EA5BFF4F9C01AD01CF0190
:103880000E94F111CE0185589F4FDC018C91882F49
:1038900090E09E012D5A3F4F820F931FFC01108232
:1038A000CE018F5A9F4F9E0121583F4FD9012D9134
:1038B0003C91FC0120833183CE018F579F4F21E043
:1038C000DC018C91882309F420E0CE018C589F4FB5
:1038D000FC012083CE010D968D839E838D819E8178
:1038E0008F5B9F4F9E0124583F4FD9012C91FC01C3
:1038F0002083CE0184589F4FDC018C91833009F0E6
:103900005FC0CE0183589F4FFC01808191818F83DE
:1039100098878D819E8189879A878F819885DC0120
:103920008C912FEF280F89859A85FC01208389854A
:103930009A85DC018C91843018F084EF8983AEC0C5
:103940008F819885FC0181812FEF280F89859A85C9
:10395000DC0111962C9389859A85FC0181818A303E
:1039600051F089859A85DC0111968C918A3119F084
:1039700084EF898393C08F819885FC018181882F92
:1039800090E0A0E0B0E02F813885B9016E5F7F4FF5
:1039900029853A85F90132969C01AD01CF010E943B
:1039A000F1118F819885DC0111968C91882F90E020
:1039B00029853A85820F931F0296FC0110825EC012
:1039C000CE0184589F4FDC018C918230A9F5CE0145
:1039D00083589F4FFC01808191810E9470128B87D8
:1039E0009C878B859C85892B29F08B859C858134D0
:1039F000910518F084EF898351C08B859C850196D1
:103A0000CC01A0E0B0E0ED81FE81CE57DF4FE8832E
:103A1000F983C258D0409E0123583F4FF90160817D
:103A200071819C01AD01CE57DF4F88819981C258C9
:103A3000D0400E94F11122C0CE0184589F4FDC017A
:103A40008C91843089F4ED81FE81CE0183589F4FA3
:103A5000DC018D919C912EE330E040E050E0BC0110
:103A6000CF010E94F1110AC0CE0184589F4FFC0182
:103A70008081813019F084EF898310C0CE010D96CA
:103A8000C12CD12CE12CF12C00E010E02CE630E030
:103A9000AC0168E281E00E94631389838981CD577C
:103AA000DF4FCDBFDEBFDF91CF911F910F91FF9010
:103AB000EF90DF90CF900895CF93DF93CDB7DEB72F
:103AC0002D97CDBFDEBF6A877B878C879D87198244
:103AD0008A859B85AC85BD858A839B83AC83BD83AA
:103AE0008A819B81AC81BD8191608A839B83AC83F9
:103AF000BD838A819B81AC81BD819C01AD0160EA5F
:103B000074E180E090E00E948C228A819B81AC81EC
:103B1000BD81892B8A2B8B2BF9F01E821F82188680
:103B20001986CE010696AC0160EA74E180E090E06F
:103B30000E946E22898389818823D9F62E813F8154
:103B4000488559858A819B81AC81BD8128173907B9
:103B50004A075B0719F0CDCF000001C0000080E0EC
:103B60002D96CDBFDEBFDF91CF910895CF93DF9328
:103B7000CDB7DEB72597CDBFDEBF1A821B821C8270
:103B80001D821982CE010296AC0168E074E180E0EA
:103B900090E00E946E22898389818823E9F58A81D9
:103BA0009B81AC81BD8191608A839B83AC83BD8303
:103BB0008A819B81AC81BD819C01AD0168E074E18B
:103BC00080E090E00E948C2289838981882331F5EE
:103BD000CE010296AC0160E07AE180E090E00E94C4
:103BE0006E22898389818823D9F48A819B81AC8163
:103BF000BD81A1608A839B83AC83BD838A819B81C5
:103C0000AC81BD819C01AD0160E07AE180E090E093
:103C10000E948C22898305C0000003C0000001C0FF
:103C2000000089812596CDBFDEBFDF91CF91089539
:103C3000CF93DF9300D000D0CDB7DEB780910D2EAB
:103C400090910E2EA0910F2EB091102E892B8A2BC1
:103C50008B2B09F0CDC04DE05EE260E070E180E0CA
:103C600090E00E946E22882361F010920D2E109237
:103C70000E2E10920F2E1092102E80E090E0DC019C
:103C8000BFC0CE010196AC0164EF73E180E090E02B
:103C90000E946E22882361F010920D2E10920E2E3B
:103CA00010920F2E1092102E80E090E0DC01A8C040
:103CB00080910D2E90910E2EA0910F2EB091102E6E
:103CC000803A9240A041B105B1F489819A81AB81DB
:103CD000BC810197A105B10509F468C081EA92E0B1
:103CE000A0E1B0E080930D2E90930E2EA0930F2EA6
:103CF000B093102E5BC080910D2E90910E2EA0914E
:103D00000F2EB091102E803B9240A041B10559F585
:103D100089819A81AB81BC810397A105B10509F422
:103D200045C089819A81AB81BC810497A105B10509
:103D300069F481EB92E0A0E1B0E080930D2E9093C6
:103D40000E2EA0930F2EB093102E30C082EB92E077
:103D5000A0E1B0E080930D2E90930E2EA0930F2E35
:103D6000B093102E23C080910D2E90910E2EA09115
:103D70000F2EB091102E803F9105A041B105B1F4F6
:103D80004DE05EE260E070E08BE390E00E946E2226
:103D9000882361F010920D2E10920E2E10920F2E8D
:103DA0001092102E80E090E0DC012AC080910D2E50
:103DB00090910E2EA0910F2EB091102EA07F809387
:103DC0000D2E90930E2EA0930F2EB093102E809157
:103DD0000D2E90910E2EA0910F2EB091102EA56059
:103DE00080930D2E90930E2EA0930F2EB093102E35
:103DF00080910D2E90910E2EA0910F2EB091102E2D
:103E0000BC01CD012496CDBFDEBFDF91CF910895D7
:103E1000CF93DF93CDB7DEB72597CDBFDEBF198235
:103E2000CE010296AC0160E170E080E090E00E947B
:103E30006E2289838981882309F071C08A819B81E0
:103E4000AC81BD8181709927AA27BB27892B8A2B3A
:103E50008B2B09F0E5CF0000CE010296AC0161E0AA
:103E600070E080E090E00E946E228983898188233F
:103E700009F057C08A819B81AC81BD8182709927EE
:103E8000AA27BB27892B8A2B8B2BC9F08A819B8180
:103E9000AC81BD818D7F8A839B83AC83BD838A8106
:103EA0009B81AC81BD819C01AD0161E070E080E04F
:103EB00090E00E948C22898389818823A1F5CE011C
:103EC0000296AC016BE070E080E090E00E946E2210
:103ED00089838981882349F58A819B81AC81BD8151
:103EE00081709927AA27BB27892B8A2B8B2BF1F06E
:103EF0008A819B81AC81BD818E7F8A839B83AC83C9
:103F0000BD838A819B81AC81BD819C01AD016BE049
:103F100070E080E090E00E948C22898307C000005E
:103F200005C0000003C0000001C000008981259683
:103F3000CDBFDEBFDF91CF910895CF93DF93CDB793
:103F4000DEB72D97CDBFDEBF19821E821F82188675
:103F500019861A861B861C861D861A821B821C8265
:103F60001D82CE010696AC016BE070E080E090E02F
:103F70000E946E2289838981882309F083C08E8103
:103F80009F81A885B98581709927AA27BB27892B8E
:103F90008A2B8B2B91F48E819F81A885B9858160B6
:103FA0009C01AD016BE070E080E090E00E948C220B
:103FB00089838981882309F067C0CE010696AC0108
:103FC00061E070E080E090E00E946E228983898148
:103FD000882309F05BC08E819F81A885B985827096
:103FE0009927AA27BB27892B8A2B8B2B91F48E81AB
:103FF0009F81A885B98582609C01AD0161E070E078
:1040000080E090E00E948C2289838981882309F0D6
:104010003FC0CE010A96AC016FE070E080E090E016
:104020000E946E22898389818823A1F58A859B85D8
:10403000AC85BD8584709927AA27BB27892B8A2B3D
:104040008B2BE1F462E070E080E090E00E945C0F76
:104050008A819B81AC81BD810196A11DB11D8A839E
:104060009B83AC83BD838A819B81AC81BD81059795
:10407000A105B10570F28CEF89830DC000000E948C
:10408000462209C0000007C0000005C0000003C0B0
:10409000000001C0000089812D96CDBFDEBFDF91F9
:1040A000CF910895CF93DF93CDB7DEB76297CDBFA1
:1040B000DEBF8A8B1D8619821A821B821C821D829A
:1040C0001E821F82188619861A861B861C8682E528
:1040D00093E1DC018E879F87A88BB98B19821A82A6
:1040E0001B821C8264E170E180E090E00E94522219
:1040F000DC01CB0189839A83AB83BC8389819A815C
:10410000AB81BC81BB233CF061E070E080E090E0DB
:104110000E945C0FE7CF00006CEB77E082E090E05C
:104120000E945222DC01CB0189839A83AB83BC833A
:1041300089819A81AB81BC8181709927AA27BB278D
:1041400089839A83AB83BC8389819A81AB81BC814B
:10415000892B8A2B8B2B51F519821A821B821C8288
:104160001CC061E070E080E090E00E945C0F6CE0B9
:1041700070E0CB010E945222DC01CB0189839A833B
:10418000AB83BC838D819E81AF81B8850196A11DD3
:10419000B11D8D839E83AF83B88789819A81AB815E
:1041A000BC818E39904DAD4AB041D9F68A898230B2
:1041B000A9F42DE735ED4CE15CE36CEA77E082E0B1
:1041C00090E00E948C2220E030E040E150E06CE87A
:1041D00070E180E090E00E948C223BC08A898330AD
:1041E000A1F42DE735ED4CE15CE36CEA77E082E089
:1041F00090E00E948C2220E030E0A9016CE870E1A0
:1042000080E090E00E948C2224C08A898430A9F446
:1042100080E890E0A0E0B0E089879A87AB87BC8710
:104220008E859F85A889B9899C01AD016CE870E1F4
:1042300080E090E00E948C220CC08E859F85A8892A
:10424000B9899C01AD016CE870E180E090E00E94CA
:104250008C220E94181EDC01CB019F70AA27BB276D
:10426000803A9340A105B10550F089859A85AB85C8
:10427000BC858260BC01CD010E945C1D08C089859F
:104280009A85AB85BC85BC01CD010E945C1D21E6F1
:104290003FE242E55FEE6CE070E0CB010E948C22D1
:1042A0008D856296CDBFDEBFDF91CF910895CF930C
:1042B000DF93CDB7DEB76697CDBFDEBF8E8B198299
:1042C0001A821B821C821D821E821F8218861986FA
:1042D0008FEF9FEFDC018A879B87AC87BD878CE8D7
:1042E00090E1A0E0B0E08E879F87A88BB98B86E332
:1042F00096E2A3E5B2E08A8B9B8BAC8BBD8B8E895B
:10430000823021F08E89833009F040C08CEA97E03A
:10431000A2E0B0E08E879F87A88BB98B83EC91ECED
:10432000ADE5B7ED8A8B9B8BAC8BBD8B2FC062E06C
:1043300070E080E090E00E945C0F8E859F85A889E8
:10434000B989BC01CD010E945222DC01CB018A83D4
:104350009B83AC83BD838E819F81A885B98501969F
:10436000A11DB11D8E839F83A887B9872E813F81B0
:10437000488559858A859B85AC85BD852817390771
:104380004A075B0718F08BEF89831FC02A893B8996
:104390004C895D898A819B81AC81BD812817390751
:1043A0004A075B0721F68A899B89AC89BD898633D8
:1043B0009642A345B24049F420E030E0A9016CE800
:1043C00070E180E090E00E948C2289816696CDBFEA
:1043D000DEBFDF91CF910895CF93DF93CDB7DEB7E6
:1043E0002597CDBFDEBF1A821B821C821D82CE01A3
:1043F0000296AC0160E074E180E090E00E946E22E1
:10440000898389818823B9F48A819B81AC81BD81AC
:104410009B7F8A839B83AC83BD838A819B81AC8194
:10442000BD819C01AD0160E074E180E090E00E94FC
:104430008C22898301C0000089812596CDBFDEBF13
:10444000DF91CF910895CF93DF9300D01F92CDB726
:10445000DEB78A839B8319828A819B810E948611A1
:10446000898389812396CDBFDEBFDF91CF910895E7
:10447000CF93DF931F92CDB7DEB719820E94E91167
:10448000898389810F90DF91CF910895CF93DF9336
:104490001F92CDB7DEB719820E94EA2B0F90DF91F1
:1044A000CF910895CF93DF9300D000D0CDB7DEB782
:1044B00069837A838B839C8389819A81AB81BC8158
:1044C000BC01CD010E948A2CDC01CB01BC01CD01D5
:1044D0002496CDBFDEBFDF91CF910895CF93DF93B8
:1044E000CDB7DEB72697CDBFDEBF69837A838B83D6
:1044F0009C834D835E832D813E8189819A81AB812E
:10450000BC81A901BC01CD010E94AD2C2696CDBF76
:10451000DEBFDF91CF910895CF93DF93CDB7DEB7A4
:104520002897CDBFDEBF69837A838B839C832D83DD
:104530003E834F8358872D813E814F8158858981E5
:104540009A81AB81BC81BC01CD010E94D42C2896FC
:10455000CDBFDEBFDF91CF910895CF93DF93CDB76D
:10456000DEB72897CDBFDEBF69837A838B839C83B8
:104570004D835E832F8338872F8138854D815E81FF
:1045800089819A81AB81BC81BC01CD010E94FE2C46
:104590002896CDBFDEBFDF91CF910895EF92FF92B5
:1045A0000F931F93CF93DF93CDB7DEB76197CDBF46
:1045B000DEBF688779878A879B874C875D870E87F0
:1045C0001F87288B398B8091422890914328089728
:1045D0008E839F8319821A821B821C821D828E8188
:1045E0009F819C0140E050E08E859F85A889B98914
:1045F000281739074A075B07B8F06E857F858981E0
:104600009A812C853D85A901480F591F8885998578
:10461000AA85BB859B01BC01CD010E94AD22982FCC
:104620008D81890F8D8351C089819A812C853D852B
:10463000A901480F591F2E813F8188859985AA8538
:10464000BB85BC01CD010E94AD22982F8D81890FC1
:104650008D838D818823C1F58E819F81CC01A0E05F
:10466000B0E02E853F854889598979018A01E81A89
:10467000F90A0A0B1B0BD801C7018E879F87A88BED
:10468000B98B8E819F81CC01A0E0B0E029813A8175
:104690004B815C81820F931FA41FB51F89839A836E
:1046A000AB83BC838E819F81CC01A0E0B0E02885E4
:1046B00039854A855B85820F931FA41FB51F8887A4
:1046C0009987AA87BB878BCF00008D816196CDBF6C
:1046D000DEBFDF91CF911F910F91FF90EF90089572
:1046E000CF93DF93CDB7DEB72897CDBFDEBF698309
:1046F0007A838B839C834D835E832F8338872F81BE
:1047000038854D815E8189819A81AB81BC81BC01F4
:10471000CD010E94282D2896CDBFDEBFDF91CF911D
:104720000895EF92FF920F931F93CF93DF93CDB72E
:10473000DEB76197CDBFDEBF688779878A879B87A1
:104740004C875D870E871F87288B398B8091422885
:104750009091432808978E839F8319821A821B8227
:104760001C821D828E819F819C0140E050E08E85DD
:104770009F85A889B989281739074A075B07B8F0C8
:104780006E857F8589819A812C853D85A901480F99
:10479000591F88859985AA85BB859B01BC01CD01E0
:1047A0000E947023982F8D81890F8D8351C089813C
:1047B0009A812C853D85A901480F591F2E813F8183
:1047C00088859985AA85BB85BC01CD010E9470238F
:1047D000982F8D81890F8D838D818823C1F58E81DE
:1047E0009F81CC01A0E0B0E02E853F8548895989A2
:1047F00079018A01E81AF90A0A0B1B0BD801C701D3
:104800008E879F87A88BB98B8E819F81CC01A0E07A
:10481000B0E029813A814B815C81820F931FA41FF4
:10482000B51F89839A83AB83BC838E819F81CC0122
:10483000A0E0B0E0288539854A855B85820F931F0B
:10484000A41FB51F88879987AA87BB878BCF0000D5
:104850008D816196CDBFDEBFDF91CF911F910F910A
:10486000FF90EF9008950F931F93CF93DF93CDB7F1
:10487000DEB76597CDBFDEBF8C8B9D8B1886198602
:104880001A861B86198228E0CE010C96FC01322F75
:1048900011923A95E9F78C899D89892B09F4D6C044
:1048A0008C899D8926E230E040E050E060E00E9483
:1048B0003512CE010896AC0168E070E08CE090E023
:1048C0000E946E2289838981882309F0BFC0888570
:1048D0009985AA85BB85892B8A2B8B2B09F4B4C0BB
:1048E00088859985AA85BB85A360AE01445F5F4F2B
:1048F00008E010E020E030E0BC01CD010E94CE22B3
:1049000089838981882309F0A1C088899989AA8926
:10491000BB8988879987AA87BB8788859985AA8557
:10492000BB85AA27BB2788879987AA87BB878885E5
:104930009985AA85BB85892B8A2B8B2B09F481C08D
:1049400088859985AA85BB85A3604C895D8906E227
:1049500010E020E030E0BC01CD010E94CE2289832E
:104960008981882309F072C08C899D89FC0184812A
:10497000882F90E0382F22278C899D89FC01858122
:10498000882F90E082959295907F9827807F982736
:104990009927282B392B8C899D89FC018681882FAA
:1049A00090E08F709927822B932B8A839B8382E5DB
:1049B00093E18C839D838C899D89FC018781882F5D
:1049C00090E0382F22278C899D89FC018085882FD3
:1049D00090E082959295907F9827807F98279927DD
:1049E000282B392B8C899D89FC018185882F90E0AB
:1049F0008F709927822B932B8E839F838A819B8133
:104A0000892B41F08E819F81892B21F08E819F819E
:104A1000892B19F484EF898319C02C813D818E8103
:104A20009F812817390718F483EF89830FC02C81E1
:104A30003D818A819B818217930740F483EF8983AC
:104A400005C084EF898302C084EF898389816596DC
:104A5000CDBFDEBFDF91CF911F910F910895CF930E
:104A6000DF9300D000D0CDB7DEB78B839C83198253
:104A70008B819C81892B71F08B819C81FC018081D1
:104A80008A838A81882319F08A81853028F081E021
:104A90008A8302C081E08A8380E090E00E94232222
:104AA00089838981882331F50E94102C8A810E9494
:104AB0005220898389818823A9F48A810E94572101
:104AC00089838981882381F48A818230A1F08A8157
:104AD000833089F00E94B61D89838981882331F44F
:104AE00089810AC0000003C0000001C000000E94CC
:104AF000382201C0000089812496CDBFDEBFDF913E
:104B0000CF910895CF93DF9300D01F92CDB7DEB73A
:104B10008A839B830E94EC2189838981882381F485
:104B200080E00E946A3789838981882359F40E9432
:104B3000382289838981882339F40E94802C05C01A
:104B4000000003C0000001C0000089812396CDBF92
:104B5000DEBFDF91CF910895CF93DF93CDB7DEB75E
:104B60002A97CDBFDEBF8F83988769877A8719829E
:104B70001A828F8198858B839C8389859A858D8302
:104B80009E83CE010196BC0183E00E94B7112A9654
:104B9000CDBFDEBFDF91CF910895CF93DF93CDB727
:104BA000DEB72A97CDBFDEBF8F83988769877A8764
:104BB0008F81988589839A831B821C8289859A8537
:104BC0008D839E83CE010196BC0183E00E94B711C4
:104BD0002A96CDBFDEBFDF91CF910895CF93DF93AB
:104BE000CDB7DEB72597CDBFDEBF8C836D838C81BB
:104BF000882F90E09C01220F331F8D81882F90E039
:104C00008227932784539F4F89839A8389819A812E
:104C1000FC0184918B838B812596CDBFDEBFDF9114
:104C2000CF910895CF93DF93CDB7DEB72797CDBF50
:104C3000DEBF89836A837B832C833D834E835F83BE
:104C40000EC08A819B819C012F5F3F4F2A833B834B
:104C5000FC018081682F89810E94EE2589838C81E7
:104C60009D81AE81BF819C01AD0121503109410977
:104C700051092C833D834E835F83892B8A2B8B2B99
:104C800001F789812796CDBFDEBFDF91CF910895CF
:104C9000AF92CF92DF92EF92FF920F931F93CF9339
:104CA000DF93CDB7DEB76997CDBFDEBF8C874D8769
:104CB0005E876F87788B098B1A8B2B8B3C8BCD8A09
:104CC000DE8AEF8AF88EA98E85E0898381E08A8367
:104CD0008C858B838C85882F90E0092E000CAA0B85
:104CE000BB0B41EC50E02EE030E0841B950B281705
:104CF000390708F4F1C0895A9F4FFC010C94103910
:104D00008D859E85AF85B889CD01AA27BB278C8369
:104D10008D859E85AF85B889892F9A2FAB2FBB27AC
:104D20008D838D858E8385E08983D8C08D859E8512
:104D3000AF85B889892F9A2FAB2FBB278C83898D9C
:104D4000882319F08C8180688C838D858D831E82E9
:104D500085E08983C3C01C821D821E8285E0898311
:104D6000BDC01C821D821E8285E08983B7C08FEF83
:104D70008C838FEF8D838FEF8E8385E08983AEC028
:104D80008D859E85AF85B889CD01AA27BB278C83E9
:104D90008D859E85AF85B889892F9A2FAB2FBB272C
:104DA0008D838D858E838D899E89AF89B88D892F5E
:104DB0009A2FAB2FBB278F838D89888787E08983C4
:104DC0008DC08D859E85AF85B889CD01AA27BB276B
:104DD0008C838D859E85AF85B889892F9A2FAB2FBF
:104DE000BB278D838D858E838D899E89AF89B88DF4
:104DF000CD01AA27BB278F838D899E89AF89B88D66
:104E0000892F9A2FAB2FBB2788878D89898788E0C8
:104E1000898364C08D859E85AF85B889892F9A2F37
:104E2000AB2FBB278C83898D882319F08C818068F8
:104E30008C838D858D8389899A89AB89BC898B2FD9
:104E40009927AA27BB278E8389899A89AB89BC8930
:104E5000CD01AA27BB278F8389899A89AB89BC8911
:104E6000892F9A2FAB2FBB2788878989898788E06C
:104E7000898334C08D859E85AF85B889CD01AA27E9
:104E8000BB278C838D859E85AF85B889892F9A2F06
:104E9000AB2FBB278D838D858E8389899A89AB89BA
:104EA000BC898B2F9927AA27BB278F8389899A8949
:104EB000AB89BC89CD01AA27BB27888789899A89B4
:104EC000AB89BC89892F9A2FAB2FBB27898789890A
:104ED0008A8789E0898302C01A8200008A81882338
:104EE00089F18091112E8823F9F48981882F90E02F
:104EF0008C01015011098981882F90E00197092EBA
:104F0000000CAA0BBB0BBE016D5F7F4F9C01AD0176
:104F10008FE70E941226282F220FCE010396800FC2
:104F2000911FFC01208303C089818150898389817D
:104F3000282F30E0CE010396B9010E94CD258823A9
:104F400009F01A828A816996CDBFDEBFDF91CF91C9
:104F50001F910F91FF90EF90DF90CF90AF90089549
:104F6000CF93DF93CDB7DEB72697CDBFDEBF8E835D
:104F700081E08A838091112E882319F482E089834D
:104F800002C083E089838981282F30E0CE01039617
:104F9000B9010E94AC25882311F01A821CC08981B6
:104FA000882F90E001979E012D5F3F4F820F931F46
:104FB000FC018081882369F48981882F90E0029721
:104FC0009E012D5F3F4F820F931FFC018081833C28
:104FD00011F01A8200008A812696CDBFDEBFDF91D4
:104FE000CF910895CF93DF9300D000D0CDB7DEB737
:104FF0008C8381E089838C818F3C31F08C81853C6E
:1050000019F08C81863C51F4CE01039661E070E08A
:105010000E94AC25882311F019822BC08AE08A8374
:10502000CE01039661E070E00E94AC25882311F068
:1050300019821FC09B818C81981731F08A81982F2B
:1050400091509A83181664F38AE08A83CE010396FE
:1050500061E070E00E94AC25882311F0198209C03C
:105060008B81882331F08A81982F91509A8318166A
:105070006CF389812496CDBFDEBFDF91CF91089577
:10508000CF93DF93CDB7DEB72F97CDBFDEBF8B8732
:105090009C876D877E874F8781E08F831B821C8270
:1050A0008D859E858130904228F48D859E858D83E7
:1050B0009E8304C080E090E28D839E838AE090E02E
:1050C00089839A83CE010A9661E070E00E94AC2544
:1050D000882311F01F8214C08A8582958F70882FD3
:1050E00090E08F7099270F9751F089819A819C01E8
:1050F0002150310929833A83892B21F701C000000F
:105100008F81882309F43FC089819A811816190676
:1051100014F01F8239C04D815E818B819C812B856B
:105120003C85820F931FBA010E94AC25882311F0A1
:105130001F822AC08F85882371F48091112E8823C5
:1051400051F4CE01089662E070E00E94AC258823FD
:1051500011F01F8219C02B813C818D819E81820FAD
:10516000931F8B839C838D819E812D853E85A90114
:10517000481B590BCA018D879E878D859E85892B7B
:1051800009F08ECF01C000008F812F96CDBFDEBF0A
:10519000DF91CF910895CF93DF93CDB7DEB72D97F1
:1051A000CDBFDEBF8A879B876C877D8781E08D833B
:1051B0001886198619821A828C859D8581309042C5
:1051C00028F48C859D858B839C8304C080E090E2CD
:1051D0008B839C8380EF8F8389819A81892B59F4FB
:1051E0008C859D858130904218F483E08E830DC0BC
:1051F00081E08E830AC08C859D858130904218F4B1
:1052000083E08E8302C082E08E839F818E81892B12
:105210008F83CE01079661E070E00E94CD25882340
:1052200011F01D8234C089819A812A853B85820FC5
:10523000931F2B813C81B9010E94CD25882311F059
:105240001D8225C08091112E882351F4CE0108962D
:1052500062E070E00E94CD25882311F01D8217C006
:1052600029813A818B819C81820F931F89839A8344
:105270002C853D858B819C81A901481B590BCA0156
:105280008C879D878C859D85892B09F095CF8D8195
:105290002D96CDBFDEBFDF91CF910895AF92CF9213
:1052A000DF92EF92FF920F931F93CF93DF93CDB7CF
:1052B000DEB72C97CDBFDEBF6D837E838F8398874B
:1052C00029873A874B875C878AE0898381E08A83D4
:1052D00089EC8B831C828D819E81AF81B885C197BB
:1052E000A105B10528F483EC8B8381E08C8303C096
:1052F00089EC8B831C8229853A854B855C858D8161
:105300009E81AF81B885AC80C12CD12C7601689488
:10531000C2F889019A01AC01BD018B810E94482627
:105320008A838A81813029F48B810E94F2278A83C3
:1053300001C000008A81813019F161E070E080E0F5
:1053400090E00E945C0FA12CC12CD12C760100E0D2
:1053500010E0980140E050E0BA018FEC0E9448262E
:105360008FEC0E94F22761E070E080E090E00E9404
:105370005C0F8981815089838981882309F0ABCFB3
:105380008A812C96CDBFDEBFDF91CF911F910F9107
:10539000FF90EF90DF90CF90AF900895AF92CF92B3
:1053A000DF92EF92FF920F931F93CF93DF93CDB7CE
:1053B000DEB72B97CDBFDEBF6C837D838E839F834B
:1053C000488759872A873B878AE08A8387EC8B83C3
:1053D0008A859B85019721F482E090E08A879B87EC
:1053E0008A859B859C0140E050E08C819D81AE8147
:1053F000BF81A12C69017A0100E010E09801AC01A5
:10540000BD018B810E944826898389818130B9F44E
:105410008B810E94F22789838981813091F42A85CA
:105420003B8588859985B9010E94CB28898389812C
:10543000813049F48B810E94B027898305C0000028
:1054400003C0000001C000008981813019F161E0D2
:1054500070E080E090E00E945C0FA12CC12CD12C68
:10546000760100E010E0980140E050E0BA018FECD6
:105470000E9448268FEC0E94F22761E070E080E0F5
:1054800090E00E945C0F8A8181508A838A81882300
:1054900009F09ECF89812B96CDBFDEBFDF91CF91E2
:1054A0001F910F91FF90EF90DF90CF90AF900895F4
:1054B000AF92CF92DF92EF92FF920F931F93CF9311
:1054C000DF93CDB7DEB72E97CDBFDEBF69877A8772
:1054D0008B879C874D875E878AE0898381E08A83FA
:1054E0008AEC8B831C8289859A85AB85BC858F3F2E
:1054F0009105A105B10509F028F484EC8B8381E0C6
:105500008C8303C08AEC8B831C8289859A85AB854A
:10551000BC85AC80C12CD12C76016894C2F800E027
:1055200010E09801AC01BD018B810E9448268A835E
:105530008A81813009F046C08B810E94F2278A83DC
:105540008A81813009F040C0CE0105964C8164E02B
:1055500070E00E9440288A838A818130B9F58D816C
:10556000282F30E040E050E08E81882F90E0A0E0CE
:10557000B0E0BA2FA92F982F8827282B392B4A2B38
:105580005B2B8F81882F90E0A0E0B0E0DC019927B1
:105590008827282B392B4A2B5B2B8885882F90E076
:1055A000A0E0B0E0B82FAA2799278827822B932B59
:1055B000A42BB52B2D853E85F90180839183A28391
:1055C000B38305C0000003C0000001C000008A8151
:1055D000813019F161E070E080E090E00E945C0FA2
:1055E000A12CC12CD12C760100E010E0980140E004
:1055F00050E0BA018FEC0E9448268FEC0E94F227FF
:1056000061E070E080E090E00E945C0F8981815051
:1056100089838981882309F066CF8A812E96CDBF40
:10562000DEBFDF91CF911F910F91FF90EF90DF9040
:10563000CF90AF900895AF92CF92DF92EF92FF920A
:105640000F931F93CF93DF93CDB7DEB72E97CDBFC8
:10565000DEBF6F83788789879A874B875C872D8722
:105660003E8788EC8C838AE08A831B828D859E85A9
:10567000019731F482E090E08D879E8781E08B83F3
:105680008D859E859C0140E050E08F819885A9859D
:10569000BA85A12C69017A0100E010E09801AC0103
:1056A000BD018C810E94482689838981813019F54A
:1056B0008C810E94F227898389818130F1F48B816A
:1056C000882379F02D853E85CE01059640E0B9010D
:1056D0000E94402889832D818B859C85FC01208335
:1056E0000DC02D853E858B859C8540E0B9010E94CB
:1056F0004028898303C0000001C0000089818130F7
:1057000019F161E070E080E090E00E945C0FA12C54
:10571000C12CD12C760100E010E0980140E050E06F
:10572000BA018FEC0E9448268FEC0E94F22761E0BC
:1057300070E080E090E00E945C0F8A8181508A8353
:105740008A81882309F092CF89812E96CDBFDEBF52
:10575000DF91CF911F910F91FF90EF90DF90CF904D
:10576000AF900895CF93DF9300D000D0CDB7DEB7D0
:1057700064E278EE80E090E00E948A2CDC01CB01AC
:1057800089839A83AB83BC8389819A81AB81BC81F5
:105790008F7889839A83AB83BC8389819A81AB811B
:1057A000BC81806589839A83AB83BC830000898137
:1057B0009A81AB81BC819C01AD0164E278EE80E00E
:1057C00090E00E94D42C00002496CDBFDEBFDF9174
:1057D000CF910895AF92CF92DF92EF92FF920F9305
:1057E0001F93CF93DF93CDB7DEB7A12CC12CD12C63
:1057F000760100E010E0980140E050E0BA018FEC43
:105800000E9448268FEC0E94F22780E0DF91CF9122
:105810001F910F91FF90EF90DF90CF90AF90089580
:10582000CF93DF93CDB7DEB72897CDBFDEBF1D8204
:105830001E821F8218861092112ECE010596AC0191
:1058400064E278EE80E090E00E94582A882381F498
:1058500081E08093112ECE010596AC0164E278EED2
:1058600080E090E00E94582A882311F480E042C032
:105870008091112E882371F58D819E81AF81B8852D
:10588000837F8D839E83AF83B8878D819E81AF8117
:10589000B8858F788D839E83AF83B8878D819E81F5
:1058A000AF81B88580658D839E83AF83B8878D81F6
:1058B0009E81AF81B8859C01AD0164E278EE80E005
:1058C00090E00E944E29882311F480E013C081E00B
:1058D0008093112ECE010196AC0160E070E180E072
:1058E00090E00E94582A882311F48AEF03C00E9496
:1058F000B22B80E02896CDBFDEBFDF91CF91089517
:10590000CF93DF93CDB7DEB71092112E80E0DF91F9
:10591000CF910895CF93DF93CDB7DEB72897CDBF52
:10592000DEBF6D837E838F8398878D819E81AF815B
:10593000B8859E012F5F3F4FA901BC01CD010E9498
:10594000582A89819A81AB81BC81BC01CD012896FE
:10595000CDBFDEBFDF91CF910895CF93DF93CDB759
:10596000DEB72797CDBFDEBF6A837B838C839D83A1
:105970004E835F832E813F818A819B81AC81BD8173
:10598000A901BC01CD010E94582A898389818130F7
:1059900011F4198202C08AEF898389812796CDBFCD
:1059A000DEBFDF91CF910895CF93DF93CDB7DEB700
:1059B0002997CDBFDEBF6A837B838C839D832E8333
:1059C0003F83488759872E813F81488559858A8141
:1059D0009B81AC81BD81BC01CD010E944E29898390
:1059E0008981813011F4198202C08AEF898389810B
:1059F0002996CDBFDEBFDF91CF910895CF93DF937E
:105A0000CDB7DEB72997CDBFDEBF6A837B838C839A
:105A10009D834E835F8328873987288539854E810A
:105A20005F818A819B81AC81BD81BC01CD010E94D7
:105A30001B2B89838981813011F4198202C08AEF7E
:105A4000898389812996CDBFDEBFDF91CF910895EB
:105A5000CF93DF93CDB7DEB72997CDBFDEBF6A8383
:105A60007B838C839D834E835F832887398728853A
:105A700039854E815F818A819B81AC81BD81BC016A
:105A8000CD010E94CE2989838981813011F4198248
:105A900002C08AEF898389812996CDBFDEBFDF915D
:105AA000CF910895EF92FF920F931F93CF93DF93BF
:105AB000CDB7DEB76397CDBFDEBF8A876B877C87A4
:105AC0004D870E871F87288B398BEA8AFB8A8A8944
:105AD0009B89892B09F410C18A85282F880F330BE5
