:100000000C94EE000C940B010C940B010C947215E3
:100010000C940B010C940B010C940B010C940B0130
:100020000C940B010C940B010C940B010C940B0120
:100030000C940B010C940B010C940B010C940B0110
:100040000C940B010C940B010C940B010C940B0100
:100050000C940B010C940B010C940B010C940B01F0
:100060000C941E180C940B010C940B010C940B01B6
:100070000C940B010C940B010C940B010C940B01D0
:100080000C940B010C940B010C940B010C940B01C0
:100090000C940B010C940B010C940B010C940B01B0
:1000A0001202120214021602180218021E021A028A
:1000B00044213D2152214B216721592160210730E4
:1000C00007305130DD2FF22FF82F283028308130C3
:1000D000C72FB330B330B330B330FE2F0009121B3B
:1000E000242D363F48415A536C657E7719100B0218
:1000F0003D342F265158434A757C676E323B202988
:10010000161F040D7A7368615E574C452B223930F7
:100110000F061D14636A7178474E555C646D767FD7
:100120004049525B2C253E3708011A137D746F66D7
:1001300059504B42353C272E1118030A565F444D47
:10014000727B60691E170C053A3328214F465D54B7
:100150006B627970070E151C232A31384148535AB7
:10016000656C777E09001B122D243F3658514A4397
:100170007C756E671019020B343D262F737A616807
:10018000575E454C3B3229201F160D046A63787177
:100190004E475C55222B3039060F141D252C373E57
:1001A0000108131A6D647F7649405B523C352E2757
:1001B00018110A03747D666F5059424B171E050CC7
:1001C000333A21285F564D447B7269600E071C1537
:1001D0002A233831464F545D626B707911241FBE5B
:1001E000CFEFCDBFDFE3DEBF18E2A0E0B8E2ECEC7A
:1001F000FBE802C005900D92A036B107D9F72AE2BC
:10020000A0E6B8E201C01D92A937B207E1F70E944B
:10021000BA0B0C9481450C940000CF93DF93CDB7BB
:10022000DEB70E94F6100000DF91CF910895CF93C2
:10023000DF93CDB7DEB70E94D402882321F081E09E
:100240000E9465020DC00E9494020E940703882349
:1002500021F081E00E94650203C080E00E946502F7
:10026000DF91CF9108950F931F93CF93DF931F9248
:10027000CDB7DEB70E94923B0FEF10E026E03BECDB
:1002800042E069E080E19BEC0E946F2489838981D0
:10029000882319F081E00E94650281E00F90DF91D0
:1002A000CF911F910F910895CF93DF931F92CDB7F8
:1002B000DEB721EE33E040E068E078E0CB010E9459
:1002C000C03F898382E00F90DF91CF910895CF9353
:1002D000DF931F92CDB7DEB710926128109262288B
:1002E000109263281092642889E19BEC0E94883F59
:1002F00089838981882319F081E00E94650283E067
:100300000F90DF91CF910895CF93DF931F92CDB7D8
:10031000DEB740E061E082E090E00E94D03B809355
:100320000F2880910F2888231CF481E00E94650229
:1003300082E090E0809364299093652987E09BE5B3
:100340008093662990936729809161289091622813
:10035000A0916328B09164288093682990936929BB
:10036000A0936A29B0936B2980910F2840E164E63D
:1003700079E20E94B23C89838981882319F081E067
:100380000E94650284E00F90DF91CF910895CF9392
:10039000DF931F92CDB7DEB78FE098E20E94E904A9
:1003A0000E949E050E94B205898385E00F90DF912F
:1003B000CF910895CF93DF931F92CDB7DEB788E03A
:1003C00089838981882F90E00E947D0287E00F90C9
:1003D000DF91CF910895CF93DF93CDB7DEB70E9421
:1003E000730280E00E94650286E0DF91CF9108955C
:1003F000CF93DF93CDB7DEB780916028882F90E050
:10040000092E000CAA0BBB0B40E050E027E030E0C7
:10041000841B950B2817390788F0805B9F4FFC01E0
:100420000C94714280E00BC081E009C082E007C0FB
:1004300083E005C08AE599E20E94361480E0DF91EE
:10044000CF910895CF93DF9300D0CDB7DEB78983E6
:100450009A8389819A8180935A2990935B2900001D
:100460000F900F90DF91CF910895CF93DF931F925C
:10047000CDB7DEB780E090E00E9461240E94DD14D9
:10048000809100288230E1F080910028898382E009
:10049000809300288981813021F40E94F8018093A3
:1004A000602880916028882F90E0880F991F8F5FC7
:1004B000974DFC0180819181FC0109958093602812
:1004C00000000F90DF91CF910895CF93DF931F929B
:1004D000CDB7DEB7898389818093002800000F9013
:1004E000DF91CF910895CF93DF93CDB7DEB70E9410
:1004F00049050000DF91CF910895CF93DF9300D09D
:10050000CDB7DEB789839A8389819A810E9494420C
:10051000282F89819A81622F0E94570500000F9031
:100520000F90DF91CF910895CF93DF93CDB7DEB7D2
:1005300085E2EAE3FBECAEEEB8E201900D928A951B
:10054000E1F78EEE98E2892F8F938EEE98E28F93EB
:100550008FE59BEC892F8F938FE59BEC8F9384E73E
:1005600099E2892F8F9384E799E28F930E949D42AD
:100570000F900F900F900F900F900F908EE0ECE780
:10058000FBECA7E1B9E201900D928A95E1F781E2D7
:10059000EAE8FBECA6E2B9E201900D928A95E1F758
:1005A0000000DF91CF910895CF93DF93CDB7DEB7F1
:1005B0002F97CDBFDEBFCE0102962EE030E040E0A7
:1005C00050E060E00E947C1B82E893E08A839B837A
:1005D0000E94721889838981882329F081E00E9412
:1005E000650281E00EC0CE0102960E941A24898322
:1005F0008981882329F081E00E94650281E001C0A1
:1006000080E02F96CDBFDEBFDF91CF910895CF93CD
:10061000DF93CDB7DEB762EB73E085E193E00E9434
:10062000B33B80E0DF91CF9108950F931F93CF9359
:10063000DF93CDB7DEB72897CDBFDEBF8D836E8346
:100640004F8358878E81882F90E08630910559F12D
:1006500087309105E1F0059709F04BC08F819885AF
:1006600089839A8389819A81892B51F089819A8122
:10067000FC018181882324F080E00E94650239C05A
:100680008D810E94E63E81E00E94650232C0809129
:100690000F2800E010E0980140E350E066EA79E2BC
:1006A0000E94FC3D26C08F8198858B839C838B8123
:1006B0009C81892BB9F08B819C81FC018281938183
:1006C000181619067CF48B819C81FC018281938130
:1006D000282F8B819C81FC0180819181622F0E9457
:1006E0007F0506C08D810E94E63E81E00E94650282
:1006F000000000002896CDBFDEBFDF91CF911F9193
:100700000F910895CF93DF93CDB7DEB72597CDBF77
:10071000DEBF8B836C837D838B81882F90E08C324E
:10072000910539F0C29709F016C080E00E94650279
:1007300012C08C819D8189839A8389819A81FC0171
:100740008081882339F480910F280E94E63E81E061
:100750000E946502000000002596CDBFDEBFDF913C
:10076000CF910895CF93DF93CDB7DEB72697CDBF56
:10077000DEBF89839A834B835C836D837E838B8109
:100780009C81AD81BE81892B8A2B8B2B81F08B8143
:100790009C81AD81BE818093612890936228A09353
:1007A0006328B093642880E00E94650203C081E062
:1007B0000E94650200002696CDBFDEBFDF91CF917B
:1007C00008950F93CF93DF93CDB7DEB72997CDBFB1
:1007D000DEBF69837A838B839C832D833E834F8323
:1007E000588709878985882F90E08130910551F0DD
:1007F0008230910559F0892B09F00CC080E00E94ED
:10080000650208C081E00E94650204C081E00E9488
:100810006502000000002996CDBFDEBFDF91CF91B9
:100820000F910895CF93DF93CDB7DEB780E894E0C2
:1008300020E834E0F90120812860FC01208380E871
:1008400094E020E834E0F90120812460FC01208359
:1008500080E894E020E834E0F90124812B7FFC015A
:10086000248380E894E020E834E0F90124812860C2
:10087000FC01248380EA94E020EA34E0F90120813D
:100880002064FC01208380EA94E020EA34E0F9014E
:1008900020812061FC01208380EA94E020EA34E09A
:1008A000F90124812F7BFC01248380EA94E020EA73
:1008B00034E0F90124812061FC0124830000DF91F0
:1008C000CF910895CF93DF93CDB7DEB780E294E068
:1008D00020E234E0F90120812062FC01208384E2DF
:1008E00094E024E234E0F90120812062FC012083BD
:1008F00080EB9AE02AEFFC01248780EB9AE028EC59
:10090000FC01258780EB9AE020EB3AE0F901208199
:100910002160FC01208380EB9AE020EB3AE0F901B2
:1009200021812061FC01218380EB9AE020EB3AE0F9
:10093000F90121812760FC0121830000DF91CF9123
:100940000895CF93DF93CDB7DEB780EA94E020EA35
:1009500034E0F90120812062FC01208380EA94E0E8
:1009600020EA34E0F90124812062FC01248380E93B
:100970009AE02AEFFC01248780E99AE028ECFC0148
:10098000258780E99AE020E93AE0F9012081216099
:10099000FC01208380E99AE020E93AE0F901218115
:1009A0002061FC01218380E99AE020E93AE0F90125
:1009B00021812760FC01218380EE95E020EE35E067
:1009C000F90125812260FC0125830000DF91CF9190
:1009D0000895CF93DF9300D0CDB7DEB789839A8394
:1009E00089819A818093CE289093CF2800000F9020
:1009F0000F90DF91CF910895CF93DF93CDB7DEB7FE
:100A00002897CDBFDEBF89839A836B837C834D8318
:100A10005E832F833887000000002896CDBFDEBF9D
:100A2000DF91CF910895CF93DF9300D0CDB7DEB79C
:100A300089839A8380E00E94650200000F900F90E6
:100A4000DF91CF910895CF93DF9300D0CDB7DEB77C
:100A500089839A8389819A81FC0186819781AC017F
:100A600089819A81FC01608171818091CE28909169
:100A7000CF28FC01808120E030E00E94493D89813F
:100A80009A810E946C0600000F900F90DF91CF9129
:100A90000895CF93DF93CDB7DEB764E779E280E1C5
:100AA00098E20E94CE080000DF91CF910895CF9385
:100AB000DF93CDB7DEB7A497CDBFDEBF8AA39BA3DC
:100AC0006CA321E2EBEAFBECCE010196DC01019084
:100AD0000D922A95E1F78CA1282F30E08AA19BA1E5
:100AE000AC01CE010196BC0180E198E20E946C0944
:100AF0000000A496CDBFDEBFDF91CF910895CF93C4
:100B0000DF9300D01F92CDB7DEB789839A836B83C2
:100B10008B81282F30E089819A81A901BC0188E16D
:100B200098E20E94880680E198E20E94360B00005D
:100B30002396CDBFDEBFDF91CF910895CF93DF9392
:100B4000CDB7DEB780E198E20E946C0688E198E2BA
:100B50000E946C0680E198E20E9498070000DF91F5
:100B6000CF910895CF93DF93CDB7DEB7909145280D
:100B700081E0923009F080E0DF91CF910895CF932A
:100B8000DF9300D0CDB7DEB789839A8389819A81BC
:100B90009827892798270F900F90DF91CF9108957C
:100BA000CF93DF93CDB7DEB72897CDBFDEBF8F835E
:100BB000988781E090E089839A831B821C821D8242
:100BC0001E822AC08D819E812F813885820F931FBE
:100BD000FC018081882F90E0AC014F775527298157
:100BE0003A81429FC001439F900D529F900D112466
:100BF0002B813C81820F931F8B839C8389819A81F7
:100C00009695982F88279795879589839A838D81C4
:100C10009E8101968D839E838D819E81892B91F289
:100C20008D819E8101972F813885820F931FFC0152
:100C3000808188233CF28B819C812896CDBFDEBFCA
:100C4000DF91CF910895CF93DF93CDB7DEB728978B
:100C5000CDBFDEBF8D839E836F8378871B821C820E
:100C60008D819E818F779078992324F401978068F5
:100C70009F6F019689839A838D819E81992314F4B5
:100C800081589F4F880F892F881F990B8D839E83D2
:100C90008D819E81181619062CF489819A818068AD
:100CA00089839A838B819C812F813885820F931F42
:100CB0002981FC0120838B819C8101968B839C83FD
:100CC0008D819E81892B61F68B819C812896CDBF79
:100CD000DEBFDF91CF910895CF93DF9300D0CDB7E2
:100CE000DEB789839A8389819A81FC0120813181D1
:100CF00089819A81FC012483358389819A81FC0151
:100D00001682178200000F900F90DF91CF91089507
:100D1000CF93DF93CDB7DEB72A97CDBFDEBF8D83EC
:100D20009E836F83788749875A878D819E81FC01D6
:100D3000208131818D819E81FC0182819381019787
:100D4000820F931F8B839C838D819E81FC01208168
:100D500031818D819E81FC0184819581AC018D81E1
:100D60009E81FC0180819181481B590B8D819E8160
:100D7000FC0186819781BA01680F791F8D819E8160
:100D8000FC0142815381CB01BA010E945D42820F76
:100D9000931F89839A8343C029813A818B819C81E7
:100DA0008217930738F48D819E81FC0180819181A7
:100DB00089839A838D819E81FC0186819781892B0D
:100DC00051F08D819E81FC012481358189819A8138
:100DD0002817390759F18F819885FC012081898175
:100DE0009A81FC01208389819A81019689839A8363
:100DF0008F81988501968F8398878D819E81FC01D4
:100E0000868197819C012F5F3F4F8D819E81FC01E0
:100E10002683378389859A85019789879A8789856B
:100E20009A85181619060CF4B7CF01C00000898501
:100E30009A852A96CDBFDEBFDF91CF910895CF93DB
:100E4000DF93CDB7DEB72A97CDBFDEBF8D839E83FC
:100E50006F83788749875A878D819E81FC01208125
:100E600031818D819E81FC01828193810197820F66
:100E7000931F8B839C8319821A8242C089819A8135
:100E80002F813885820F931F2D813E81F9012481A6
:100E90003581F9012081FC0120838D819E81FC0137
:100EA000848195819C012F5F3F4F8D819E81FC0144
:100EB000248335838D819E81FC01868197819C01ED
:100EC000215031098D819E81FC01268337838D81DC
:100ED0009E81FC01248135818B819C81821793073F
:100EE00050F48D819E81FC01208131818D819E8114
:100EF000FC012483358389819A81019689839A83B1
:100F000029813A8189859A85281739074CF48D8182
:100F10009E81FC0186819781181619060CF4AECFCC
:100F200089819A812A96CDBFDEBFDF91CF91089546
:100F3000CF93DF93CDB7DEB76997CDBFDEBF888F84
:100F4000998F888D998DFC01828993890E949442A2
:100F50008B839C83888D998D08960E946C06888D62
:100F6000998D0E946C06888D998DFC0115AA888D3B
:100F7000998DFC0112A613A6888D998DFC0116A2ED
:100F800017A2888D998DFC0110A611A6888D998DC8
:100F900021E030E0FC0124A735A780E18D831A868B
:100FA00084E08B878DE48C8781E58D8784E58E874F
:100FB00084E58F8784E0888B888D998DFC01868DF0
:100FC000978D892B39F4888D998DFC0182A193A18D
:100FD000892BB1F082EC898B888D998DFC0182A1DF
:100FE00093A12B813C81280F391F888D998DFC019D
:100FF000868D978D820F931F049689839A8306C0EE
:1010000082E0898B8B819C8189839A83888D998DDD
:10101000FC0180899189892F99278A8B888D998DE8
:10102000FC01808991898B8B888D998D9E012B5F26
:101030003F4F41E050E0B9010E94880689819A81C2
:101040000C969C01CE010696BC01C9010E942306A4
:10105000AC01888D998D9E012A5F3F4FB9010E9496
:101060008806888D998D9E01265F3F4F4AE050E0AB
:10107000B9010E9488068B819C810E94BF058B83E9
:101080009C83888D998D9E012D5F3F4F42E050E0FB
:10109000B9010E948806888D998DFC018289938907
:1010A0000E949442AC01888D998DFC01228933897C
:1010B000888D998DB9010E948806888D998DFC01D3
:1010C000868D978D892B41F4888D998DFC0182A1A5
:1010D00093A1892B09F446C0888D998DFC01868DDA
:1010E000978D0E94BF058C8B9D8B888D998D9E015D
:1010F0002C5E3F4F42E050E0B9010E948806888D87
:10110000998DFC01868D978DAC01888D998DFC01A0
:10111000248D358D888D998DB9010E948806888D22
:10112000998DFC0182A193A10E94BF058E8B9F8B9C
:10113000888D998D9E012A5E3F4F42E050E0B901B3
:101140000E948806888D998DFC0182A193A1AC0133
:10115000888D998DFC0120A131A1888D998DB901CF
:101160000E948806888D998D21E0FC0125AB888D31
:10117000998DFC01828D938D892B49F0888D998DF5
:10118000FC01228D338D888D998DF9010995000020
:101190006996CDBFDEBFDF91CF910895CF93DF93E6
:1011A000CDB7DEB76097CDBFDEBF8D879E876F87D7
:1011B000788B8F8598890E94944289839A831C86B4
:1011C00082E88B838D859E85FC0184A595A5892F5A
:1011D000990F990B88878D859E85FC0184A595A51F
:1011E00089878D859E85FC0184A595A59C012F5F2F
:1011F0003F4F8D859E85FC0124A735A789819A8163
:101200000E94BF058A879B878D859E859E012D5FE5
:101210003F4F41E050E0B9010E94880689819A81E0
:1012200005969C01CE010496BC01C9010E942306CB
:10123000AC018D859E859E012C5F3F4FB9010E94B8
:1012400088068D859E859E01285F3F4F42E050E0D5
:10125000B9010E9488068D859E859E01265F3F4FBD
:1012600042E050E0B9010E94880649815A818D858B
:101270009E852F853889B9010E9488068D859E85B7
:101280009E01245F3F4F41E050E0B9010E94880673
:101290008D859E85FC0180A591A59C012F5F3F4F08
:1012A0008D859E85FC0120A731A78D859E85FC013B
:1012B000828D938D892B49F08D859E85FC01228D31
:1012C000338D8D859E85F901099500006096CDBF0F
:1012D000DEBFDF91CF910895CF93DF93CDB7DEB717
:1012E0006197CDBFDEBF8A879B876C877D874E87DE
:1012F0005F87288B398B8C859D850E9494428983DA
:101300009A8380E38B838A859B859E012D5F3F4F67
:1013100041E050E0B9010E94880689819A819C01D0
:101320002E5F3F4F88899989820F931F9E012C5F02
:101330003F4FB9010E942306AC018A859B859E011F
:101340002C5F3F4FB9010E94880689819A81892FBD
:10135000990F990B8887898189878A859B859E014A
:10136000285F3F4F42E050E0B9010E9488068A851D
:101370009B8549815A812C853D85B9010E9488064B
:101380008A859B85488959892E853F85B9010E94A8
:1013900088068A859B85FC01828D938D892B49F077
:1013A0008A859B85FC01228D338D8A859B85F90179
:1013B000099500006196CDBFDEBFDF91CF91089502
:1013C000AF92BF92CF92DF92EF92FF920F931F9353
:1013D000CF93DF93CDB7DEB76097CDBFDEBF8B87EE
:1013E0009C876D877E874F87588BCDB6DEB68DB7CD
:1013F0009EB75C018D859E85DC018C91882F90E0E5
:10140000382F22278D859E850196FC018081882FAB
:1014100090E0822B932B89839A8389819A817C0126
:10142000FFEFEF1AFF0AC70101978B839C834DB72B
:101430005EB74E195F094DBF5EBF8DB79EB701966F
:101440008D839E832F85388989819A81D901A81B34
:10145000B90BCD018C0101501109C80101978F838F
:101460009887EDB7FEB7E01BF10BEDBFFEBF8DB760
:101470009EB7019689879A878D859E859C012E5FF0
:101480003F4F8D819E81A701B9010E948B42C70108
:1014900001972D813E81820F931FDC011C9289816F
:1014A0009A8102962D853E85280F391F89859A8558
:1014B000A801B9010E948B42C801019729853A858C
:1014C000820F931FFC0110828B859C85DC0158964E
:1014D000ED91FC915997980149855A856D817E81DE
:1014E0008B859C850995ADBEBEBE0000CDBEDEBE1F
:1014F0006096CDBFDEBFDF91CF911F910F91FF901E
:10150000EF90DF90CF90BF90AF900895EF92FF9251
:101510000F931F93CF93DF93CDB7DEB72997CDBF3E
:10152000DEBF8D839E836F83488759870DB71EB7B3
:101530008DB79EB77C01888599859C012150310922
:1015400029833A832DB73EB7281B390B2DBF3EBFE9
:101550008DB79EB701968B839C832B813C818D81B7
:101560009E81089648855985B9010E941F078F8181
:1015700082958F70882F90E08330910509F45CC0CC
:10158000843091051CF4029741F061C089309105C7
:10159000B9F10D9709F442C05AC08B819C81FC01BE
:1015A00081818823B9F48D819E8122E0FC0125ABE5
:1015B0008D819E81FC0184899589892B09F446C01F
:1015C0008D819E81FC01248935898D819E81F9015F
:1015D00009953CC08D819E8123E0FC0125AB8D8166
:1015E0009E81FC0186899789892B81F18D819E815D
:1015F000FC01268937898D819E81F901099526C0D4
:101600008D819E81FC0180A591A59C01215031090D
:101610008D819E81FC0120A731A719C08D819E81FB
:10162000FC0182A593A59C01215031098D819E81E9
:10163000FC0122A733A70BC02B813C81488559852B
:101640008D819E81B9010E94E00901C00000EDBEBC
:10165000FEBE00000DBF1EBF2996CDBFDEBFDF91CD
:10166000CF911F910F91FF90EF900895CF93DF934B
:10167000CDB7DEB72997CDBFDEBF8887998782E0D7
:1016800090E089839A8340C08885998508969E0159
:101690002D5F3F4F42E050E0B9010E941F0782E0FA
:1016A00090E089839A8314C09E012D5F3F4F89810A
:1016B0009A81280F391F88859985089641E050E066
:1016C000B9010E941F0789819A81019689839A83B3
:1016D00089819A8101979E012D5F3F4F820F931F51
:1016E000FC018081882324F489819A810597E0F2A6
:1016F000CE01039601960E94D0059C016B818885DE
:101700009985A9010E94860A88859985FC018685AC
:10171000978502970CF0B8CF00002996CDBFDEBFA9
:10172000DF91CF910895CF93DF9300D01F92CDB773
:10173000DEB789836A837B838981882F90E00E944A
:10174000F01500002396CDBFDEBFDF91CF91089545
:10175000CF93DF9300D0CDB7DEB789839A8388EE2D
:1017600093E0A0E0B0E0BC01CD010F900F90DF91BD
:10177000CF910895CF93DF93CDB7DEB786E498E29B
:101780008093752A9093762A0E940D010E9412047C
:101790000E9462040E94A104789488EA9BE00E945F
:1017A00022020E9417010E943502FDCFCF93DF93E2
:1017B000CDB7DEB780E0DF91CF910895CF93DF936F
:1017C00000D01F92CDB7DEB789839A836B8389815E
:1017D0009A814B8168ED0E94451100002396CDBF90
:1017E000DEBFDF91CF910895CF93DF93CDB7DEB702
:1017F00061E081E690E00E94DE0B80E0DF91CF9116
:101800000895CF93DF93CDB7DEB780E0DF91CF911E
:101810000895CF93DF9300D000D0CDB7DEB78B8390
:101820006C838B81882F90E0805F9B4F89839A83A4
:101830008C81813059F489819A81FC018081282F23
:10184000286089819A81FC0120830DC08C818823C6
:1018500051F489819A81FC018081282F277F898119
:101860009A81FC01208300002496CDBFDEBFDF916A
:10187000CF910895CF93DF9300D0CDB7DEB78983A2
:101880006A838A81882F90E081309105E1F082306F
:10189000910571F1892B09F03BC020E030E080E038
:1018A00090E0FC018081682F8981482F50E081E021
:1018B00090E002C0880F991F4A95E2F78095862331
:1018C000F901808325C020E030E080E090E0FC0159
:1018D0008081682F8981482F50E081E090E002C02C
:1018E000880F991F4A95E2F7862BF901808310C073
:1018F0008981882F90E0805F9B4F2981222F30E0E3
:10190000205F3B4FF90120812860FC01208300000B
:1019100000000F900F90DF91CF910895CF93DF9348
:1019200000D0CDB7DEB789836A838A818823A9F086
:1019300020E030E080E090E0FC018181682F898127
:10194000482F50E081E090E002C0880F991F4A952F
:10195000E2F7862BF901818315C020E030E080E0BA
:1019600090E0FC018181682F8981482F50E081E05F
:1019700090E002C0880F991F4A95E2F78095862370
:10198000F901818300000F900F90DF91CF910895AE
:10199000CF93DF9300D000D0CDB7DEB78B836C83BD
:1019A0008B81882F90E0805D9B4F89839A838C8107
:1019B000813059F489819A81FC018081282F286027
:1019C00089819A81FC0120830DC08C81882351F488
:1019D00089819A81FC018081282F277F89819A81C2
:1019E000FC01208300002496CDBFDEBFDF91CF91A4
:1019F0000895CF93DF9300D0CDB7DEB789836A8394
:101A00008A81882F90E081309105E1F08230910544
:101A100071F1892B09F03BC084E090E024E030E0D4
:101A2000F9012081622F2981422F50E021E030E02E
:101A300002C0220F331F4A95E2F720952623FC01AE
:101A4000208325C084E090E024E030E0F90120818B
:101A5000622F2981422F50E021E030E002C0220FA6
:101A6000331F4A95E2F7262BFC01208310C08981A1
:101A7000882F90E0805D9B4F2981222F30E0205DF0
:101A80003B4FF90120812860FC0120830000000009
:101A90000F900F90DF91CF910895CF93DF9300D0F7
:101AA000CDB7DEB789836A838A818823A9F084E071
:101AB00090E024E030E0F9012181622F2981422F5A
:101AC00050E021E030E002C0220F331F4A95E2F7D8
:101AD000262BFC01218315C084E090E024E030E057
:101AE000F9012181622F2981422F50E021E030E06D
:101AF00002C0220F331F4A95E2F720952623FC01EE
:101B0000218300000F900F90DF91CF910895CF9324
:101B1000DF9300D000D0CDB7DEB78B836C838B8191
:101B2000882F90E0805B9B4F89839A838C818130E2
:101B300059F489819A81FC018081282F286089814C
:101B40009A81FC0120830DC08C81882351F4898106
:101B50009A81FC018081282F277F89819A81FC014D
:101B6000208300002496CDBFDEBFDF91CF91089582
:101B7000CF93DF9300D000D0CDB7DEB78B836C83DB
:101B80008B81882F90E0805B9B4F89839A838C8127
:101B9000882359F089819A81FC018081282F20684F
:101BA00089819A81FC0120830AC089819A81FC0184
:101BB0008081282F2F7789819A81FC012083000062
:101BC0002496CDBFDEBFDF91CF910895CF93DF93F1
:101BD00000D000D0CDB7DEB78B836C838B81882F8C
:101BE00090E0805B9B4F89839A8389819A81FC0175
:101BF0008081982F987F8C81892B282F89819A81C9
:101C0000FC01208300002496CDBFDEBFDF91CF9181
:101C10000895CF93DF9300D0CDB7DEB789836A8371
:101C20008A81882F90E081309105E1F08230910522
:101C300071F1892B09F03BC088E090E028E030E0AA
:101C4000F9012081622F2981422F50E021E030E00C
:101C500002C0220F331F4A95E2F720952623FC018C
:101C6000208325C088E090E028E030E0F901208161
:101C7000622F2981422F50E021E030E002C0220F84
:101C8000331F4A95E2F7262BFC01208310C089817F
:101C9000882F90E0805B9B4F2981222F30E0205BD2
:101CA0003B4FF90120812860FC01208300000000E7
:101CB0000F900F90DF91CF910895CF93DF9300D0D5
:101CC000CDB7DEB789836A838A818823A9F088E04B
:101CD00090E028E030E0F9012181622F2981422F34
:101CE00050E021E030E002C0220F331F4A95E2F7B6
:101CF000262BFC01218315C088E090E028E030E02D
:101D0000F9012181622F2981422F50E021E030E04A
:101D100002C0220F331F4A95E2F720952623FC01CB
:101D2000218300000F900F90DF91CF910895CF9302
:101D3000DF931F92CDB7DEB78983698182E00E946D
:101D40003A0C00000F90DF91CF910895CF93DF936D
:101D50001F92CDB7DEB78983698182E00E948E0C25
:101D600000000F90DF91CF910895CF93DF931F92E2
:101D7000CDB7DEB78983698183E00E943A0C000009
:101D80000F90DF91CF910895CF93DF931F92CDB73E
:101D9000DEB78983698183E00E948E0C00000F907A
:101DA000DF91CF910895CF93DF931F92CDB7DEB728
:101DB0008983698184E00E943A0C00000F90DF91D2
:101DC000CF910895CF93DF931F92CDB7DEB789836C
:101DD000698184E00E948E0C00000F90DF91CF910A
:101DE0000895CF93DF931F92CDB7DEB789836981C2
:101DF00085E00E94090C00000F90DF91CF910895BB
:101E0000CF93DF931F92CDB7DEB78983698185E0D9
:101E10000E943A0C00000F90DF91CF910895CF936C
:101E2000DF931F92CDB7DEB78983698186E00E9478
:101E30003A0C00000F90DF91CF910895CF93DF937C
:101E40001F92CDB7DEB78983698186E00E948E0C30
:101E500000000F90DF91CF910895CF93DF931F92F1
:101E6000CDB7DEB78983698187E00E943A0C000014
:101E70000F90DF91CF910895CF93DF931F92CDB74D
:101E8000DEB78983698187E00E948E0C00000F9085
:101E9000DF91CF910895CF93DF931F92CDB7DEB737
:101EA0008983698182E00E94C80C00000F90DF9155
:101EB000CF910895CF93DF931F92CDB7DEB789837B
:101EC000698182E00E94F90C00000F90DF91CF91B0
:101ED0000895CF93DF931F92CDB7DEB789836981D1
:101EE00085E00E94F90C00000F90DF91CF910895DA
:101EF000CF93DF931F92CDB7DEB78983698185E0E9
:101F00000E944D0D00000F90DF91CF910895CF9367
:101F1000DF931F92CDB7DEB78983698180E00E948D
:101F2000090E00000F90DF91CF910895CF93DF93BA
:101F30001F92CDB7DEB78983698180E00E945D0E74
:101F400000000F90DF91CF910895CF93DF931F9200
:101F5000CDB7DEB78983698181E00E94870D0000DB
:101F60000F90DF91CF910895CF93DF931F92CDB75C
:101F7000DEB78983698181E00E94090E00000F901D
:101F8000DF91CF910895CF93DF931F92CDB7DEB746
:101F90008983698186E00E94870D00000F90DF91A0
:101FA000CF910895CF93DF931F92CDB7DEB789838A
:101FB000698186E00E94090E00000F90DF91CF91A9
:101FC0000895CF93DF931F92CDB7DEB789836981E0
:101FD00086E00E94E60D00000F90DF91CF910895FA
:101FE000CF93DF931F92CDB7DEB78983698186E0F7
:101FF0000E94B80D00000F90DF91CF910895CF930C
:10200000DF931F92CDB7DEB78983698186E00E9496
:102010005D0E00000F90DF91CF910895CF93DF9375
:102020001F92CDB7DEB78983698187E00E94090ED0
:1020300000000F90DF91CF910895CF93DF931F920F
:10204000CDB7DEB78983698187E00E945D0E00000D
:102050000F90DF91CF910895CF93DF93CDB7DEB787
:102060002697CDBFDEBF198212C08981882F90E0EC
:10207000805F9B4F2981222F30E0205F3B4FF90189
:1020800020812860FC01208389818F5F8983898179
:10209000883058F31A8212C08A81882F90E0805DC0
:1020A0009B4F2A81222F30E0205D3B4FF901208198
:1020B0002860FC0120838A818F5F8A838A8188302F
:1020C00058F31B8212C08B81882F90E0805B9B4F5E
:1020D0002B81222F30E0205B3B4FF90120812860CB
:1020E000FC0120838B818F5F8B838B81883058F339
:1020F0001C8212C08C81882F90E080599B4F2C81CC
:10210000222F30E020593B4FF90120812860FC014B
:1021100020838C818F5F8C838C81883058F31D8263
:1021200012C08D81882F90E080579B4F2D81222FE8
:1021300030E020573B4FF90120812860FC012083CB
:102140008D818F5F8D838D81883058F31E8212C000
:102150008E81882F90E080559B4F2E81222F30E07A
:1021600020553B4FF90120812860FC0120838E819E
:102170008F5F8E838E81883058F300002696CDBF06
:10218000DEBFDF91CF910895CF93DF93CDB7DEB758
:1021900080E00E94B40F80E00E94A50F81E00E94C1
:1021A000870F81E00E94960F0E94DC150000DF91EE
:1021B000CF910895CF93DF93CDB7DEB780E00E9433
:1021C000000F80E00E94F10E81E00E94D30E80E0BB
:1021D0000E94E20E81E00E940F0F80E00E941E0F1D
:1021E0000E9452110000DF91CF910895CF93DF93A9
:1021F000CDB7DEB70E942C100E94F40B0E94C410D1
:1022000081E00E94970E80E00E94A60E81E00E946D
:10221000B50E80E00E94C40E81E00E942D0F81E087
:102220000E943C0F80E00E945A0F81E00E944B0FF9
:1022300081E00E94690F80E00E94780F80E00E9498
:10224000D20F80E00E94FF0F81E00E94C30F80E068
:102250000E94F00F83E00E94E10F81E00E940E10C7
:1022600080E00E941D100E94F40B0E94A2110E94A7
:10227000C4100E94DA100E94010C0E944A110E94B0
:10228000D60B0000DF91CF9108951BBEFC0164BF07
:1022900040830895CF93DF93CDB7DEB780E0DF9121
:1022A000CF910895CF93DF93CDB7DEB780EC98E060
:1022B00021E3FC0120831092D0280000DF91CF9110
:1022C0000895CF93DF93CDB7DEB780EC98E020EC94
:1022D00038E0F90120812160FC0120830000DF91BA
:1022E000CF910895CF93DF931F92CDB7DEB7898347
:1022F00000008091D0288230E1F380EC98E02981C1
:10230000FC012483000080EC98E0FC018381882399
:10231000D4F780EC98E0FC0184810F90DF91CF919D
:102320000895CF93DF9300D0CDB7DEB789839A832A
:1023300080E090E0DC01BC01CD010F900F90DF91B7
:10234000CF910895CF93DF93CDB7DEB7000080E43F
:1023500091E0FC0181818823D1F780E491E021E0C4
:10236000FC01208380E491E021E0FC01278380E4EC
:1023700091E021E0FC0122830000DF91CF910895DC
:10238000CF93DF93CDB7DEB780E491E020E431E076
:10239000F90122812E7FFC0122831092D528109210
:1023A000D6281092D7281092D8281092DD28000045
:1023B000DF91CF910895EF92FF920F931F93CF93E8
:1023C000DF9300D000D0CDB7DEB769837A838B83EB
:1023D0009C832FEF3FEF40E050E089819A81AB81F1
:1023E000BC8179018A01E81AF90A0A0B1B0BD80192
:1023F000C7018093D9289093DA28A093DB28B09363
:10240000DC2820E431E08091D9289091DA28A0914D
:10241000DB28B091DC28F90180879187000080E4F7
:1024200091E0FC018181882F90E082709927892BAF
:10243000B1F700002496CDBFDEBFDF91CF911F9191
:102440000F91FF90EF900895EF92FF920F931F93DB
:10245000CF93DF9300D000D0CDB7DEB769837A8306
:102460008B839C838091D5289091D628A091D728E2
:10247000B091D82829813A814B815C81820F931FCA
:10248000A41FB51F89839A83AB83BC838091DD2809
:102490008823C9F080E491E0FC01808591859C014E
:1024A00040E050E08091D9289091DA28A091DB2873
:1024B000B091DC2879018A01E81AF90A0A0B1B0B92
:1024C000D801C70103C080E090E0DC0129813A8196
:1024D0004B815C81820F931FA41FB51F89839A8350
:1024E000AB83BC8389819A81AB81BC81BC01CD0166
:1024F0002496CDBFDEBFDF91CF911F910F91FF904A
:10250000EF900895EF92FF920F931F93CF93DF9375
:10251000CDB7DEB72697CDBFDEBF8091D128909191
:10252000D22889839A838091D1289091D228FC0166
:1025300086819781A085B1858B839C83AD83BE8383
:1025400021C089819A81FC0126813781408551858E
:102550008B819C81AD81BE8179018A01E81AF90ADB
:102560000A0B1B0BD801C70129813A81F901868327
:102570009783A087B18789819A81FC0184819581A5
:1025800089839A8389819A81892BD9F62091D528CC
:102590003091D6284091D7285091D8288B819C81A2
:1025A000AD81BE8179018A01E81AF90A0A0B1B0B79
:1025B000D801C7018093D5289093D628A093D72817
:1025C000B093D8288B819C81AD81BE81BC01CD01A7
:1025D0002696CDBFDEBFDF91CF911F910F91FF9067
:1025E000EF900895CF93DF93CDB7DEB72B97CDBF94
:1025F000DEBF8A879B878A859B85FC0186819781C0
:10260000A085B18589839A83AB83BC8381E08D8368
:102610008091D1289091D2288E839F831886198625
:102620008A859B85FC01148215828091D528909122
:10263000D628A091D728B091D82829813A814B81FA
:102640005C81281739074A075B0708F040C00E94E1
:1026500082129B01AC0180E090E0A1E0B0E0821B1F
:10266000930BA40BB50B29813A814B815C81820FBE
:10267000931FA41FB51F89839A83AB83BC832A85CC
:102680003B8589819A81AB81BC81F90186839783DF
:10269000A087B1871CC08E819F81FC012681378174
:1026A0004085518589819A81AB81BC8182179307CE
:1026B000A407B50788F08E819F81888799878E81CE
:1026C0009F81FC01848195818E839F831D828E81F1
:1026D0009F81892B01F701C000008D81813041F578
:1026E0006FEF7FEF80E090E00E94DB1180E491E0EB
:1026F00021E0FC0123838091D1289091D228845538
:10270000984229F4809158289091592804C08091CA
:10271000D1289091D2282A853B85F901848395831D
:102720008A859B858093D1289093D22881E012C01E
:1027300088859985FC01248135818A859B85FC01EA
:1027400024833583888599852A853B85FC012483EC
:10275000358380E02B96CDBFDEBFDF91CF9108950A
:10276000CF93DF9300D000D0CDB7DEB780E491E007
:1027700020E431E0F90122812E7FFC012283809147
:10278000D1289091D228892B19F40E94C01168C0D9
:102790008091D1289091D228892B51F08091D12815
:1027A0009091D228FC0186819781A085B18503C0D4
:1027B00080E090E0DC012091D5283091D62840912E
:1027C000D7285091D828821B930BA40BB50B898373
:1027D0009A83AB83BC8389819A81AB81BC8100974A
:1027E000A140B10548F18091D5289091D628A091BB
:1027F000D728B091D8280197AF4FBF4F80935A2860
:1028000090935B28A0935C28B0935D288091D12899
:102810009091D228809358289093592884E598E283
:102820008093D1289093D2288FEF9FEFA0E0B0E063
:1028300089839A83AB83BC8389819A81AB81BC8174
:10284000BC01CD010E94DB1180E491E020E431E085
:10285000F90122812160FC01228381E08093DD283F
:102860002496CDBFDEBFDF91CF910895CF93DF9344
:10287000CDB7DEB72697CDBFDEBF8D839E83809117
:10288000D1289091D228892B09F454C080E491E09A
:1028900020E431E0F90122812E7FFC012283809126
:1028A000D1289091D2282D813E812817390771F4C3
:1028B0008091D1289091D228FC01848195818093C8
:1028C000D1289093D2280E94B01335C08091D1288E
:1028D0009091D22889839A831B821C821DC02981F2
:1028E0003A818D819E812817390759F489819A810F
:1028F000FC01248135818B819C81FC0124833583FB
:102900000FC089819A818B839C8389819A81FC0184
:102910008481958189839A8389819A81892BF9F6AB
:1029200080E491E020E431E0F90122812160FC01A2
:10293000228301C000002696CDBFDEBFDF91CF917C
:102940000895CF93DF9300D000D0CDB7DEB78B834F
:102950009C838B819C81FC01148215828091D328F9
:102960009091D428892B39F48B819C818093D32832
:102970009093D4281CC08091D3289091D428898327
:102980009A8307C089819A81FC018481958189831A
:102990009A8389819A81FC0184819581892B91F7A1
:1029A00089819A812B813C81FC0124833583249683
:1029B000CDBFDEBFDF91CF910895CF93DF93CDB729
:1029C000DEB72697CDBFDEBF8091D3289091D42863
:1029D000892B09F43CC00FB6F8940F928091D3284C
:1029E0009091D42889839A838091D3289091D42878
:1029F000FC01848195818093D3289093D4280F90F3
:102A00000FBE89819A81FC012081318189819A815F
:102A1000FC0182819381F9010995DC01CB018B8353
:102A20009C83AD83BE838B819C81AD81BE81892BCC
:102A30008A2B8B2B69F08B819C81AD81BE81298192
:102A40003A81AC01BD01C9010E942E1501C00000F0
:102A50002696CDBFDEBFDF91CF910895CF93DF9350
:102A6000CDB7DEB72697CDBFDEBF89839A834B8370
:102A70005C836D837E8380E491E020E431E0F901A2
:102A800022812E7FFC0122838B819C81AD81BE81BE
:102A9000BC01CD010E942412DC01CB0129813A81C5
:102AA000F90186839783A087B18789819A810E94E3
:102AB000F212882319F00E94B0130DC08091DD2816
:102AC000882349F080E491E020E431E0F90122819B
:102AD0002160FC01228300002696CDBFDEBFDF917E
:102AE000CF9108951F920F9200903F000F921124F2
:102AF0002F933F934F935F936F937F938F939F9306
:102B0000AF93BF93EF93FF93CF93DF9300D0CDB7F5
:102B1000DEB78091D1289091D228FC0184819581E3
:102B200089839A838091D1289091D228FC01868153
:102B30009781A085B1858093D5289093D628A093BE
:102B4000D728B093D8281092D9281092DA2810925A
:102B5000DB281092DC288091D1289091D2288455CE
:102B6000984231F08091D1289091D2280E94A114EE
:102B700089819A818093D1289093D2280E94B013A2
:102B800080E491E021E0FC01238300000F900F908E
:102B9000DF91CF91FF91EF91BF91AF919F918F9175
:102BA0007F916F915F914F913F912F910F90009284
:102BB0003F000F901F901895CF93DF93CDB7DEB7EE
:102BC00080E298E02CE232E0FC012087318780E24D
:102BD00098E020ECFC01268380E0DF91CF910895FE
:102BE000CF93DF931F92CDB7DEB78983000080E2D9
:102BF00098E0FC018481882F90E080729927892BCE
:102C0000B1F380E298E02981FC01228300000F905B
:102C1000DF91CF910895CF93DF9300D0CDB7DEB78A
:102C200089836A838A81882F90E081309105E1F061
:102C30008230910571F1892B09F03BC020E030E032
:102C400080E090E0FC018081682F8981482F50E06E
:102C500081E090E002C0880F991F4A95E2F78095C5
:102C60008623F901808325C020E030E080E090E0F9
:102C7000FC018081682F8981482F50E081E090E03D
:102C800002C0880F991F4A95E2F7862BF9018083CD
:102C900010C08981882F90E0805F9B4F2981222F6F
:102CA00030E0205F3B4FF90120812860FC01208348
:102CB000000000000F900F90DF91CF910895CF9307
:102CC000DF9300D0CDB7DEB789836A838A818823FA
:102CD000A9F020E030E080E090E0FC018181682FE5
:102CE0008981482F50E081E090E002C0880F991F51
:102CF0004A95E2F7862BF901818315C020E030E088
:102D000080E090E0FC018181682F8981482F50E0AC
:102D100081E090E002C0880F991F4A95E2F7809504
:102D20008623F901818300000F900F90DF91CF91EE
:102D30000895CF93DF9300D000D0CDB7DEB78B835B
:102D40006C838B81882F90E0805B9B4F89839A8373
:102D50008C81813059F489819A81FC018081282FEE
:102D6000286089819A81FC0120830DC08C81882391
:102D700051F489819A81FC018081282F277F8981E4
:102D80009A81FC01208300002496CDBFDEBFDF9135
:102D9000CF910895CF93DF9300D000D0CDB7DEB7A9
:102DA0008B836C838B81882F90E0805B9B4F898322
:102DB0009A8389819A81FC018081982F987F8C81E8
:102DC000892B282F89819A81FC0120830000249679
:102DD000CDBFDEBFDF91CF910895CF93DF9300D0B9
:102DE000CDB7DEB789836A838A81882F90E08130EE
:102DF0009105E1F08230910571F1892B09F03BC01A
:102E000088E090E028E030E0F9012081622F2981FC
:102E1000422F50E021E030E002C0220F331F4A95DC
:102E2000E2F720952623FC01208325C088E090E06E
:102E300028E030E0F9012081622F2981422F50E003
:102E400021E030E002C0220F331F4A95E2F7262B23
:102E5000FC01208310C08981882F90E0805B9B4F0C
:102E60002981222F30E0205B3B4FF901208128602F
:102E7000FC012083000000000F900F90DF91CF91A4
:102E80000895CF93DF9300D0CDB7DEB789836A83EF
:102E90008A818823A9F088E090E028E030E0F901F9
:102EA0002181622F2981422F50E021E030E002C0D1
:102EB000220F331F4A95E2F7262BFC01218315C010
:102EC00088E090E028E030E0F9012181622F29813B
:102ED000422F50E021E030E002C0220F331F4A951C
:102EE000E2F720952623FC01218300000F900F902C
:102EF000DF91CF910895CF93DF931F92CDB7DEB7C7
:102F0000898388E090E0FC018281282F30E089816C
:102F1000482F50E081E090E002C0880F991F4A9549
:102F2000E2F78223932321E0892B09F420E0822F0A
:102F30000F90DF91CF910895CF93DF931F92CDB77C
:102F4000DEB78983698182E00E940B1600000F9032
:102F5000DF91CF910895CF93DF931F92CDB7DEB766
:102F60008983698182E00E945F1600000F90DF91E3
:102F7000CF910895CF93DF931F92CDB7DEB78983AA
:102F8000698183E00E940B1600000F90DF91CF91C2
:102F90000895CF93DF931F92CDB7DEB78983698100
:102FA00086E00E94991600000F90DF91CF9108955E
:102FB000CF93DF931F92CDB7DEB78983698186E017
:102FC0000E94ED1600000F90DF91CF910895CF93EE
:102FD000DF931F92CDB7DEB78983698186E00E94B7
:102FE000CA1600000F90DF91CF910895CF93DF9321
:102FF000CDB7DEB786E00E947B17DF91CF910895B1
:10300000CF93DF931F92CDB7DEB78983698187E0C5
:103010000E94ED1600000F90DF91CF910895CF939D
:10302000DF931F92CDB7DEB78983698187E00E9465
:10303000411700000F90DF91CF9108951F920F92DA
:1030400000903F000F9211242F933F934F935F9373
:103050006F937F938F939F93AF93BF93EF93FF9360
:10306000CF93DF93CDB7DEB70E94F617982F81E09C
:103070008927882361F08091DE289091DF28892BB1
:1030800031F08091DE289091DF28FC0109958BE0DA
:1030900090E020ECFC0120830000DF91CF91FF91B4
:1030A000EF91BF91AF919F918F917F916F915F91C0
:1030B0004F913F912F910F9000923F000F901F90E2
:1030C0001895CF93DF93CDB7DEB781E00E949C17B0
:1030D00081E00E94001881E00E94BA170000DF9191
:1030E000CF910895CF93DF93CDB7DEB71092DE284E
:1030F0001092DF280E9461180E948318789480E063
:10310000DF91CF910895CF93DF93CDB7DEB780E005
:103110000E940F1880E00E94AB1761E070E080E031
:1031200090E00E94A31881E00E940F186AE070E00E
:1031300080E090E00E94A31881E00E94AB1700009D
:10314000DF91CF910895CF93DF93CDB7DEB762972C
:10315000CDBFDEBF6F87788B898B9A8B72C080E082
:1031600090E0A0E8BFE389839A83AB83BC8320E02F
:1031700030E44CE155E469817A818B819C810E9425
:10318000C841DC01CB018D839E83AF83B88720E0EB
:1031900030E040E85FE36D817E818F8198850E94F9
:1031A000424188232CF481E090E089879A873FC0D0
:1031B00020E03FEF4FE757E46D817E818F81988556
:1031C0000E94C34118164CF520E030E040E251E483
:1031D00069817A818B819C810E94C841DC01CB018D
:1031E000BC01CD010E944741DC01CB0189879A8750
:1031F0000FC08AEF90E08B879C878B859C85019719
:10320000F1F78B879C8789859A85019789879A87AB
:1032100089859A85892B69F714C06D817E818F819C
:1032200098850E944741DC01CB0189879A8789856F
:103230009A858D879E878D859E850197F1F78D876D
:103240009E878F859889A989BA899C01AD012150F3
:103250003109410951092F87388B498B5A8B892BAA
:103260008A2B8B2B09F07BCF00006296CDBFDEBF8F
:10327000DF91CF910895CF93DF9300D0CDB7DEB724
:1032800089839A8389819A818093DE289093DF28AD
:1032900080E00E94D81781E00E94C91783E00E9455
:1032A000E71783E00E94E717789400000F900F90D3
:1032B000DF91CF910895CF93DF931F92CDB7DEB703
:1032C00089838981882321F083E00E94E71703C066
:1032D00080E00E94E71700000F90DF91CF910895E2
:1032E000CF93DF9300D0CDB7DEB789836A838A811D
:1032F000882F90E081309105E1F08230910571F1E5
:10330000892B09F03BC020E030E080E090E0FC0138
:103310008081682F8981482F50E081E090E002C0D1
:10332000880F991F4A95E2F780958623F9018083DB
:1033300025C020E030E080E090E0FC018081682F33
:103340008981482F50E081E090E002C0880F991FEA
:103350004A95E2F7862BF901808310C08981882F76
:1033600090E0805F9B4F2981222F30E0205F3B4F10
:10337000F90120812860FC012083000000000F90EB
:103380000F90DF91CF910895CF93DF9300D0CDB709
:10339000DEB789836A838A818823A9F020E030E040
:1033A00080E090E0FC018181682F8981482F50E006
:1033B00081E090E002C0880F991F4A95E2F7862BC2
:1033C000F901818315C020E030E080E090E0FC014D
:1033D0008181682F8981482F50E081E090E002C010
:1033E000880F991F4A95E2F780958623F90181831A
:1033F00000000F900F90DF91CF910895CF93DF934E
:103400001F92CDB7DEB78983698184E00E9470196D
:1034100000000F90DF91CF910895CF93DF931F921B
:10342000CDB7DEB78983698184E00E94C4190000AA
:103430000F90DF91CF910895CF93DF931F92CDB777
:10344000DEB78983698185E00E94701900000F90C2
:10345000DF91CF910895CF93DF931F92CDB7DEB761
:103460008983698186E00E94701900000F90DF91C6
:10347000CF910895CF93DF931F92CDB7DEB78983A5
:10348000698186E00E94C41900000F90DF91CF91FE
:103490000895CF93DF931F92CDB7DEB789836981FB
:1034A00087E00E94701900000F90DF91CF9108957E
:1034B000CF93DF931F92CDB7DEB78983698187E011
:1034C0000E94C41900000F90DF91CF910895CF930F
:1034D000DF93CDB7DEB72D97CDBFDEBF8887998745
:1034E0006A877B874C875D871F8219821A821B82BD
:1034F0001C821D821E8288859985892B39F4CE0114
:1035000007968887998781E089830DC08A859B8586
:10351000892B39F4CE0107968A879B8781E08A83BD
:1035200002C08AEF34C080E00E94581A28C0888503
:103530009985FC018081882F90E08B839C838B810F
:103540009C810E9472118D839E832D818A859B852B
:10355000FC0120838C859D8501978C879D878A81BE
:10356000882329F48A859B8501968A879B87898190
:10357000882329F4888599850196888799878C8581
:103580009D85892BA1F681E00E94581A80E02D9636
:10359000CDBFDEBFDF91CF910895CF93DF9300D0F1
:1035A0001F92CDB7DEB78A839B83198281E00E9488
:1035B000491A81E00E94581A81E00E94FE1981E0B8
:1035C0000E940D1A80E00E941C1A81E00E942B1AB2
:1035D00080E00E943A1A0E9452110E9461110E94DA
:1035E000831861E070E080E090E00E94A318898178
:1035F0002396CDBFDEBFDF91CF910895CF93DF93A8
:10360000CDB7DEB72697CDBFDEBF8C836D837E83BB
:1036100019828C81882F90E00397C1F48D819E815F
:103620008A839B838A819B81FC01448155818A81A5
:103630009B81FC01228133818A819B81FC018081F5
:103640009181B9010E94671A898303C08FEF898332
:10365000000089812696CDBFDEBFDF91CF9108950E
:10366000CF93DF93CDB7DEB780E0DF91CF910895A0
:10367000CF93DF93CDB7DEB72897CDBFDEBF898369
:103680009A836B837C832D833E834F8358878D8100
:103690009E81AF81B885892B8A2B8B2B31F18B8151
:1036A0009C81FC01208189819A81FC012083898190
:1036B0009A81019689839A838B819C8101968B8361
:1036C0009C838D819E81AF81B8850197A109B10945
:1036D0008D839E83AF83B8878D819E81AF81B885AE
:1036E000892B8A2B8B2BD9F601C000002896CDBFE1
:1036F000DEBFDF91CF910895CF93DF93CDB7DEB7D3
:103700002797CDBFDEBF89839A836B832C833D834C
:103710004E835F838C819D81AE81BF81892B8A2BF3
:103720008B2BF1F089819A812B81FC012083898187
:103730009A81019689839A838C819D81AE81BF8114
:103740000197A109B1098C839D83AE83BF838C81CE
:103750009D81AE81BF81892B8A2B8B2B19F701C0EC
:1037600000002796CDBFDEBFDF91CF910895CF93A4
:10377000DF9300D000D0CDB7DEB78B839C83198256
:103780001A820AC089819A81019689839A838B81E2
:103790009C8101968B839C838B819C81FC01808121
:1037A000882381F789819A812496CDBFDEBFDF917E
:1037B000CF910895CF93DF93CDB7DEB78091D9290C
:1037C0008F5F8093D9290000DF91CF910895CF9327
:1037D000DF93CDB7DEB72597CDBFDEBF198210923C
:1037E000D82981E00E945B19CE010296AC0160E706
:1037F00070E180E090E00E94B52B89838981882365
:10380000B9F48A819B81AC81BD8182608A839B836C
:10381000AC83BD838A819B81AC81BD819C01AD015C
:1038200060E770E180E090E00E94D32B898301C0C3
:10383000000089812596CDBFDEBFDF91CF9108952D
:10384000CF93DF93CDB7DEB72797CDBFDEBF898398
:103850006A837B832C833D834E835F83000027969E
:10386000CDBFDEBFDF91CF910895CF93DF931F923D
:10387000CDB7DEB719828091D829882311F08981CC
:1038800016C08091D729882351F48091D6298823A6
:1038900031F00E94E42889838981882331F4809162
:1038A000D7298F5F8093D72901C0000089810F90AD
:1038B000DF91CF910895CF93DF93CDB7DEB780919D
:1038C000D729882329F08091D72981508093D7293F
:1038D00080E0DF91CF910895CF93DF931F92CDB712
:1038E000DEB719828091D729882329F08091D729C2
:1038F00081508093D7298091D729882339F48091EA
:10390000D629882319F00E944F28898389810F9036
:10391000DF91CF910895CF93DF9300D0CDB7DEB77D
:1039200089839A832AE130E040E050E060E086ED50
:1039300099E20E947C1B8AED9BE10E943B1960E2A8
:103940007CE183E00E941E2180E00F900F90DF91C8
:10395000CF910895CF92DF92EF92FF920F931F9332
:10396000CF93DF93CDB7DEB76F97CDBFDEBF8C8B24
:103970006D8B4E8B5F8B288F398F0A8F1B8FEC8E50
:10398000FD8ECE8EDF8E8FEF89838D898F778B832F
:103990008C898A8388E090E08C839D838A8D9B8DBF
:1039A000892B69F02C813D814E8D5F8D8C8D9D8D95
:1039B000840F951F820F931F8C839D8308C02C81D9
:1039C0003D81888D998D820F931F8C839D830E94EA
:1039D000351C89838981882309F0A6C11A861B8634
:1039E0001C861D861E861F861E821F8218861986CB
:1039F0008C89282F30E040E050E08E819F81A8859F
:103A0000B985822B932BA42BB52B8E839F83A887FC
:103A1000B9878D89882F90E0A0E0B0E02227382F69
:103A2000492F5A2F8E819F81A885B985822B932B90
:103A3000A42BB52B8E839F83A887B9878C819D810A
:103A4000CC01A0E0B0E0AC01332722278E819F811A
:103A5000A885B985822B932BA42BB52B8E839F83AE
:103A6000A887B9878E819F81A885B9859C01AD0102
:103A70006CE870E180E090E00E94D32B898389811B
:103A8000882309F045C11E821F82188619868E81FF
:103A90009F81A885B98582608E839F83A887B98717
:103AA0008E819F81A885B9859C01AD0168E770E191
:103AB00080E090E00E94D32B89838981882309F0DC
:103AC00029C11A861B861C861D861E861F863DC040
:103AD000CE010696AC0168E770E180E090E00E94BC
:103AE000B52B898389818823B9F58E859F85843F8D
:103AF000914040F08E859F8561E070E080E090E02D
:103B00000E94A3188E819F81A885B985827099270C
:103B1000AA27BB27892B8A2B8B2B91F4CE010A96DF
:103B2000AC0160E074E085E190E00E94B52B8983F0
:103B30008981882399F01A861B861C861D86F1C010
:103B40008E859F8501968E879F878E859F85883E6F
:103B5000934008F4BDCF03C0000001C000008A8577
:103B60009B85AC85BD85892B8A2B8B2B09F4C5C021
:103B70008A859B85AC85BD85888B998BAA8BBB8BF1
:103B80008C819D818C839D8388899989AA89BB8931
:103B9000AE014E5F5F4F08E010E020E030E0BC0176
:103BA000CD010E94D82C89838981882309F0B4C073
:103BB00088899989AA89BB890896A11DB11D888B1E
:103BC000998BAA8BBB8B8E899F89892B41F1888D1C
:103BD000998D9C0140E050E088899989AA89BB8928
:103BE0006E897F8989019A01AB01BC01CD010E94D8
:103BF000D82C89838981882309F090C0888D998D7C
:103C00009C0140E050E088899989AA89BB89820F8C
:103C1000931FA41FB51F888B998BAA8BBB8B8A8D92
:103C20009B8D892B09F43FC02E8D3F8D888D998DFA
:103C3000A901481B590BCA019C0140E050E088894A
:103C40009989AA89BB89820F931FA41FB51F888BEE
:103C5000998BAA8BBB8B8C8D9D8D9C0140E050E095
:103C600088899989AA89BB896A8D7B8D89019A0186
:103C7000AB01BC01CD010E94D82C898389818823A6
:103C800009F04EC08C8D9D8D9C0140E050E08889EC
:103C90009989AA89BB89820F931FA41FB51F888B9E
:103CA000998BAA8BBB8B8A859B85AC85BD85880F3C
:103CB000991FAA1FBB1F880F991FAA1FBB1F8E83A6
:103CC0009F83A887B9878E819F81A885B9858260E7
:103CD0008E839F83A887B9878E819F81A885B985A8
:103CE0009C01AD016CE670E180E090E00E94D32B76
:103CF00089838981882339F014C00E946C1C8983D0
:103D00008DEF898312C00E946C1C898389810EC04B
:103D1000000007C0000005C0000003C0000001C093
:103D200000000E945B1C01C0000089816F96CDBF1E
:103D3000DEBFDF91CF911F910F91FF90EF90DF9049
:103D4000CF9008950F931F93CF93DF93CDB7DEB736
:103D50002F97CDBFDEBF1982CE010496AC0160E77C
:103D600070E180E090E00E94B52B898389818823EF
:103D700009F070C18C819D81AE81BF8181709927CE
:103D8000AA27BB27892B8A2B8B2B09F460C180E0E3
:103D90000E945B198C819D81AE81BF818E7F8C8357
:103DA0009D83AE83BF838C819D81AE81BF819C0149
:103DB000AD0160E770E180E090E00E94D32B898341
:103DC0008981882309F048C181E08093D8298C81BA
:103DD0009D81AE81BF81B695A79597958795B6953C
:103DE000A795979587959F708A839B838A819B81EE
:103DF000892B09F429C11C861D861E861F86CE01CB
:103E00000C96AC0164E870E180E090E00E94B52B74
:103E100089838981882321F081E00E945B191DC17B
:103E20008C859D85AE85BF858093DA299093DB29AB
:103E3000A093DC29B093DD298A819B81CC01A0E08D
:103E4000B0E08093DE299093DF29A093E029B0931E
:103E5000E1298C859D85AE85BF85AE01485F5F4FAA
:103E600004E010E020E030E0BC01CD010E94152C00
:103E700089838A859B858A879B878981882321F00E
:103E800081E00E945B19E9C02A853B858A819B817C
:103E90002817390781F08A859B852A813B81A901F2
:103EA000481B590BCA01059730F081E00E945B194D
:103EB0008AEF8983D2C088858130E9F48091E22934
:103EC0009091E329892B09F4B7C0E091E229F091A0
:103ED000E3298C859D85AE85BF850896A11DB11D02
:103EE0002A853B85B9016850710919859C01AD018E
:103EF000812F0995A1C088858230E9F48091E42959
:103F00009091E529892B09F497C0E091E429F0917B
:103F1000E5298C859D85AE85BF850896A11DB11DBF
:103F20002A853B85B9016850710919859C01AD014D
:103F3000812F099581C088858430E9F48091E62934
:103F40009091E729892B09F477C0E091E629F09157
:103F5000E7298C859D85AE85BF850896A11DB11D7D
:103F60002A853B85B9016850710919859C01AD010D
:103F7000812F099561C088858630E9F48091EC290C
:103F80009091ED29892B09F457C0E091EC29F0912B
:103F9000ED298C859D85AE85BF850896A11DB11D37
:103FA0002A853B85B9016850710919859C01AD01CD
:103FB000812F099541C088858730E1F48091E829F7
:103FC0009091E929892BC1F1E091E829F091E92943
:103FD0008C859D85AE85BF850896A11DB11D2A855E
:103FE0003B85B9016850710919859C01AD01812F8C
:103FF000099522C088858530E1F48091EE29909161
:10400000EF29892BC9F0E091EE29F091EF298C85F9
:104010009D85AE85BF850896A11DB11D2A853B856E
:10402000B9016850710919859C01AD01812F09956D
:1040300003C08AEF898311C08091D829882369F051
:104040000E94E71B898309C08EEF898306C084EF35
:10405000898303C0000001C0000089812F96CDBF75
:10406000DEBFDF91CF911F910F910895CF93DF9322
:104070001F92CDB7DEB719820BC08091D92981502C
:104080008093D9290E94A21E898389818823D1F730
:104090008091D929882389F789810F90DF91CF9169
:1040A0000895EF92FF920F931F93CF93DF93CDB7B5
:1040B000DEB72A97CDBFDEBF6A837B838C839D8367
:1040C0004E835F83288739870A8719828A819B817B
:1040D000AC81BD81892B8A2B8B2B41F08E819F81F6
:1040E000892B21F088859985892B51F48A8588232D
:1040F00021F00E94E71B898396C084EF898393C0D7
:10410000888599859C0140E050E08091DE2990915E
:10411000DF29A091E029B091E12982179307A40734
:10412000B50718F484EF89837EC02091DA29309195
:10413000DB294091DC295091DD298A819B81AC816A
:10414000BD8182179307A407B50730F1888599854B
:104150009C0140E050E08A819B81AC81BD81280FA9
:10416000391F4A1F5B1FE090DA29F090DB2900918C
:10417000DC291091DD298091DE299091DF29A09121
:10418000E029B091E1298E0D9F1DA01FB11F82175C
:104190009307A407B50718F484EF898344C0888582
:1041A00099859C0140E050E06E817F818A819B81EE
:1041B000AC81BD8189019A01AB01BC01CD010E9496
:1041C000152C89838981882369F52091DA2930911A
:1041D000DB294091DC295091DD298091DE299091E5
:1041E000DF29A091E029B091E129280F391F4A1F4A
:1041F0005B1F888599857C0100E010E08A819B81A6
:10420000AC81BD818E0D9F1DA01FB11F28173907DE
:104210004A075B0719F08A85882329F00E94E71B6B
:10422000898301C0000089812A96CDBFDEBFDF915E
:10423000CF911F910F91FF90EF900895CF93DF934F
:1042400000D000D0CDB7DEB78A836B837C83198220
:104250008A81882F90E0092E000CAA0BBB0B41E04D
:1042600050E026E030E0841B950B28173907B0F1A9
:10427000885A9F4FFC010C9471428B819C818093E2
:10428000E4299093E5292DC08B819C818093E229BC
:104290009093E32926C08B819C818093E62990939B
:1042A000E7291FC08B819C818093EA299093EB2999
:1042B00018C08B819C818093EC299093ED2911C0CB
:1042C0008B819C818093E8299093E9290AC08B8196
:1042D0009C818093EE299093EF2903C084EF89831A
:1042E000000089812496CDBFDEBFDF91CF91089574
:1042F0000F93CF93DF93CDB7DEB7C55AD109CDBFAA
:10430000DEBFFE01E156FF4F8083CE0180569F4FF6
:10431000FC0160837183CE018E559F4FFC01208389
:10432000318342835383CE0181569F4FFC018081AC
:104330008C3239F5AE01475F5F4FCE018E559F4FEE
:10434000FC0180819181A281B38100E024E030E012
:10435000BC01CD010E945120882309F062C28091E6
:10436000E2289091E328892B09F45BC22091E2288E
:104370003091E328CE010996BC018CE2F901099540
:1043800050C2CE0181569F4FFC0180818B3139F59F
:10439000AE01435F5F4FCE018E559F4FFC01808180
:1043A0009181A281B38100E028E030E0BC01CD0121
:1043B0000E945120882309F034C28091E228909114
:1043C000E328892B09F42DC22091E2283091E328BB
:1043D000CE010D96BC018BE1F901099522C2CE01F7
:1043E00081569F4FFC018081863039F5AE01455CD6
:1043F0005F4FCE018E559F4FFC0180819181A2813C
:10440000B38101E020E330E0BC01CD010E945120E6
:10441000882309F006C28091E2289091E328892B35
:1044200009F4FFC12091E2283091E328CE01CB9618
:10443000BC0186E0F9010995F4C1CE0181569F4F78
:10444000FC0180818E3009F4ECC1CE0181569F4F72
:10445000FC018081823339F5AE014B5E5F4FCE01A6
:104460008E559F4FFC0180819181A281B38100E034
:1044700024E130E0BC01CD010E945120882309F0E5
:10448000D0C18091E2289091E328892B09F4C9C119
:104490002091E2283091E328CE014596BC0182E3C9
:1044A000F9010995BEC1CE0181569F4FFC01808163
:1044B0008F3281F5CE01CB9624E630E040E050E02B
:1044C00060E00E947C1BAE01455C5F4FCE018E55C3
:1044D0009F4FFC0180819181A281B38100E024E69D
:1044E00030E0BC01CD010E945120882309F099C120
:1044F0008091E2289091E328892B09F492C12091C0
:10450000E2283091E328CE01CB96BC018FE2F9017D
:10451000099587C1CE0181569F4FFC01808184336C
:1045200031F5AE01475D5F4FCE018E559F4FFC01C7
:1045300080819181A281B38100E024E030E0BC0160
:10454000CD010E945120882309F06BC18091E2289F
:104550009091E328892B09F464C12091E2283091DD
:10456000E32860E070E084E3F90109955AC1CE01C7
:1045700081569F4FFC018081813161F51092E128C5
:10458000AE01435D5F4FCE018E559F4FFC01808190
:104590009181A281B38100E024E030E0BC01CD0133
:1045A0000E945120882309F03CC18DA58093E0280A
:1045B0008091E2289091E328892B09F432C120915F
:1045C000E2283091E328CE018D96BC0181E1F9010A
:1045D000099527C1CE0181569F4FFC01808183310F
:1045E00039F5AE01455C5F4FCE018E559F4FFC0102
:1045F00080819181A281B38100E02CE230E0BC0196
:10460000CD010E945120882309F00BC18091E2283E
:104610009091E328892B09F404C12091E22830917C
:10462000E328CE01CB96BC0183E1F9010995F9C0DD
:10463000CE0181569F4FFC018081843039F5CE0137
:104640008E559F4FFC0180819181A281B38100E052
:1046500024E030E0AE014F5F5F4FBC01CD010E940E
:104660005120882309F0DDC08091E2289091E32851
:10467000892B09F4D6C02091E2283091E328CE019D
:104680000196BC0184E0F9010995CBC0CE018156A9
:104690009F4FFC018081853639F5CE018E559F4FA5
:1046A000FC0180819181A281B38100E024E030E0AF
:1046B000AE014F5F5F4FBC01CD010E9451208823A6
:1046C00009F0AFC08091E2289091E328892B09F48A
:1046D000A8C02091E2283091E328CE010196BC01C8
:1046E00085E6F90109959DC0CE0181569F4FFC01D9
:1046F0008081893039F5AE01455C5F4FCE018E5522
:104700009F4FFC0180819181A281B38101E024E669
:1047100030E0BC01CD010E945120882309F081C006
:104720008091E2289091E328892B09F47AC02091A6
:10473000E2283091E328CE01CB96BC0189E0F90153
:1047400009956FC0CE0181569F4FFC0180818A324E
:1047500039F5AE014F5C5F4FCE018E559F4FFC0186
:1047600080819181A281B38101E024E030E0BC012D
:10477000CD010E945120882309F053C08091E22886
:104780009091E328892B09F44CC02091E2283091C4
:10479000E328CE01C196BC018AE2F901099541C026
:1047A000CE0181569F4FFC0180818032D1F5AE0150
:1047B0004B5C5F4FCE018E559F4FFC0180819181F4
:1047C000A281B38100E026E030E0BC01CD010E946F
:1047D0005120882331F52FA938AD4DA95EA9CE010E
:1047E0008E559F4FFC0180819181A281B3810696F5
:1047F000A11DB11D01E0BC01CD010E945120882303
:1048000081F48091E2289091E328892B51F0209146
:10481000E2283091E328CE01C596BC0180E2F9017F
:1048200009950000CB55DF4FCDBFDEBFDF91CF91A3
:104830000F910895CF93DF93CDB7DEB7AA97CDBF81
:10484000DEBF89A79AA7198281E088A789A59AA5C2
:10485000892B19F484EF89832DC089A59AA5FC01C1
:10486000808191818093E2289093E3281092E1283F
:10487000CE0188960E94762E898389818823C9F487
:1048800080E090E00E948B1C89838981882359F401
:1048900068E771E281E00E941E21CE0102960E942B
:1048A0007A2D898307C0000080E090E00E94C92E25
:1048B00001C000008981AA96CDBFDEBFDF91CF91F4
:1048C0000895CF93DF9300D0CDB7DEB789839A8365
:1048D0000E9436200F900F90DF91CF910895EF92B4
:1048E0000F931F93CF93DF93CDB7DEB72897CDBF3C
:1048F000DEBF89839A836B834C832D833E830F8332
:1049000018874F8158852D813E8189819A81E12CBC
:104910008A014C816B810E9496242896CDBFDEBF10
:10492000DF91CF911F910F91EF900895CF92DF9279
:10493000EF92FF920F931F93CF93DF93CDB7DEB724
:10494000C358D109CDBFDEBFFE01E758FF4F8083BA
:104950009183CE0185589F4FDC016C93CE01845822
:104960009F4FFC014083CE0183589F4FDC012D9364
:104970003C93CE0181589F4FFC0100831183CE01EF
:104980008F579F4FDC01EC921982CE0184589F4FC4
:10499000FC018081813009F475C0CE0183589F4F9E
:1049A000DC018D919C91892B19F484EF8983BDC121
:1049B000CE0184589F4FFC018081823009F062C093
:1049C000CE0183589F4FDC018D919C910E94B71BB3
:1049D0008034910509F056C01A82CE0183589F4F4A
:1049E000FC01808191818B839C8348C08A81882FC0
:1049F00090E02B813C81820F931FDC018C918033EE
:104A0000B8F18A81882F90E02B813C81820F931F1F
:104A1000FC0180818A3358F08A81882F90E02B81B5
:104A20003C81820F931FDC018C91813408F18A81D3
:104A3000882F90E02B813C81820F931FFC018081A5
:104A4000873458F08A81882F90E02B813C81820F37
:104A5000931FDC018C91813658F08A81882F90E079
:104A60002B813C81820F931FFC018081873618F0D7
:104A700084EF89835AC18A818F5F8A838A818034D7
:104A800008F4B4CFCE0185589F4FDC018C91882368
:104A900039F0CE0185589F4FFC018081813218F09A
:104AA00084EF898342C1CE0181589F4FDC018D91F3
:104AB0009C91892B41F0CE0181589F4FFC01808150
:104AC00091810F9760F0CE0181589F4FDC018D914D
:104AD0009C918F3F910519F084EF898326C1CE0107
:104AE00085589F4FFC018081882F90E0A0E0B0E0C6
:104AF0009E0127583F4FF901608171819E01235F1C
:104B00003F4FF901EA5BFF4F9C01AD01CF010E94CD
:104B1000381BCE0185589F4FDC018C91882F90E087
:104B20009E012D5A3F4F820F931FFC011082CE0130
:104B30008F5A9F4F9E0121583F4FD9012D913C9193
:104B4000FC0120833183CE018F579F4F21E0DC0190
:104B50008C91882309F420E0CE018C589F4FFC01F2
:104B60002083CE010D968D839E838D819E818F5BE8
:104B70009F4F9E0124583F4FD9012C91FC01208367
:104B8000CE0184589F4FDC018C91833009F05FC0C7
:104B9000CE0183589F4FFC01808191818F8398873C
:104BA0008D819E8189879A878F819885DC018C9180
:104BB0002FEF280F89859A85FC01208389859A85A6
:104BC000DC018C91843018F084EF8983AEC08F8132
:104BD0009885FC0181812FEF280F89859A85DC015A
:104BE00011962C9389859A85FC0181818A3051F038
:104BF00089859A85DC0111968C918A3119F084EFB0
:104C0000898393C08F819885FC018181882F90E0F2
:104C1000A0E0B0E02F813885B9016E5F7F4F298514
:104C20003A85F90132969C01AD01CF010E94381BF3
:104C30008F819885DC0111968C91882F90E02985D1
:104C40003A85820F931F0296FC0110825EC0CE014E
:104C500084589F4FDC018C918230A9F5CE01835896
:104C60009F4FFC01808191810E94B71B8B879C879D
:104C70008B859C85892B29F08B859C8581349105BA
:104C800018F084EF898351C08B859C850196CC01F7
:104C9000A0E0B0E0ED81FE81CE57DF4FE883F983DD
:104CA000C258D0409E0123583F4FF9016081718165
:104CB0009C01AD01CE57DF4F88819981C258D04009
:104CC0000E94381B22C0CE0184589F4FDC018C917A
:104CD000843089F4ED81FE81CE0183589F4FDC0141
:104CE0008D919C912EE330E040E050E0BC01CF017B
:104CF0000E94381B0AC0CE0184589F4FFC0180815E
:104D0000813019F084EF898310C0CE010D96C12C3B
:104D1000D12CE12CF12C00E010E02CE630E0AC01CD
:104D200068E281E00E94AA1C89838981CD57DF4F08
:104D3000CDBFDEBFDF91CF911F910F91FF90EF901C
:104D4000DF90CF900895CF93DF93CDB7DEB72D9747
:104D5000CDBFDEBF6A877B878C879D8719828A8556
:104D60009B85AC85BD858A839B83AC83BD838A810B
:104D70009B81AC81BD8191608A839B83AC83BD8321
:104D80008A819B81AC81BD819C01AD0160EA74E1A7
:104D900080E090E00E94D32B8A819B81AC81BD8111
:104DA000892B8A2B8B2BF9F01E821F82188619867D
:104DB000CE010696AC0160EA74E180E090E00E94CA
:104DC000B52B898389818823D9F62E813F81488537
:104DD00059858A819B81AC81BD81281739074A0793
:104DE0005B0719F0CDCF000001C0000080E02D96D8
:104DF000CDBFDEBFDF91CF910895CF93DF93CDB7C5
:104E0000DEB72597CDBFDEBF1A821B821C821D82B2
:104E10001982CE010296AC0168E074E180E090E076
:104E20000E94B52B898389818823E9F58A819B813A
:104E3000AC81BD8191608A839B83AC83BD838A8171
:104E40009B81AC81BD819C01AD0168E074E180E093
:104E500090E00E94D32B89838981882331F5CE018C
:104E60000296AC0160E07AE180E090E00E94B52B10
:104E7000898389818823D9F48A819B81AC81BD8112
:104E8000A1608A839B83AC83BD838A819B81AC8133
:104E9000BD819C01AD0160E07AE180E090E00E947C
:104EA000D32B898305C0000003C0000001C00000AF
:104EB00089812596CDBFDEBFDF91CF910895CF9335
:104EC000DF9300D000D0CDB7DEB78091E428909179
:104ED000E528A091E628B091E728892B8A2B8B2B17
:104EE00009F0CDC044EE58E260E070E180E090E06F
:104EF0000E94B52B882361F01092E4281092E528D7
:104F00001092E6281092E72880E090E0DC01BFC014
:104F1000CE010196AC0164EF73E180E090E00E9465
:104F2000B52B882361F01092E4281092E5281092A6
:104F3000E6281092E72880E090E0DC01A8C080918C
:104F4000E4289091E528A091E628B091E728803ADE
:104F50009240A041B105B1F489819A81AB81BC81B5
:104F60000197A105B10509F468C081EA92E0A0E1CA
:104F7000B0E08093E4289093E528A093E628B093CE
:104F8000E7285BC08091E4289091E528A091E6286D
:104F9000B091E728803B9240A041B10559F5898145
:104FA0009A81AB81BC810397A105B10509F445C085
:104FB00089819A81AB81BC810497A105B10569F40F
:104FC00081EB92E0A0E1B0E08093E4289093E528A3
:104FD000A093E628B093E72830C082EB92E0A0E1EE
:104FE000B0E08093E4289093E528A093E628B0935E
:104FF000E72823C08091E4289091E528A091E62835
:10500000B091E728803F9105A041B105B1F444EE8D
:1050100058E260E070E08BE390E00E94B52B8823BB
:1050200061F01092E4281092E5281092E628109280
:10503000E72880E090E0DC012AC08091E42890918C
:10504000E528A091E628B091E728A07F8093E42886
:105050009093E528A093E628B093E7288091E42870
:105060009091E528A091E628B091E728A56080936B
:10507000E4289093E528A093E628B093E728809150
:10508000E4289091E528A091E628B091E728BC019A
:10509000CD012496CDBFDEBFDF91CF910895CF9390
:1050A000DF93CDB7DEB72597CDBFDEBF1982CE0126
:1050B0000296AC0160E170E080E090E00E94B52BC8
:1050C00089838981882309F071C08A819B81AC81A1
:1050D000BD8181709927AA27BB27892B8A2B8B2B0F
:1050E00009F0E5CF0000CE010296AC0161E070E06E
:1050F00080E090E00E94B52B89838981882309F0A4
:1051000057C08A819B81AC81BD8182709927AA2773
:10511000BB27892B8A2B8B2BC9F08A819B81AC8181
:10512000BD818D7F8A839B83AC83BD838A819B8174
:10513000AC81BD819C01AD0161E070E080E090E058
:105140000E94D32B898389818823A1F5CE01029601
:10515000AC016BE070E080E090E00E94B52B8983A9
:105160008981882349F58A819B81AC81BD818170C9
:105170009927AA27BB27892B8A2B8B2BF1F08A81B1
:105180009B81AC81BD818E7F8A839B83AC83BD83F1
:105190008A819B81AC81BD819C01AD016BE070E097
:1051A00080E090E00E94D32B898307C0000005C0F7
:1051B000000003C0000001C0000089812596CDBF1A
:1051C000DEBFDF91CF910895CF93DF93CDB7DEB7E8
:1051D0002D97CDBFDEBF19821E821F8218861986C9
:1051E0001A861B861C861D861A821B821C821D82C3
:1051F000CE010696AC016BE070E080E090E00E948A
:10520000B52B89838981882309F083C08E819F8192
:10521000A885B98581709927AA27BB27892B8A2B56
:105220008B2B91F48E819F81A885B98581609C012B
:10523000AD016BE070E080E090E00E94D32B8983A9
:105240008981882309F067C0CE010696AC0161E030
:1052500070E080E090E00E94B52B898389818823EB
:1052600009F05BC08E819F81A885B98582709927DE
:10527000AA27BB27892B8A2B8B2B91F48E819F81A8
:10528000A885B98582609C01AD0161E070E080E095
:1052900090E00E94D32B89838981882309F03FC045
:1052A000CE010A96AC016FE070E080E090E00E94D1
:1052B000B52B898389818823A1F58A859B85AC8557
:1052C000BD8584709927AA27BB27892B8A2B8B2B16
:1052D000E1F462E070E080E090E00E94A3188A812F
:1052E0009B81AC81BD810196A11DB11D8A839B83E9
:1052F000AC83BD838A819B81AC81BD810597A1056B
:10530000B10570F28CEF89830DC000000E948D2BD7
:1053100009C0000007C0000005C0000003C0000075
:1053200001C0000089812D96CDBFDEBFDF91CF91F6
:105330000895CF93DF93CDB7DEB76297CDBFDEBFC1
:105340008A8B1D8619821A821B821C821D821E82F4
:105350001F82188619861A861B861C8682E593E1B1
:10536000DC018E879F87A88BB98B19821A821B82DA
:105370001C8264E170E180E090E00E94992BDC01E6
:10538000CB0189839A83AB83BC8389819A81AB816A
:10539000BC81BB233CF061E070E080E090E00E94C3
:1053A000A318E7CF00006CEB77E082E090E00E946A
:1053B000992BDC01CB0189839A83AB83BC838981E0
:1053C0009A81AB81BC8181709927AA27BB278983E9
:1053D0009A83AB83BC8389819A81AB81BC81892B01
:1053E0008A2B8B2B51F519821A821B821C821CC0BE
:1053F00061E070E080E090E00E94A3186CE070E053
:10540000CB010E94992BDC01CB0189839A83AB836A
:10541000BC838D819E81AF81B8850196A11DB11D90
:105420008D839E83AF83B88789819A81AB81BC814C
:105430008E39904DAD4AB041D9F68A898230A9F4AF
:105440002DE735ED4CE15CE36CEA77E082E090E03B
:105450000E94D32B20E030E040E150E06CE870E1A6
:1054600080E090E00E94D32B3BC08A898330A1F476
:105470002DE735ED4CE15CE36CEA77E082E090E00B
:105480000E94D32B20E030E0A9016CE870E180E0BD
:1054900090E00E94D32B24C08A898430A9F480E84C
:1054A00090E0A0E0B0E089879A87AB87BC878E85C3
:1054B0009F85A889B9899C01AD016CE870E180E005
:1054C00090E00E94D32B0CC08E859F85A889B98956
:1054D0009C01AD016CE870E180E090E00E94D32B6C
:1054E0000E945F27DC01CB019F70AA27BB27803A6F
:1054F0009340A105B10550F089859A85AB85BC859F
:105500008260BC01CD010E94A32608C089859A85CE
:10551000AB85BC85BC01CD010E94A32621E63FE2FC
:1055200042E55FEE6CE070E0CB010E94D32B8D85ED
:105530006296CDBFDEBFDF91CF910895CF93DF9309
:10554000CDB7DEB76697CDBFDEBF8E8B19821A82CC
:105550001B821C821D821E821F82188619868FEF75
:105560009FEFDC018A879B87AC87BD878CE890E141
:10557000A0E0B0E08E879F87A88BB98B86E396E288
:10558000A3E5B2E08A8B9B8BAC8BBD8B8E8982307E
:1055900021F08E89833009F040C08CEA97E0A2E0C8
:1055A000B0E08E879F87A88BB98B83EC91ECADE53B
:1055B000B7ED8A8B9B8BAC8BBD8B2FC062E070E00C
:1055C00080E090E00E94A3188E859F85A889B98904
:1055D000BC01CD010E94992BDC01CB018A839B8306
:1055E000AC83BD838E819F81A885B9850196A11D5D
:1055F000B11D8E839F83A887B9872E813F814885FF
:1056000059858A859B85AC85BD85281739074A074A
:105610005B0718F08BEF89831FC02A893B894C896F
:105620005D898A819B81AC81BD81281739074A0732
:105630005B0721F68A899B89AC89BD8986339642AE
:10564000A345B24049F420E030E0A9016CE870E1E4
:1056500080E090E00E94D32B89816696CDBFDEBFAB
:10566000DF91CF910895CF93DF93CDB7DEB7259724
:10567000CDBFDEBF1A821B821C821D82CE01029624
:10568000AC0160E074E180E090E00E94B52B89837A
:1056900089818823B9F48A819B81AC81BD819B7FFC
:1056A0008A839B83AC83BD838A819B81AC81BD81CE
:1056B0009C01AD0160E074E180E090E00E94D32B9A
:1056C000898301C0000089812596CDBFDEBFDF91AF
:1056D000CF910895CF93DF9300D01F92CDB7DEB75F
:1056E0008A839B8319828A819B810E94CD1A898338
:1056F00089812396CDBFDEBFDF91CF910895CF93EF
:10570000DF931F92CDB7DEB719820E94301B8983C9
:1057100089810F90DF91CF910895CF93DF931F92EE
:10572000CDB7DEB719820E9431350F90DF91CF914E
:105730000895CF93DF9300D000D0CDB7DEB7698353
:105740007A838B839C8389819A81AB81BC81BC01E4
:10575000CD010E94D135DC01CB01BC01CD012496E5
:10576000CDBFDEBFDF91CF910895CF93DF93CDB74B
:10577000DEB72697CDBFDEBF69837A838B839C8398
:105780004D835E832D813E8189819A81AB81BC816D
:10579000A901BC01CD010E94F4352696CDBFDEBF24
:1057A000DF91CF910895CF93DF93CDB7DEB72897E0
:1057B000CDBFDEBF69837A838B839C832D833E8339
:1057C0004F8358872D813E814F81588589819A81E9
:1057D000AB81BC81BC01CD010E941B362896CDBF98
:1057E000DEBFDF91CF910895CF93DF93CDB7DEB7C2
:1057F0002897CDBFDEBF69837A838B839C834D83DB
:105800005E832F8338872F8138854D815E81898122
:105810009A81AB81BC81BC01CD010E94453628969E
:10582000CDBFDEBFDF91CF910895EF92FF920F932E
:105830001F93CF93DF93CDB7DEB76197CDBFDEBFA8
:10584000688779878A879B874C875D870E871F8744
:10585000288B398B80915E2890915F2808978E83E2
:105860009F8319821A821B821C821D828E819F81D6
:105870009C0140E050E08E859F85A889B989281752
:1058800039074A075B07B8F06E857F8589819A8161
:105890002C853D85A901480F591F88859985AA85C2
:1058A000BB859B01BC01CD010E94F42B982F8D81FB
:1058B000890F8D8351C089819A812C853D85A901ED
:1058C000480F591F2E813F8188859985AA85BB8500
:1058D000BC01CD010E94F42B982F8D81890F8D83FF
:1058E0008D818823C1F58E819F81CC01A0E0B0E03D
:1058F0002E853F854889598979018A01E81AF90A74
:105900000A0B1B0BD801C7018E879F87A88BB98B09
:105910008E819F81CC01A0E0B0E029813A814B814A
:105920005C81820F931FA41FB51F89839A83AB8369
:10593000BC838E819F81CC01A0E0B0E028853985B1
:105940004A855B85820F931FA41FB51F888799879F
:10595000AA87BB878BCF00008D816196CDBFDEBF4C
:10596000DF91CF911F910F91FF90EF900895CF930A
:10597000DF93CDB7DEB72897CDBFDEBF69837A83CB
:105980008B839C834D835E832F8338872F8138855B
:105990004D815E8189819A81AB81BC81BC01CD0141
:1059A0000E946F362896CDBFDEBFDF91CF9108955C
:1059B000EF92FF920F931F93CF93DF93CDB7DEB794
:1059C0006197CDBFDEBF688779878A879B874C87C1
:1059D0005D870E871F87288B398B80915E28909179
:1059E0005F2808978E839F8319821A821B821C82EC
:1059F0001D828E819F819C0140E050E08E859F85B5
:105A0000A889B989281739074A075B07B8F06E8556
:105A10007F8589819A812C853D85A901480F591F71
:105A200088859985AA85BB859B01BC01CD010E9413
:105A3000B72C982F8D81890F8D8351C089819A81D0
:105A40002C853D85A901480F591F2E813F818885EE
:105A50009985AA85BB85BC01CD010E94B72C982FE2
:105A60008D81890F8D838D818823C1F58E819F81E2
:105A7000CC01A0E0B0E02E853F85488959897901A5
:105A80008A01E81AF90A0A0B1B0BD801C7018E8795
:105A90009F87A88BB98B8E819F81CC01A0E0B0E05D
:105AA00029813A814B815C81820F931FA41FB51F0E
:105AB00089839A83AB83BC838E819F81CC01A0E0D4
:105AC000B0E0288539854A855B85820F931FA41F26
:105AD000B51F88879987AA87BB878BCF00008D81E8
