S0100000726F626F776966692E73726563B3
S11300000C94E6000C9403010C9403010C94F10489
S11300100C9403010C9403010C9403010C9403014C
S11300200C9403010C9403010C9403010C9403013C
S11300300C9403010C9403010C9403010C9403012C
S11300400C9403010C9403010C9403010C9403011C
S11300500C9403010C9403010C9403010C9403010C
S11300600C9466050C9403010C9403010C94030195
S11300700C9403010C9403010C9403010C940301EC
S11300800C9403010C9403010C9403010C940301DC
S11300900C9403010C9403010C9403010C940301CC
S11300A0C00ABA0ACC0AC60ADE0AD20AD80A7D13E2
S11300B07D138C135F136D137213841384139D13B8
S11300C05A13C613C613C613C61377130009121B9B
S11300D0242D363F48415A536C657E7719100B0224
S11300E03D342F265158434A757C676E323B202994
S11300F0161F040D7A7368615E574C452B22393004
S11301000F061D14636A7178474E555C646D767FE3
S11301104049525B2C253E3708011A137D746F66E3
S113012059504B42353C272E1118030A565F444D53
S1130130727B60691E170C053A3328214F465D54C3
S11301406B627970070E151C232A31384148535AC3
S1130150656C777E09001B122D243F3658514A43A3
S11301607C756E671019020B343D262F737A616813
S1130170575E454C3B3229201F160D046A63787183
S11301804E475C55222B3039060F141D252C373E63
S11301900108131A6D647F7649405B523C352E2763
S11301A018110A03747D666F5059424B171E050CD3
S11301B0333A21285F564D447B7269600E071C1543
S11301C02A233831464F545D626B707911241FBE67
S11301D0CFEFCDBFDFE3DEBF18E2A0E0B8E2E6EE8A
S11301E0F6E402C005900D92A434B107D9F72FE2CA
S11301F0A4E4B8E201C01D92AD32B207E1F70E9457
S11302001B030C9495220C9400000E940A04089588
S1130210E0E8F4E08081886080838081846080836A
S113022084818B7F8483848188608483E0EAF4E022
S113023080818064808380818061808384818F7BDE
S113024084838481806184830895E0EBFAE0808173
S11302508E7F80838AEF848788EC85871286138655
S1130260808181608083E0E8F4E084818B7F8483F3
S11302708481886084830895E0EBFAE080818E7F36
S113028080838AEF84871586128613868081816035
S113029080830895E0E9FAE080818E7F80838AEF8D
S11302A0848788EC858712861386808181608083A9
S11302B0E0EAF4E084818F7B848384818061848399
S11302C00895E0E9FAE080818E7F80838AEF848755
S11302D01586128613868081816080830895E0E804
S11302E0F4E0948188E089278483948184E08927D9
S11302F084830895E0EAF4E0948180E48927848388
S1130300948180E18927848308950F931F93CF9369
S1130310DF93CDB7DEB72E97CDBFDEBF8C010E9431
S1130320B605CE0101962EE0FC0111922A95E9F75B
S1130330F8012081318129833A830E947C0C811148
S1130340FFCF2E96CDBFDEBFDF91CF911F910F91CE
S1130350089590E00E945E050895CF93DF93EB012A
S11303608C3219F0823381F02DC08881813019F4E8
S11303708093F82D27C0811125C01092F82D8EE2AC
S113038095E80E94A31F1EC081E08093F82D84E4A9
S113039095E80E94A31F8B811F928F938A811F92DD
S11303A08F9389811F928F9388811F928F9387E502
S11303B095E89F938F930E948D1F8DB79EB70A96E1
S11303C08DBF9EBFDF91CF910895CF93DF93EB0153
S11303D0E0E8FEE22AE83EE211922E173F07E1F739
S11303E0E881F98120812D3069F0A82FB92F80E0B0
S11303F090E02D930196E881F981E80FF91F20819F
S11304002D30B9F7DF91CF9108950F931F93CF93B8
S1130410DF93EA01643009F446C028F4613051F0F6
S1130420623019F103C1663009F478C0673009F409
S113043061C0FCC0209769F0888181110AC083E7FC
S113044095E80E94A31F60E0809129280E94A81CBF
S1130450EDC08DE895E80E94A31F809129280E9491
S11304601F1E8FEF80932928E1C0209781F0888197
S113047081110DC085EA95E80E94A31F40E050E079
S113048060E070E0809129280E94F31CCFC081ECC9
S113049095E80E94A31F809129280E941F1E8FEFB8
S11304A080932928C3C02097C9F08BED95E80E945A
S11304B0A31F40E050E060E070E0809129280E9492
S11304C0F31C88818093282800E010E0980144EB15
S11304D055E064E478E20E948B1DA8C087EF95E89C
S11304E00E94A31F809129280E941F1E8FEF8093D2
S11304F029289CC000E010E0980144EB55E064E436
S113050078E2809128280E948B1D81E196E80E9460
S1130510A31F8CE296E80E94A31F88C0209709F4C9
S11305207AC08A819B81181619060CF074C089E37D
S113053096E80E94A31FBE0180E89EE20E94E501A6
S113054063E576E880E89EE20E94841F892B71F4BB
S11305500E9425010E944A010E946F018AE596E8E3
S11305609F938F930E948D1F0F900F9066E676E8FD
S113057080E89EE20E94841F892B21F40E942501B9
S11305800E944A016EE676E880E89EE20E94841F9B
S1130590892B41F40E9425010E944A010E946F01A7
S11305A00E947A0167E776E880E89EE20E94841F51
S11305B0892B21F40E943C010E9461016CE776E8DA
S11305C080E89EE20E94841F892B61F40E943C0112
S11305D00E946101809128280E941F1E8091292871
S11305E00E941F1E80E89EE29F938F9382E896E804
S11305F09F938F930E948D1F20E030E048E250E0EB
S113060060E078E2809128280E94041D0F900F90EA
S11306100F900F900BC08AE896E80E94A31F809168
S113062029280E941F1E8FEF80932928DF91CF91E4
S11306301F910F910895CF93DF93CDB7DEB7C65ABC
S1130640D109CDBFDEBF8AE298E28093292F90932F
S11306502A2F0E9405010E94080178940E94B60581
S113066082E090E0C956DF4F88839983C759D04010
S11306708AE19AE0C756DF4F88839983C959D040ED
S11306808FEF9FEFDC01C556DF4F88839983AA83E0
S1130690BB83CB59D040CE0101962EE0FC011192D0
S11306A02A95E9F72DEA31E029833A830E948501EE
S11306B00E940D1B60E070E085E092E00E94271B21
S11306C0DE011F9688E8FD0111928A95E9F789E019
S11306D0E2EAF6E801900D928A95E1F786E088ABAC
S11306E082E02F968FAF2F9780EC61968FAF619742
S11306F088EA62968FAF629781E064968FAF6497C1
S11307000FEF10E02BEA36E842E069E082EA96E86F
S11307100E94BB0D1DC08091F82D8130C9F48091D9
S113072029288823ACF440E061E082E090E00E9454
S1130730301B8093292888232CF485EB96E80E94AB
S1130740A31F06C040E1BE0169567F4F0E94321CC0
S113075080E090E00E94B80C8823E9F2F9CF80E0B1
S1130760089541E068ED81E690E00E943D0480E058
S1130770089580E00895E0E1F4E080818860819349
S1130780E83184E0F807C9F7E0E3F4E080818860A9
S11307908193E83384E0F807C9F7E0E5F4E0808169
S11307A088608193E83584E0F807C9F7E0E7F4E06E
S11307B0808188608193E83784E0F807C9F7E0E92D
S11307C0F4E0808188608193E83984E0F807C9F710
S11307D0E0EBF4E0808188608193E83B84E0F807F3
S11307E0C9F708954198E1E5F4E08081877F80832B
S11307F0409A489A0E94540508950598E5E1F4E06A
S11308008081877F8083049A0C98069A0E980E94B0
S1130810440408950E94BB030E94B1030E94F203A2
S1130820029A0A98039A0B98079A0F9A2298E2E37D
S1130830F4E0808188608083259A2D9846984E98AC
S1130840E6E5F4E080818860808380818F7780830F
S11308508081887F83608083479A4F980E94B10388
S11308600E9462040E94F2030E94FD030E94B903E5
S11308700E9442040E94AF0308951BBEFC0164BFA2
S11308804083089580E0089581E38093C008109226
S1130890F92D0895E0ECF8E080818160808308956B
S11308A09091F92D9230F1F38093C408E0ECF8E0D4
S11308B083818823ECF78091C408089560E070E098
S11308C0CB010895E0E4F1E081818111FDCFE0E402
S11308D0F1E081E08083878382830895E0E4F1E09E
S11308E082818E7F82831092FF2D1092002E1092AF
S11308F0012E1092022E1092FA2D08950F931F9339
S1130900E0E4F1E082818E7F8283E091052EF09114
S1130910062E309719F40E946E0460C04091FF2D9A
S11309205091002E6091012E7091022E8681978144
S1130930A085B185841B950BA60BB70B009701E02E
S1130940A007B10500F14091FF2D5091002E609158
S1130950012E7091022EA8E3B8E2415051096F4F65
S11309607F4F16964D935D936D937C9319971496D0
S1130970ED93FC931597A093052EB093062E8FEF5D
S11309809FEFA0E0B0E04FEF5FEF60E070E08A011E
S11309909B01081B190B2A0B3B0B0093FB2D109397
S11309A0FC2D2093FD2D3093FE2D8091FB2D9091F5
S11309B0FC2DA091FD2DB091FE2D809348019093C4
S11309C04901E0E4F1E0818181FDFDCFE0E4F1E063
S11309D082818160828381E08093FA2D1F910F913F
S11309E008951F920F920FB60F9211242F933F93E5
S11309F04F935F936F937F938F939F93AF93BF9323
S1130A00EF93FF93A091052EB091062E14962D918D
S1130A103C91159716964D915D916D917C91199726
S1130A204093FF2D5093002E6093012E7093022E5D
S1130A301092FB2D1092FC2D1092FD2D1092FE2D84
S1130A4088E2A833B807B1F014961D921C9215974A
S1130A50E091032EF091042E309731F4A093032EED
S1130A60B093042E07C0FC01848195810097D9F7C7
S1130A70A483B5832093052E3093062E0E947E0412
S1130A8081E080934301FF91EF91BF91AF919F91DA
S1130A908F917F916F915F914F913F912F910F9023
S1130AA00FBE0F901F901895E0E2F8E08CE292E000
S1130AB08087918780EC868380E00895E0E2F8E007
S1130AC0948195FFFDCF8093220808951F920F9281
S1130AD00FB60F9211242F933F934F935F936F930D
S1130AE07F938F939F93AF93BF93EF93FF93569905
S1130AF007C0E091072EF091082E309709F0099570
S1130B0080EC8BB9FF91EF91BF91AF919F918F9141
S1130B107F916F915F914F913F912F910F900FBEF5
S1130B200F901F901895611571058105910561F06D
S1130B30DC01CB01E3ECF9E03197F1F700C00000F0
S1130B400197A109B109B1F708954F980A9861E096
S1130B5070E080E090E00E9493054F9A6AE070E0B4
S1130B6080E090E00E9493050A9A08951092072E5F
S1130B701092082E029A479A039A0E94A505789427
S1130B8080E008958093072E9093082E4698E6E51A
S1130B90F4E08081886080838081887F83608083A3
S1130BA08081887F8360808378940895882339F0D6
S1130BB0E6E5F4E08081887F836080830895E6E53C
S1130BC0F4E08081887F80830895079A0F9A049ABD
S1130BD00C9A0598069A0E980E9444040E944A04AE
S1130BE00E94A50561E070E080E090E00E9493051A
S1130BF080E00895AF92BF92CF92DF92EF92FF927E
S1130C000F931F93CF93DF931F92CDB7DEB7FB01F2
S1130C108330C1F504811581E280F380C080D180E6
S1130C201982C114D10449F0EF2851F5BB24B394BF
S1130C30A12CCE0101967C0106C0B12CAA24A39458
S1130C40FE0131966F010F9801151105B1F0F601FF
S1130C50808190E00E945004F701808301501109C3
S1130C60B11003C0FFEFEF1AFF0AA11003C08FEF0A
S1130C70C81AD80A0115110551F70F9A80E003C06C
S1130C808AEF01C08FEF0F90DF91CF911F910F91E9
S1130C90FF90EF90DF90CF90BF90AF90089580E0E9
S1130CA00895DC01211531054105510549F0E62F70
S1130CB0F72F81918D932150310941095109C9F7C9
S1130CC00895FC01211531054105510531F0619369
S1130CD02150310941095109D1F70895FC012081BE
S1130CE0222341F0319680E090E001962191211178
S1130CF0FCCF089580E090E00895EAE8FEE2838165
S1130D008F5F838308950895CF93DF9300D000D03D
S1130D10CDB7DEB710928C2E81E00E94D605AE01CD
S1130D204F5F5F4F60E770E180E090E00E943D110B
S1130D30811111C089819A81AB81BC819C01AD0173
S1130D40226029833A834B835C8360E770E180E00F
S1130D5090E00E9440112496CDBFDEBFDF91CF9179
S1130D60089580918C2E811113C080918B2E811156
S1130D7008C080918A2E882321F00E94700F81116F
S1130D8008C0EAE8FEE281818F5F818380E00895F4
S1130D9080E0089580918B2E882329F0EAE8FEE212
S1130DA081818150818380E0089580918B2E8823F6
S1130DB029F0EAE8FEE281818150818380918B2EC3
S1130DC0811107C080918A2E882329F00E94180F70
S1130DD0089580E0089580E008952AE130E040E03D
S1130DE050E060E08AE89EE20E9461068DE796E0AA
S1130DF00E94C20583E896E080939E2E90939F2ED6
S1130E0080E008954F925F926F927F928F929F92AB
S1130E10AF92BF92CF92DF92EF92FF920F931F9304
S1130E20CF93DF93CDB7DEB76697CDBFDEBFA82ED5
S1130E30B62E2A0139014801862F8F778A83A98229
S1130E4088E090E08B839C83012B49F08B819C810B
S1130E508E0D9F1D8C0D9D1D8B839C8306C08B81E5
S1130E609C81820F931F8B839C830E94B106811106
S1130E7050C119861A861B861C86198A1A8A1D86F1
S1130E801E861F86188A8D859E85AF85B8898A2916
S1130E908D879E87AF87B88B8D859E85AF85B889F2
S1130EA09B298D879E87AF87B88B2B813C814D858D
S1130EB05E856F857889C901A0E0B0E0DC019927DF
S1130EC08827842B952BA62BB72B8D879E87AF87DE
S1130ED0B88B2D853E854F8558896CE870E180E09C
S1130EE090E00E944011B82E811110C11D861E860B
S1130EF01F86188A8D859E85AF85B88982608D8707
S1130F009E87AF87B88B2D853E854F85588968E7C6
S1130F1070E180E090E00E944011B82E8111F6C08B
S1130F2019861A861B861C86198A1A8A89899A89BF
S1130F30883E9340C8F5AE01435F5F4F68E770E1B8
S1130F4080E090E00E943D1181112EC089899A8928
S1130F50843F914040F089899A8961E070E080E0A3
S1130F6090E00E9493058D859E85AF85B88981FDAB
S1130F7011C0AE01475F5F4F60E074E085E190E02F
S1130F800E943D11B82E882379F019861A861B8693
S1130F901C86BCC089899A890196898B9A8B898918
S1130FA09A89883E934038F289859A85AB85BC85B9
S1130FB0892B8A2B8B2B09F4A2C089859A85AB8552
S1130FC0BC858D839E83AF83B8878B819C818B8303
S1130FD09C836D817E818F81988508E010E020E0FC
S1130FE030E0AE014F5F5F4F0E94BE11B82E8111F9
S1130FF08DC08D819E81AF81B8850896A11DB11DDC
S11310008D839E83AF83B8874114510429F1C301B2
S1131010A0E0B0E08B8B9C8BAD8BBE8B6D817E8111
S11310208F8198850B891C892D893E89A2010E9494
S1131030BE11B82E81116AC08D819E81AF81B885A1
S11310402B893C894D895E89820F931FA41FB51F8C
S11310508D839E83AF83B8878114910449F18D8178
S11310609E81AF81B885C618D7088C0D9D1DA11D22
S1131070B11D8D839E83AF83B8876701E12CF12C6A
S11310806D817E818F81988597018601A4010E94DC
S1131090BE11B82E81113AC08D819E81AF81B88571
S11310A08C0D9D1DAE1DBF1D8D839E83AF83B887A0
S11310B089859A85AB85BC85880F991FAA1FBB1F9C
S11310C0880F991FAA1FBB1F8D879E87AF87B88B78
S11310D08D859E85AF85B88982608D879E87AF8711
S11310E0B88B2D853E854F8558896CE670E180E08C
S11310F090E00E944011B82E811108C004C00E94E3
S1131100D5068DEF06C00E94D50603C00E94CA060C
S11311108B2D6696CDBFDEBFDF91CF911F910F91CE
S1131120FF90EF90DF90CF90BF90AF909F908F9003
S11311307F906F905F904F9008954F925F926F925F
S11311407F928F929F92BF92CF92DF92EF92FF9203
S11311500F931F93CF93DF93CDB7DEB72C97CDBFFB
S1131160DEBF0F2EFAE8EF2EFEE2FF2EF02DDD2477
S1131170D394CD2C0F2EFAEFBF2EF02D4FC1D701F3
S113118013968C911397815013968C93AE01475FFD
S11311905F4F60E770E180E090E00E943D118111B3
S11311A0F5CF898580FFF2CF80E00E94D60589853E
S11311B09A85AB85BC859C01AD012E7F29873A8732
S11311C04B875C8760E770E180E090E00E9440110B
S11311D08111DCCFF701D28289859A85AB85BC85E4
S11311E0B695A79597958795B695A795979587955D
S11311F04C01FFE09F228114910441F219821A826A
S11312001B821C82AE014F5F5F4F64E870E180E097
S113121090E00E943D11182F882321F08C2D0E940C
S1131220D605FAC069817A818B819C81D701149695
S11312306D937D938D939C931797840120E030E008
S1131240F701008711872287338704E010E020E04C
S113125030E0AE014B5F5F4F0E944311182F8F8126
S113126098858F839887112321F08C2D0E94D605B1
S1131270D3C08F8198858816990669F08F819885E7
S11312809401281B390B2530310528F08C2D0E9440
S1131290D6051B2DC1C08D818130E9F4D7011C9680
S11312A08D919C911D97892B09F4A9C01C96ED91F1
S11312B0FC911D976F8178858E8149805A806B805F
S11312C07C80A3019201285F3F4F4F4F5F4F6850CE
S11312D07109099594C08D818230D1F4F701868516
S11312E09785892B09F48BC00684F785E02D6F81DF
S11312F078858E8149805A806B807C80A30192011D
S1131300285F3F4F4F4F5F4F68507109099577C071
S11313108D818430E9F4D70150968D919C91519739
S1131320892B09F46CC05096ED91FC9151976F8113
S113133078858E8149805A806B807C80A3019201DC
S1131340285F3F4F4F4F5F4F68507109099557C051
S11313508D818630D1F4F70186899789892B09F428
S11313604EC00688F789E02D6F8178858E8149808B
S11313705A806B807C80A3019201285F3F4F4F4FBE
S11313805F4F6850710909953AC08D818730E1F447
S1131390D70152968D919C915397892B81F1529646
S11313A0ED91FC9153976F8178858E8149805A80A5
S11313B06B807C80A3019201285F3F4F4F4F5F4FAA
S11313C06850710909951BC08D81853011F5F701AD
S11313D0808D918D892B99F0008CF18DE02D6F819A
S11313E078858E8149805A806B807C80A30192012C
S11313F0285F3F4F4F4F5F4F685071090995D701E0
S113140012968C91882341F00E948406811103C0B6
S113141003C01B2D01C0182F1111B8CEF701838111
S11314208111ADCE2C96CDBFDEBFDF91CF911F9140
S11314300F91FF90EF90DF90CF90BF909F908F908F
S11314407F906F905F904F9008954F925F926F924C
S11314507F928F929F92AF92BF92CF92DF92EF9240
S1131460FF920F931F93CF93C02F611571058105D0
S1131470910531F04115510519F02115310531F46B
S1131480CC2309F456C00E9484065AC0890120E086
S113149030E0C090922ED090932EE090942EF09055
S11314A0952EC016D106E206F30608F444C0C09097
S11314B08E2ED0908F2EE090902EF090912E6C1561
S11314C07D058E059F05C8F16B017C01C00ED11E00
S11314D0E21EF31EEAE8FEE24480558066807780CF
S11314E080849184A284B384840C951CA61CB71CAC
S11314F08C149D04AE04BF0410F10E9443118111A9
S11315001FC0EAE8FEE20481158126813781408507
S1131510518562857385400F511F621F731FC41666
S1131520D506E606F70611F0CC2351F00E94840696
S113153007C084EF05C084EF03C084EF01C084EFCB
S1131540CF911F910F91FF90EF90DF90CF90BF90BC
S1131550AF909F908F907F906F905F904F90089581
S113156090E0FC013197E730F10570F5E05BFF4F47
S11315700C946A1F6093982E7093992E80E00895BE
S11315806093962E7093972E80E0089560939A2E20
S113159070939B2E80E0089560939E2E70939F2EEF
S11315A080E008956093A02E7093A12E80E00895AA
S11315B060939C2E70939D2E80E008956093A22EDC
S11315C07093A32E80E0089584EF0895CF92DF9264
S11315D0EF92FF920F93CF93DF93CDB7DEB7CC5644
S11315E0D109CDBFDEBF69017A018C32C9F400E0B4
S11315F024E030E0AE01475F5F4FC701B6010E94AF
S1131600250A81116DC1E091092EF0910A2E3097BF
S113161009F466C1BE01675F7F4F8CE2099560C122
S11316208B31C9F400E028E030E0AE01475F5F4F42
S1131630C701B6010E94250A811152C1E091092E09
S1131640F0910A2E309709F44BC1BE01675F7F4FBA
S11316508BE1099545C18630C9F401E020E330E00F
S1131660AE01475F5F4FC701B6010E94250A811191
S113167037C1E091092EF0910A2E309709F430C158
S1131680BE01675F7F4F86E009952AC18E3009F459
S113169027C18233C9F400E024E130E0AE01475FA2
S11316A05F4FC701B6010E94250A811119C1E0915B
S11316B0092EF0910A2E309709F412C1BE01675F1A
S11316C07F4F82E309950CC18F3211F524E630E097
S11316D040E050E060E0CE0109960E94610600E01F
S11316E024E630E0AE01475F5F4FC701B6010E94B8
S11316F0250A8111F5C0E091092EF0910A2E309748
S113170009F4EEC0BE01675F7F4F8FE20995E8C020
S11317108433C1F400E024E030E0AE01475F5F4F62
S1131720C701B6010E94250A8111DAC0E091092E91
S1131730F0910A2E309709F4D3C060E070E084E39E
S11317400995CEC08131F1F410920B2E00E024E013
S113175030E0AE01475F5F4FC701B6010E94250A22
S11317608111BEC0898580930C2EE091092EF091E1
S11317700A2E309709F4B4C0BE01675F7F4F81E140
S11317800995AEC08331C9F400E02CE230E0AE012B
S1131790475F5F4FC701B6010E94250A8111A0C0AF
S11317A0E091092EF0910A2E309709F499C0BE01F8
S11317B0675F7F4F83E1099593C08430C9F400E0EB
S11317C024E030E0AE014F5F5F4FC701B6010E94D5
S11317D0250A811185C0E091092EF0910A2E3097D7
S11317E009F47EC0BE016F5F7F4F84E0099578C025
S11317F08536C9F400E024E030E0AE014F5F5F4F6E
S1131800C701B6010E94250A81116AC0E091092E20
S1131810F0910A2E309709F463C0BE016F5F7F4FC9
S113182085E609955DC08930C9F401E024E630E01D
S1131830AE01475F5F4FC701B6010E94250A8111BF
S11318404FC0E091092EF0910A2E309709F448C058
S1131850BE01675F7F4F89E0099542C08A32C1F4B7
S113186001E024E030E0AE01475F5F4FC701B601FD
S11318700E94250A811134C0E091092EF0910A2EAC
S1131880309771F1BE01675F7F4F8AE2099528C0E6
S1131890803231F500E026E030E0AE01475F5F4F73
S11318A0C701B6010E94250A81111AC02B853C8507
S11318B049855A85C701B6016A5F7F4F8F4F9F4F95
S11318C001E00E94250A81110BC0E091092EF091DC
S11318D00A2E309729F0BE01675F7F4F80E2099599
S11318E0C459DF4FCDBFDEBFDF91CF910F91FF9081
S11318F0EF90DF90CF9008951F93CF93DF93CDB7F0
S1131900DEB7A797CDBFDEBF21E02FA3009739F143
S1131910FC01808191818093092E90930A2E10926C
S11319200B2ECE0187960E94E112182F811118C048
S113193080E090E00E94ED06182F81110BC066EE46
S11319407AE081E00E94B00ACE0101960E94391229
S1131950182F06C080E090E00E94101301C014EF1D
S1131960812FA796CDBFDEBFDF91CF911F91089540
S11319700E949D0808958F929F92AF92BF92CF923A
S1131980DF92EF92FF920F931F93CF93DF93CDB724
S1131990DEB7CC56D109CDBFDEBF4C01D62EF42E16
S11319A0590181E0481799F12115310509F4B9C0AD
S11319B0E2E04E132CC0C9010E946E0680349105EA
S11319C031F5F501808190ED980F973308F0ABC0A5
S11319D096EC980F973008F4A8C087548A3108F41D
S11319E0A6C031969501205C3F4F819190ED980FF0
S11319F0973308F09EC096EC980F973008F49BC07C
S1131A0087548A3108F499C0E217F30771F78FEF0E
S1131A108D0D803208F093C0C80101970E9720F015
S1131A200F3F110509F08DC02D2D30E040E050E04E
S1131A30B401CE01895B9F4F0E945106E7E4F0E0B8
S1131A40EC0FFD1FED0DF11D108227960EAF1FAF99
S1131A50279781E0E11001C080E0A9968FAFA99794
S1131A602396FFAE2397F3E0FF1224C0F501808193
S1131A7081508983843008F066C021818FEF820F02
S1131A808A83822F8F7E8B3009F05FC030E040E084
S1131A9050E0B5016E5F7F4FCE0103960E94510660
S1131AA0F5018181E3E0F0E0EC0FFD1FE80FF11D8B
S1131AB0108227C0F2E0FF1214C0C5010E946E0616
S1131AC09C01215031092034310508F040C02E5FBB
S1131AD03F4F40E050E0B501CE0101960E9451060F
S1131AE010C084E0F8120AC02EE330E040E050E079
S1131AF0B501CE0101960E94510603C0E1E0FE1239
S1131B0028C0C12CD12CE12CF12C00E010E02CE6F3
S1131B1030E0AE014F5F5F4F68E281E00E94020750
S1131B2019C084EF17C084EF15C084EF13C084EF8D
S1131B3011C084EF0FC084EF0DC084EF0BC084EF9D
S1131B4009C084EF07C084EF05C084EF03C084EFAD
S1131B5001C084EFC459DF4FCDBFDEBFDF91CF9109
S1131B601F910F91FF90EF90DF90CF90BF90AF90B7
S1131B709F908F900895EF920F931F93E12C0E94F2
S1131B80BB0C1F910F91EF900895CF92DF92EF92CB
S1131B90FF92CF93DF9300D000D0CDB7DEB76B01B7
S1131BA07C016894D0F8A701960160EA74E180E0B2
S1131BB090E00E94401119821A821B821C82AE019D
S1131BC04F5F5F4F60EA74E180E090E00E943D1156
S1131BD08111E9CF89819A81AB81BC81C816D9066C
S1131BE0EA06FB0601F780E02496CDBFDEBFDF9155
S1131BF0CF91FF90EF90DF90CF900895CF93DF9334
S1131C0000D000D0CDB7DEB719821A821B821C82A5
S1131C10AE014F5F5F4F68E074E180E090E00E94A6
S1131C203D1181112FC089819A81AB81BC819C01B6
S1131C30AD01316029833A834B835C8368E074E1AE
S1131C4080E090E00E94401181111CC0AE014F5F02
S1131C505F4F60E07AE180E090E00E943D118111E5
S1131C6011C089819A81AB81BC819C01AD01416025
S1131C7029833A834B835C8360E07AE180E090E0DF
S1131C800E9440112496CDBFDEBFDF91CF9108950D
S1131C90CF92DF92EF92FF92CF93DF9300D000D0E8
S1131CA0CDB7DEB7C0900D2ED0900E2EE0900F2E43
S1131CB0F090102EC114D104E104F10409F0A4C081
S1131CC04DE05EE260E070E180E090E00E943D1152
S1131CD0882349F010920D2E10920E2E10920F2E82
S1131CE01092102E99C0AE014F5F5F4F64EF73E105
S1131CF080E090E00E943D11882349F010920D2E5F
S1131D0010920E2E10920F2E1092102E85C08091DC
S1131D100D2E90910E2EA0910F2EB091102E803A80
S1131D2022E0920720E1A207B105B1F489819A81EA
S1131D30AB81BC810197A105B10509F453C081EAC7
S1131D4092E0A0E1B0E080930D2E90930E2EA0932C
S1131D500F2EB093102E46C0803B22E0920720E164
S1131D60A207B10539F589819A81AB81BC818330A1
S1131D709105A105B105B1F10497A105B10569F477
S1131D8081EB92E0A0E1B0E080930D2E90930E2EB3
S1131D90A0930F2EB093102E25C082EB92E0A0E109
S1131DA0B0E080930D2E90930E2EA0930F2EB0933F
S1131DB0102E18C0803F9105A041B10599F44DE063
S1131DC05EE260E070E08BE390E00E943D118823C6
S1131DD049F010920D2E10920E2E10920F2E10928A
S1131DE0102E1AC080910D2E90910E2EA0910F2EC0
S1131DF0B091102EA07FA56080930D2E90930E2E8F
S1131E00A0930F2EB093102EC0900D2ED0900E2EB6
S1131E10E0900F2EF090102EC701B6012496CDBF8E
S1131E20DEBFDF91CF91FF90EF90DF90CF900895C8
S1131E30CF93DF9300D000D0CDB7DEB7AE014F5FB4
S1131E405F4F60E170E080E090E00E943D118111FD
S1131E5041C0898180FDF2CFAE014F5F5F4F61E0E9
S1131E6070E080E090E00E943D11811133C08981CF
S1131E709A81AB81BC8181FF0FC09C01AD012D7F94
S1131E8029833A834B835C8361E070E080E090E0D7
S1131E900E94401181111EC0AE014F5F5F4F6BE085
S1131EA070E080E090E00E943D11811113C04981EF
S1131EB05A816B817C8140FF0DC09A01AB012E7F5A
S1131EC029833A834B835C836BE070E080E090E08D
S1131ED00E9440112496CDBFDEBFDF91CF910895BB
S1131EE0EF92FF921F93CF93DF93CDB7DEB728977E
S1131EF0CDBFDEBF19821A821B821C821D821E8204
S1131F001F821886AE014F5F5F4F6BE070E080E088
S1131F1090E00E943D11182F811153C089819A814C
S1131F20AB81BC8180FD0CC09C01AD0121606BE0E4
S1131F3070E080E090E00E944011182F811141C0B0
S1131F40AE014F5F5F4F61E070E080E090E00E947F
S1131F503D11182F811135C089819A81AB81BC81D3
S1131F6081FD0CC09C01AD01226061E070E080E065
S1131F7090E00E944011182F811123C0E12CF12C14
S1131F80AE014B5F5F4F6FE070E080E090E00E9435
S1131F903D11182F811115C08D8182FD0EC062E0A4
S1131FA070E080E090E00E9493058FEFE81AF80A51
S1131FB085E0E816F10421F703C00E94371101C03F
S1131FC01CEF812F2896CDBFDEBFDF91CF911F91EB
S1131FD0FF90EF900895CF92DF92EF92FF92CF930C
S1131FE0C82F64E170E180E090E00E943A119923E7
S1131FF03CF061E070E080E090E00E949305F1CF56
S11320006CEB77E082E090E00E943A1160FD10C032
S113201061E070E080E090E00E9493056CE070E085
S1132020CB010E943A116E39704D8D4A904181F76F
S1132030C230C1F42DE735ED4CE15CE36CEA77E0A6
S113204082E090E00E94401120E030E040E150E066
S11320506CE870E180E090E00E944011C12CD12C2A
S1132060760136C0C330B9F42DE735ED4CE15CE3BD
S11320706CEA77E082E090E00E94401120E030E0DA
S1132080A9016CE870E180E090E00E944011C12C4D
S1132090D12C76011DC0C43079F422E533E1A901C5
S11320A06CE870E180E090E00E944011C12CD12CDA
S11320B076016894C7F80CC022E533E1A9016CE805
S11320C070E180E090E00E944011C12CD12C760197
S11320D00E94480EDC01CB019F70AA27BB27803ADF
S11320E09340A105B10530F0C701B60162600E94BA
S11320F0C50D04C0C701B6010E94C50D21E63FE22B
S113210042E55FEE6CE070E0CB010E94401180E09C
S1132110CF91FF90EF90DF90CF900895CF92DF9210
S1132120EF92FF920F931F93CF93DF93CDB7DEB758
S11321302897CDBFDEBF4CE850E160E070E04983F2
S11321405A836B837C8346E356E263E572E04D83F6
S11321505E836F8378878250823020F58CEA97E023
S1132160A2E0B0E089839A83AB83BC8383EC91ECD7
S1132170ADE5B7ED8D839E83AF83B88713C062E06E
S113218070E080E090E00E94930569817A818B8100
S11321909C810E943A1121E0C21AD108E108F10899
S11321A041F424C0CC24CA94DC2C760160E070E0B5
S11321B0CB010D811E812F8138856017710782073D
S11321C09307E9F68D819E81AF81B8858633964267
S11321D0A345B24069F420E030E0A9016CE870E165
S11321E080E090E00E94401180E003C08BEF01C0CA
S11321F080E02896CDBFDEBFDF91CF911F910F9174
S1132200FF90EF90DF90CF900895CF93DF9300D0AD
S113221000D0CDB7DEB719821A821B821C82AE01B0
S11322204F5F5F4F60E074E180E090E00E943D11F9
S1132230811111C089819A81AB81BC819C01AD015E
S11322403B7F29833A834B835C8360E074E180E0C5
S113225090E00E9440112496CDBFDEBFDF91CF9164
S113226008950E94E50508950E944F0608950E946E
S1132270DE1508950E94021608950E941716089507
S11322800E941F1608952F923F924F925F926F9271
S11322907F928F929F92AF92BF92CF92DF92EF92F2
S11322A0FF920F931F93CF93DF93CDB7DEB726979B
S11322B0CDBFDEBF4B015C011A01280139018091B9
S11322C042289091432808978D839E836C01E12CCA
S11322D0F12CC016D106E206F30670F019821A82B8
S11322E01B821C8249815A81420D531D9201C501F2
S11322F0B4010E948E162CC08A0119821A821B8294
S11323001C822D813E81A801C501B4010E948E1654
S113231081111EC04C185D086E087F0889819A815E
S1132320AB81BC818C0D9D1DAE1DBF1D89839A831D
S1132330AB83BC838C0C9D1CAE1CBF1CAD81BE81C9
S11323400A0F1B1FC414D504E604F704D0F2CACF45
S11323502696CDBFDEBFDF91CF911F910F91FF90E5
S1132360EF90DF90CF90BF90AF909F908F907F9031
S11323706F905F904F903F902F9008952F923F92CF
S11323804F925F926F927F928F929F92AF92BF9281
S1132390CF92DF92EF92FF920F931F93CF93DF932D
S11323A0CDB7DEB72697CDBFDEBF4B015C011A0166
S11323B028013901809142289091432808978D8300
S11323C09E836C01E12CF12CC016D106E206F306C3
S11323D070F019821A821B821C8249815A81420D33
S11323E0531D9201C501B4010E9417172CC08A0124
S11323F019821A821B821C822D813E81A801C5018B
S1132400B4010E94171781111EC04C185D086E0894
S11324107F0889819A81AB81BC818C0D9D1DAE1D85
S1132420BF1D89839A83AB83BC838C0C9D1CAE1C1B
S1132430BF1CAD81BE810A0F1B1FC414D504E60462
S1132440F704D0F2CACF2696CDBFDEBFDF91CF917D
S11324501F910F91FF90EF90DF90CF90BF90AF90BE
S11324609F908F907F906F905F904F903F902F90B0
S11324700895EF92FF920F931F93CF93DF93CDB7FD
S1132480DEB72C97CDBFDEBF19821A821B821C8255
S1132490FE01359628E0DF011D922A95E9F70097A1
S11324A009F47AC07C0126E230E040E050E060E0CC
S11324B00E946106AE014F5F5F4F68E070E08CE000
S11324C090E00E943D11811172C089819A81AB8193
S11324D0BC810097A105B10509F460C0BC01CD0120
S11324E0836008E010E020E030E0AE014B5F5F4F16
S11324F00E94431181115BC089859A85AB85BC8597
S1132500AA27BB2789839A83AB83BC830097A10541
S1132510B10509F445C0BC01CD01836006E210E0B9
S113252020E030E0A7010E944311811140C0F7016F
S1132530248130E0322F222796819F70A901492BF4
S11325402581F0E12F9F900111243327242B352B73
S1132550D70117964C91179750E0542F442719969A
S11325609C9119979F70BA01692B18969C91B0E1C0
S11325709B9FA00111245527462B572B211531056C
S113258089F04115510581F04335534178F42235E2
S1132590334168F483EF0BC080E009C084EF07C0C7
S11325A084EF05C084EF03C084EF01C083EF2C9651
S11325B0CDBFDEBFDF91CF911F910F91FF90EF90C0
S11325C00895CF93DF93009741F0FC01D0818FEF02
S11325D08D0F843018F0D1E001C0D1E080E090E0AC
S11325E00E943111C82F811117C00E9427168D2F08
S11325F00E94EB0FC82F81110DC08D2F0E948E10E9
S1132600C82F811107C0D250D23030F00E94FE0D85
S1132610C82F81110E9434118C2FDF91CF9108951E
S1132620CF930E940511C82F81110DC080E00E9434
S1132630861EC82F811107C00E943411C82F811132
S113264002C00E94FE158C2FCF910895CF93DF9383
S1132650CDB7DEB72697CDBFDEBF89839A831B82B1
S11326601C826D837E83BE016F5F7F4F83E00E9477
S1132670FA052696CDBFDEBFDF91CF910895AF92C4
S1132680CF92DF92EF92FF920F931F93CF93DF933A
S1132690CDB7DEB72997CDBFDEBF898390E0FC01BB
S11326A0E15CF109EF30F10508F070C0E95AFF4F21
S11326B00C946A1F6A835B834C8335E079C0BB2723
S11326C0A72F962F852FA11002C08A8302C080688D
S11326D08A834B831C8235E06BC01A821B821C8266
S11326E035E066C01A821B821C8235E061C08FEF20
S11326F08A838B838C8335E05BC06A835B834C83E2
S1132700DD82CE8237E054C06A835B834C83ED82E2
S1132710DE82CF8238E04CC0BB27A72F962F852FAF
S1132720A11002C08A8302C080688A834B833C83E1
S11327302D831E830F8338E03BC06A835B834C8305
S11327403D832E831F83088739E032C02D91F0E04A
S1132750EE0FFF1FE227E453FF4FE491415051096C
S11327606109710998F7DE01A80FB91FEE0F1196E0
S1132770EC9301C03150632F70E0CE0101960E94AA
S1132780261391E08823C9F090E017C090E015C0AB
S1132790832F90E00197AC01092E000C660B770B98
S11327A04150510961097109DE011196EFE7CECF5D
S11327B08091112E8111DECFEBCF892F2996CDBFC9
S11327C0DEBFDF91CF911F910F91FF90EF90DF90CB
S11327D0CF90AF900895CF93DF93CDB7DEB7269710
S11327E0CDBFDEBF19821A828B839C836D837E8367
S11327F0BE016F5F7F4F83E00E94FA052696CDBF2E
S1132800DEBFDF91CF9108950F931F93CF93DF9392
S11328101F92CDB7DEB7082F8F3C21F08BE3800FDA
S1132820823040F461E070E0CE0101960E94EB1327
S1132830811120C01BE061E070E0CE0101960E948E
S1132840EB13811119C08981081721F0115099F7F0
S11328501BE001C01BE061E070E0CE0101960E9424
S1132860EB1381110BC08981882351F0115099F722
S113287081E007C080E005C080E003C080E001C0C3
S113288081E00F90DF91CF911F910F9108955F9296
S11328906F927F928F929F92AF92BF92CF92DF926C
S11328A0EF92FF920F931F93CF93DF9300D01F9269
S11328B0CDB7DEB75C017B01742EC12CD12C512C19
S11328C06894662465F881E0E81680E2F80610F45E
S11328D0870102C0052D162D0F2EFAE08F2E912CA4
S11328E0F02D61E070E0CE0103960E94EB1381119C
S11328F02DC08B8182958F708F3031F081E0881AE2
S1132900910878F780E029C0181419040CF54801DF
S1132910B801C5018C0D9D1D0E94EB1381111AC0D5
S113292071100CC08091112E811108C062E070E01A
S1132930CE0101960E94EB1381110EC0C00ED11E70
S1132940E818F90809F0BFCF81E007C080E005C0AE
S113295080E003C080E001C080E02396CDBFDEBFED
S1132960DF91CF911F910F91FF90EF90DF90CF9067
S1132970BF90AF909F908F907F906F905F900895DD
S11329804F925F926F927F929F92AF92BF92CF923B
S1132990DF92EF92FF920F931F93CF93DF93CDB704
S11329A0DEB72697CDBFDEBF2B013C0129833A83D6
S11329B04B835C8381E3481651046104710410F471
S11329C083EC01C089ECB82E81E3481651046104FC
S11329D0710410F481E001C080E0982E8AE08D83B8
S11329E0A92CC12CD12C76016894C2F809811A81D2
S11329F02B813C81B301A2018B2D0E943F138E8356
S1132A00813031F48B2D0E9404148E83813009F1BE
S1132A1061E070E080E090E00E949305A12CC12C5D
S1132A20D12C760100E010E0980140E050E0BA01BA
S1132A308FEC0E943F138FEC0E94041461E070E05D
S1132A4080E090E00E9493058D8181508D838111F7
S1132A50C7CF8E812696CDBFDEBFDF91CF911F9168
S1132A600F91FF90EF90DF90CF90BF90AF909F9029
S1132A707F906F905F904F9008953F924F925F9236
S1132A806F927F928F929F92AF92BF92CF92DF927A
S1132A90EF92FF920F931F93CF93DF93CDB7DEB7DF
S1132AA02697CDBFDEBF2B013C014D835E838FEFA4
S1132AB0481651046104710409F010F484EC01C057
S1132AC08AEC882EEFEF4E1651046104710409F06C
S1132AD010F481E001C080E0382E0F2EFAE0BF2E02
S1132AE0F02DA32CC12CD12C76016894C2F800E0FF
S1132AF010E09801B301A201882D0E943F13982E83
S1132B00F1E08F1326C0882D0E940414982E81E0D2
S1132B1098121FC0432D64E070E0CE0101960E941C
S1132B204714982EE1E08E1314C02A818B8190E023
S1132B30A0E0B0E0DC0199278827922B2981822B21
S1132B402C81B22BED81FE8180839183A283B38398
S1132B501FC061E070E080E090E00E949305A12C2A
S1132B60C12CD12C760100E010E0980140E050E047
S1132B70BA018FEC0E943F138FEC0E94041461E0B1
S1132B8070E080E090E00E949305BA94B110A9CF60
S1132B90892D2696CDBFDEBFDF91CF911F910F9176
S1132BA0FF90EF90DF90CF90BF90AF909F908F9069
S1132BB07F906F905F904F903F900895AF92CF9227
S1132BC0DF92EF92FF920F931F93A12CC12CD12C73
S1132BD0760100E010E0980140E050E0BA018FEC8B
S1132BE00E943F138FEC0E94041480E01F910F9108
S1132BF0FF90EF90DF90CF90AF9008951092112E38
S1132C0080E00895CF93DF9300D000D0CDB7DEB736
S1132C10AE014F5F5F4F0E943D1569817A818B81C0
S1132C209C812496CDBFDEBFDF91CF9108950E9491
S1132C303D15813011F08AEF089580E008950E94D7
S1132C40C014813011F08AEF089580E00895CF9385
S1132C50DF93CDB7DEB72897CDBFDEBF1D821E82BE
S1132C601F8218861092112EAE014B5F5F4F64E2F3
S1132C7078EE80E090E00E943D1581110EC081E065
S1132C808093112EAE014B5F5F4F64E278EE80E0DB
S1132C9090E00E943D158823D9F18091112E811175
S1132CA017C08D819E81AF81B88583789C01AD0169
S1132CB020652D833E834F83588764E278EE80E05D
S1132CC090E00E94C014882319F181E08093112EB2
S1132CD0AE014F5F5F4F60E070E180E090E00E94E2
S1132CE03D158823A1F064E278EE80E090E00E9434
S1132CF00216DC01CB018F789C01AD01206564E2F2
S1132D0078EE80E090E00E941F1680E001C08AEF18
S1132D102896CDBFDEBFDF91CF9108953F924F92A9
S1132D205F926F927F928F929F92AF92BF92CF9257
S1132D30DF92EF92FF920F931F93CF93DF9300D014
S1132D4000D0CDB7DEB72B013C014B835C83490136
S1132D500F2EFAE0BF2EF02D312C81E0881691045D
S1132D6031F4332433946894882481F8912C6401D9
S1132D70E12CF12CA12C00E010E09801B301A20198
S1132D8088EC0E943F138130D1F488EC0E94041433
S1132D908130A9F4332059F040E0B401CE0101960A
S1132DA00E9447149981EB81FC81908306C040E026
S1132DB0B4018B819C810E944714813001F161E050
S1132DC070E080E090E00E949305A12CC12CD12CEE
S1132DD0760100E010E0980140E050E0BA018FEC89
S1132DE00E943F138FEC0E94041461E070E080E0C5
S1132DF090E00E949305BA94B110AFCF02C080E076
S1132E0001C08AEF2496CDBFDEBFDF91CF911F9121
S1132E100F91FF90EF90DF90CF90BF90AF909F9075
S1132E208F907F906F905F904F903F9008952F9276
S1132E303F924F925F926F927F928F929F92AF9246
S1132E40BF92CF92DF92EF92FF920F931F93CF9393
S1132E50DF93CDB7DEB72897CDBFDEBF6D837E830A
S1132E608F8398873A0149010F2EFAE0BF2EF02D87
S1132E70312C6894222425F881E08816910421F4E9
S1132E806894882481F8912C6401E12CF12CA12C04
S1132E9000E010E098014D815E816F81788587ECB8
S1132EA00E943F13813009F06FC087EC0E94041424
S1132EB0813009F069C019821A828401E12CF12C55
S1132EC06801013080E2180710F0C32CD22CE11401
S1132ED0F10431F4013080E2180740F081E009C0C8
S1132EE0013080E2180720F082E003C083E001C0D3
S1132EF083E0806F8C8361E070E0CE0104960E94D1
S1132F002613811141C02701B601C3018E0D9F1DF7
S1132F100E942613811138C08091112E811108C09E
S1132F2062E070E0CE0101960E94261381112CC04C
S1132F307201EC0CFD1C0C191D0909F0C1CF47C02E
S1132F4013E001C012E0612F70E0CE0101960E94EF
S1132F50EB13811114C0812F90E0FE01E80FF91FDB
S1132F60208121110EC0EFEFFFEFEC0FFD1FE80FE2
S1132F70F91F21E08081833C29F020E003C020E098
S1132F8001C020E0213009F161E070E080E090E0D0
S1132F900E949305A12CC12CD12C760100E010E0F5
S1132FA0980140E050E0BA018FEC0E943F138FEC8F
S1132FB00E94041461E070E080E090E00E949305B8
S1132FC0BA94B11059CF8AEF08C080E006C080914E
S1132FD0112E882309F4B6CFB3CF2896CDBFDEBF18
S1132FE0DF91CF911F910F91FF90EF90DF90CF90E1
S1132FF0BF90AF909F908F907F906F905F904F9015
S11330003F902F9008952F923F924F925F926F922C
S11330107F928F929F92AF92BF92CF92DF92EF9264
S1133020FF920F931F93CF93DF9300D000D0CDB7BF
S1133030DEB7382E6B01242E28013901E114F10486
S113304009F497C0082E000C990B232D3BE02302B2
S1133050F0011124E855F14D20813181232B09F42D
S113306088C02BE0289FF001299FF00D1124E8551A
S1133070F14D22813381232B09F47BC02BE0289F5F
S1133080F001299FF00D1124E855F14D20852130E0
S113309009F06FC0FB01E482F5824BE0489F900188
S11330A0499F300D1124C9018855914D5C014C0193
S11330B092E0890E911CF5013896E983FA83F401B4
S11330C0808191819701281B390BC90118161906B3
S11330D034F4808191818B839C8300E003C0EB8274
S11330E0FC8201E0F501408151812B813C81C301C7
S11330F0B2010E94250A81113CC0F50180819181B1
S1133100F601808391832B813C81228333838481E4
S11331109581821B930B848395838091212F9091B9
S1133120222F892B41F0E091212FF091222FA6012B
S1133130622D832D09958B819C81E81AF90A480E2A
S1133140591E611C711CE981FA81808181110DC0B5
S1133150EF2879F001E020E030E040E050E060E06A
S113316070E0CB010E94250A04C0E114F10409F0C7
S1133170A6CF2496CDBFDEBFDF91CF911F910F91D3
S1133180FF90EF90DF90CF90BF90AF909F908F9083
S11331907F906F905F904F903F902F9008954F9243
S11331A05F926F927F929F92AF92BF92CF92DF9283
S11331B0EF92FF920F931F93CF93DF93CDB7DEB7B8
S11331C0C455D109CDBFDEBF5B0169017A018134E9
S11331D011F0843511F500E024E030E0AE014F5FDA
S11331E05F4FC701B6010E94250A811102C28A817C
S11331F026968FAF26978091212F9091222F892B8D
S113320009F4F7C1E091212FF091222FAE014B5B1D
S11332105F4F61E089810995ECC1823411F500E0CA
S113322024E030E0AE014F5F5F4FC701B6010E945A
S1133230250A8111DEC18A8126968FAF2697809157
S1133240212F9091222F892B09F4D3C1E091212FB2
S1133250F091222FAE014B5B5F4F62E089810995AB
S1133260C8C1833409F083C000E02CE030E0AE0133
S11332704B5B5F4FC701B6010E94250A8111B9C19A
S11332802F968FAD2F9788230CF448C0482F082E13
S1133290000C550B2E962FAD2E973BE02303F00127
S11332A01124E855F14D9185349FF001359FF00DBF
S11332B01124E855F14D918791E0908761962EADE8
S11332C03FAD619728503109268337832091152E0D
S11332D03091162E2F5F3F4F2093152E3093162ECC
S11332E02091152E3091162E232B51F42091152E5A
S11332F03091162E2F5F3F4F2093152E3093162EAC
S11333002091152E3091162E9BE0949FF001959FED
S1133310F00D1124E855F14D24833583898382E02F
S113332090E08A839B8329968EAD9FAD29978C83E9
S11333309D832D968CAD9DADAEADBFAD2D978E8387
S11333409F83A887B9878091212F9091222F892B61
S113335009F44FC1E091212FF091222FAE014F5F6C
S11333605F4F64E02E968FAD2E97099542C1843449
S113337011F08B3499F500E024E030E0AE014F5FAA
S11333805F4FC701B6010E94250A811132C18981AC
S113339026968FAF26979A8127969FAF27979111EC
S11333A00CC02B813C81285031099BE08902F0013B
S11333B01124E855F14D268337832091212F309134
S11333C0222F232B09F415C1E091212FF091222FF4
S11333D0AE014B5B5F4F65E009950BC18A3409F57B
S11333E000E024E430E0AE014F5F5F4FC701B60157
S11333F00E94250A8111FDC08091252F9091262FCE
S1133400892B09F4F6C0E091252FF091262F2596FB
S11334104CAD5DAD6EAD7FAD2597CE01019609959E
S1133420E8C0863451F0883469F08D3409F07EC0E8
S11334300F2EF6E09F2EF02D09C00F2EF6E09F2EE2
S1133440F02D04C00F2EF9E09F2EF02D00E020E1B6
S113345030E0AE014B5B5F4FC701B6010E94250A05
S11334608111C7C062968FAD629765962EAD3FAD50
S113347065979BE08902F0011124E855F14D12860D
S11334802F966EAD7FAD2F976196AEADBFAD6197B0
S113349029964EAD5FAD299749875A872D964CAC36
S11334A05DAC6EAC7FAC2D974B865C866D867E865C
S11334B0448155812417350749F5161617068CF4EF
S11334C06A157B0570F4970186010A0F1B1F211DE5
S11334D0311D7B01492DBE016F5F7F4F0E94031890
S11334E088C06B837C8319821A822091212F3091AA
S11334F0222F232B09F47DC0E091212FF091222F5C
S1133500AE014F5F5F4F692D099573C081E1A81625
S1133510B10408F46EC001E020E030E040E050E087
S113352060E070E0CB010E94250A63C0853431F06D
S1133530873431F08C34A9F517E003C017E001C0DB
S113354018E000E028E030E0AE014F5F5F4FC701B4
S1133550B6010E94250A81114CC089814D815E818A
S11335602B813C8127962EAF3FAF27979BE08902A2
S1133570F0011124E855F14D248135814217530798
S1133580C1F52091212F3091222F232B91F1E0912D
S1133590212FF091222FAE014B5B5F4F612F0995D4
S11335A028C0823531F501E024E130E0AE014F5FFF
S11335B05F4FC701B6010E94250A81111AC08D818F
S11335C09E818093232F9093242F8091232F909179
S11335D0242F892B71F0E091232FF091242F29853A
S11335E03A854B855C8569817A818B819C810989C7
S11335F00995CC5ADF4FCDBFDEBFDF91CF911F912C
S11336000F91FF90EF90DF90CF90BF90AF909F907D
S11336107F906F905F904F9008958091142E811148
S113362015C029E730E040E050E060E088EA9EE21F
S11336300E9461066FEC78E182E00E94B00A81E0AA
S11336408093142E1092152E1092162E08958093A6
S1133650212F9093222F6093252F7093262F089566
S1133660BF92CF92DF92EF92FF920F931F93CF936B
S1133670DF9300D000D0CDB7DEB7029709F0DFC0EA
S1133680613009F051C0B090132EE091132E809157
S1133690132E90E0019667E070E00E94561F80931D
S11336A0132E2E2F30E08BE0E89FF0011124E85513
S11336B0F14D8085811109C08BE0829F8001839F39
S11336C0100D11240855114D77C00F2EF6E0FF2E72
S11336D0F02D07E010E00F2EFBE0EF2EF02DB09060
S11336E0132E2091132E30E08091132E90E001963A
S11336F0B8010E94561F8093132EE29EF001E39EB0
S1133700F00D1124E855F14D8085811109C08BE03D
S1133710829F8001839F100D11240855114D4CC0C8
S1133720FA94F110DCCF8EC0623009F08BC0509156
S1133730122E0091122EEBE00E9F800111240B50EB
S1133740114D8091122E90E0019683709078992308
S113375024F401978C6F9F6F01968093122EF801C9
S11337608085882301F183E06BE05091122E009153
S1133770122E609F800111240B50114D2091122EA6
S113378030E02F5F3F4F23703078332334F42150DF
S113379031092C6F3F6F2F5F3F4F2093122EF8019A
S11337A09085911106C00F2EF7E0BF2EF02DB50EB7
S11337B003C08150D1F646C0BB200CF445C0F42EA2
S11337C02BE030E040E050E060E0C8010E94610678
S11337D081E0F80180878091152E9091162E019634
S11337E08093152E9093162E8091152E9091162E5F
S11337F0892B49F48091152E9091162E0196809371
S1133800152E9093162E8091152E9091162EF80158
S113381084839583F0FE18C0B98281E28187C12C2C
S1133820D12CE12CF12C00E010E024E030E0AE01DA
S11338304F5F5F4F60E582E00E94020705C0BB2432
S1133840BA9402C0BB24BA948B2D2496CDBFDEBF9C
S1133850DF91CF911F910F91FF90EF90DF90CF9068
S1133860BF900895BF92CF92DF92EF92FF920F9391
S11338701F93CF93DF93CDB7DEB72C97CDBFDEBFB9
S11338806115710509F450C088230CF44FC0082F4A
S1133890082E000C110B9BE08902F0011124E8555D
S11338A0F14D9085913009F043C0442309F442C09E
S11338B09BE0909FF001919FF00D1124E855F14D8C
S11338C0918590FF05C00F2EF4E5BF2EF02D04C0A6
S11338D00F2EF1E4BF2EF02D898728E030E040E080
S11338E050E0CE0101960E9451068BE0809FF001CA
S11338F0819FF00D1124E855F14D848195818B87CA
S11339009C87C12CD12CE12CF12C00E010E02CE0A0
S113391030E0AE014F5F5F4F6B2D82E00E940207E3
S1133920882349F087EF07C08AEF05C08AEF03C0F8
S11339308AEF01C08AEF2C96CDBFDEBFDF91CF9115
S11339401F910F91FF90EF90DF90CF90BF9008955B
S1133950CF92DF92EF92FF920F931F93CF93DF9357
S113396000D000D0CDB7DEB7882374F1282F082EFD
S1133970000C330B9BE08902F0011124E855F14D52
S11339809085913019F589836A838BE0829FF001D9
S1133990839FF00D1124E855F14D848195818B832B
S11339A09C83C12CD12CE12CF12C00E010E024E00C
S11339B030E0AE014F5F5F4F62E482E00E94020795
S11339C0882329F087EF03C08AEF01C08AEF249689
S11339D0CDBFDEBFDF91CF911F910F91FF90EF908C
S11339E0DF90CF90089588235CF09BE08902F0017A
S11339F01124E855F14D8085813021F480E008954B
S1133A008AEF08958AEF0895CF92DF92EF92FF92A2
S1133A100F931F93CF93DF93CDB7DEB76097CDBFDE
S1133A20DEBF88230CF460C06115710509F45FC022
S1133A30493795E0590708F05DC0282F082E000C7F
S1133A40330B9BE08902F0011124E855F14D908578
S1133A50913009F052C089834B835C839BE0929F31
S1133A60F001939FF00D1124E855F14D0480F58188
S1133A70E02DED87FE87873034F00F2EF4E4CF2E4F
S1133A80D12CF02D05C00F2EF0E5CF2ED12CF02D2A
S1133A908BE0829FF001839FF00D1124E855F14DD6
S1133AA0818580FF0CC08BE0829FF001839FF00D25
S1133AB01124E855F14DC680D7808CE401C085E41B
S1133AC07A018B01682F606820E130E0AE014F5F1E
S1133AD05F4F82E00E940207882319F082EF9FEF74
S1133AE00EC080E090E00BC08AEF9FEF08C08AEF21
S1133AF09FEF05C08AEF9FEF02C08AEF9FEF6096A9
S1133B00CDBFDEBFDF91CF911F910F91FF90EF905A
S1133B10DF90CF900895CF92DF92EF92FF920F93B0
S1133B201F93CF93DF93CDB7DEB72897CDBFDEBF0A
S1133B3088230CF46AC06115710509F469C0411544
S1133B40510509F468C0A82F082E000CBB0B9BE09C
S1133B508902F0011124E855F14D9085913009F066
S1133B605DC09BE09A9FF0019B9FF00D1124E855E6
S1133B70F14D60837183428353839285911151C0C7
S1133B809BE09A9FF0019B9FF00D1124E855F14DA5
S1133B9091E09287918590FF02C06DE401C066E4D4
S1133BA0011511052105310549F4CC24CA94DC2CF6
S1133BB07601C982DA82EB82FC8204C009831A830B
S1133BC02B833C838D838BE08A9FF0018B9FF00DC8
S1133BD01124E855F14D848195818F839887C12CF8
S1133BE0D12CE12CF12C00E010E028E030E0AE0113
S1133BF04F5F5F4F82E00E940207882319F082EF33
S1133C009FEF11C080E090E00EC08AEF9FEF0BC0E1
S1133C108AEF9FEF08C08AEF9FEF05C08AEF9FEFFE
S1133C2002C080E090E02896CDBFDEBFDF91CF9147
S1133C301F910F91FF90EF90DF90CF900895AF9276
S1133C40BF92CF92DF92EF92FF920F931F93CF9385
S1133C50DF9300D000D0CDB7DEB788230CF444C086
S1133C60A82E082E000CBB089BE08902F001112449
S1133C70E855F14D90859130C9F589838BE08A9D93
S1133C80F0018B9DF00D1124E855F14D848195814F
S1133C908B839C83108614821582818580FF02C0E9
S1133CA06EE401C069E4C12CD12CE12CF12C00E0BC
S1133CB010E024E030E0AE014F5F5F4F82E00E94ED
S1133CC00207182F811117EF2BE02A9DC0012B9DAD
S1133CD0900D11242BE030E040E050E060E0885586
S1133CE0914D0E94610603C01AEF01C01AEF812FA3
S1133CF02496CDBFDEBFDF91CF911F910F91FF902E
S1133D00EF90DF90CF90BF90AF9008950F931F93E3
S1133D10CF93DF9300D000D0CDB7DEB7082F0E9439
S1133D20480EDC01CB019F70AA27BB27803A934041
S1133D30A105B10508F4B0C0AE014F5F5F4F60E16B
S1133D4074E180E090E00E943D11182F8111A5C01C
S1133D5089819A81AB81BC819F78A878B87F9C01C6
S1133D60AD0130614161516029833A834B835C83A7
S1133D7060E174E180E090E00E9440110023E1F1F1
S1133D8020E030E0A90168E072E081E090E00E9468
S1133D9040112BEA30E040E050E06CE072E081E05A
S1133DA090E00E94401121E030E040E050E064E106
S1133DB072E081E090E00E94401120E030E0A9012F
S1133DC06CE172E081E090E00E94401121E830E073
S1133DD040E050E064E072E081E090E00E94401135
S1133DE068E172E081E090E00E943A11613071056F
S1133DF081059105A9F73BC020E030E0A90168E006
S1133E0072E081E090E00E94401129EB30E040E054
S1133E1050E06CE072E081E090E00E94401121E00B
S1133E2030E040E050E064E172E081E090E00E9424
S1133E30401120E030E0A9016CE172E081E090E003
S1133E400E94401121E830E040E050E064E072E07C
S1133E5081E090E00E94401168E172E081E090E02E
S1133E600E943A116130710581059105A9F7898194
S1133E709A81AB81BC819F78A878B87F9C01AD0101
S1133E80416029833A834B835C8360E174E180E081
S1133E9090E00E94401101C010E0812F2496CDBF14
S1133EA0DEBFDF91CF911F910F91089597FB072EED
S1133EB016F4009407D077FD09D00E94701F07FC08
S1133EC005D03EF4909581959F4F08957095619526
S1133ED07F4F0895EE0FFF1F0590F491E02D099494
S1133EE0AA1BBB1B51E107C0AA1FBB1FA617B7071C
S1133EF010F0A61BB70B881F991F5A95A9F7809538
S1133F009095BC01CD010895FB01DC018D910190D8
S1133F1080190110D9F3990B0895A0E0B0E0E3E90A
S1133F20FFE10C947422AE014B5F5F4FFA01619183
S1133F307191AF018091292F90912A2F0E94D31F54
S1133F40E2E00C948D220F931F93CF93DF93E091C3
S1133F50292FF0912A2F238121FF1BC08C01D0E04F
S1133F60C0E0F80181918F016091292F70912A2F6F
S1133F70DB011896ED91FC911997882331F009958E
S1133F80892B79F3DFEFCFEFECCF8AE00995892B0A
S1133F9019F08FEF9FEF02C08D2F9C2FDF91CF91EF
S1133FA01F910F910895ABE0B0E0E9EDFFE10C94AF
S1133FB064226C017B018A01FC01168217828381D1
S1133FC081FFCCC1CE0101963C01F6019381F7013A
S1133FD093FD859193FF81917F01882309F4BAC1F0
S1133FE0853239F493FD859193FF81917F01853268
S1133FF029F4B60190E00E94CA21E7CF912C212C2C
S1134000312CFFE1F315D8F08B3279F038F480329B
S113401079F08332A1F4232D20611DC08D3261F02B
S1134020803369F4232D216016C0832D8260382EDD
S1134030E32DE4603E2E2AC0F32DF8601DC037FC4A
S11340402DC020ED280F2A3040F08E32B9F436FC12
S113405081C1232D2064322E19C036FE06C08AE0A9
S1134060989E200D1124922E11C0EAE02E9E200D60
S11340701124222EF32DF0623F2E08C08C3621F439
S1134080832D8068382E02C0883641F4F70193FDF1
S1134090859193FF81917F018111B3CF982F9F7DEB
S11340A09554933028F40C5F1F4F9FE399830DC000
S11340B0833631F0833771F0833509F059C021C05C
S11340C0F801808189830E5F1F4F88248394912C8B
S11340D0530113C02801F2E04F0E511CF801A080D7
S11340E0B18036FE03C0692D70E002C06FEF7FEF30
S11340F0C5010E94BF214C018201F32DFF773F2EA1
S113410016C0280122E0420E511CF801A080B180A3
S113411036FE03C0692D70E002C06FEF7FEFC5016A
S11341200E94B4214C01F32DF0683F2E820133FC30
S11341301BC0822D90E088169906B0F4B60180E287
S113414090E00E94CA212A94F4CFF50137FC8591AE
S113415037FE81915F01B60190E00E94CA212110CF
S11341602A9421E0821A91088114910471F7E8C01D
S1134170843611F0893641F5F80137FE07C06081B5
S11341807181828193810C5F1F4F08C060817181AE
S1134190072E000C880B990B0E5F1F4FF32DFF7633
S11341A03F2E97FF09C090958095709561957F4F3C
S11341B08F4F9F4FF0683F2E2AE030E0A3010E940A
S11341C00622882E861845C0853731F4232D2F7E8C
S11341D0B22E2AE030E025C0932D997FB92E8F3678
S11341E0C1F018F4883579F0B5C0803719F08837F4
S11341F021F0B0C0E92FE061BE2EB4FE0DC0FB2D4E
S1134200F460BF2E09C034FE0AC0292F2660B22EE6
S113421006C028E030E005C020E130E002C020E123
S113422032E0F801B7FE07C0608171818281938119
S11342300C5F1F4F06C06081718180E090E00E5FCB
S11342401F4FA3010E940622882E8618FB2DFF779C
S11342503F2E36FE0DC0232D2E7FA22E891458F436
S113426034FE0BC032FC09C0832D8E7EA82E05C0FF
S1134270B82CA32C03C0B82C01C0B92CA4FE0FC0C9
S1134280FE01E80DF11D8081803321F49A2D997E81
S1134290A92E09C0A2FE06C0B394B39404C08A2D0B
S11342A0867809F0B394A3FC11C0A0FE06C0B21432
S11342B088F4280C922C9B180EC0B21460F4B6013A
S11342C080E290E00E94CA21B394F7CFB21418F4AC
S11342D02B1802C0982C212CA4FE10C0B60180E338
S11342E090E00E94CA21A2FE17C0A1FC03C088E787
S11342F090E002C088E590E0B6010CC08A2D867873
S113430059F0A1FE02C08BE201C080E2A7FC8DE25D
S1134310B60190E00E94CA21891438F4B60180E302
S113432090E00E94CA219A94F7CF8A94F301E80D91
S1134330F11D8081B60190E00E94CA218110F5CF61
S1134340222009F442CEB60180E290E00E94CA2104
S11343502A94F6CFF6018681978102C08FEF9FEFF2
S11343602B96E2E10C947D22FC0105906150704093
S11343700110D8F7809590958E0F9F1F0895FC012A
S11343806150704001900110D8F7809590958E0F80
S11343909F1F08950F931F93CF93DF93FB012381F6
S11343A021FD03C08FEF9FEF2CC022FF16C0468172
S11343B05781248135814217530744F4A081B18188
S11343C09D012F5F3F4F208331838C93268137815A
S11343D02F5F3F4F2683378314C08B01EC01FB0111
S11343E00084F185E02D0995892BE1F6D801169614
S11343F08D919C911797019616968D939C93179780
S1134400CE01DF91CF911F910F910895FA01AA2750
S1134410283051F1203181F1E8946F936E7F6E5F03
S11344207F4F8F4F9F4FAF4FB1E03ED0B4E03CD0B1
S1134430670F781F891F9A1FA11D680F791F8A1F94
S1134440911DA11D6A0F711D811D911DA11D20D0FB
S113445009F468943F912AE0269F11243019305DB5
S11344603193DEF6CF010895462F4770405D4193A6
S1134470B3E00FD0C9F7F6CF462F4F70405D4A33F3
S113448018F0495D31FD4052419302D0A9F7EACFBB
S1134490B4E0A6959795879577956795BA95C9F7EA
S11344A000976105710508959B01AC010A2E0694DD
S11344B05795479537952795BA95C9F7620F731F96
S11344C0841F951FA01D08952F923F924F925F92D3
S11344D06F927F928F929F92AF92BF92CF92DF9210
S11344E0EF92FF920F931F93CF93DF93CDB7DEB775
S11344F0CA1BDB0BCDBFDEBF09942A8839884888E4
S11345005F846E847D848C849B84AA84B984C884EB
S1134510DF80EE80FD800C811B81AA81B981CE0FE2
S1114520D11DCDBFDEBFED010895F894FFCF8D
S113452E53746174696F6E20646973636F6E6E6524
S113453E637465640D0053746174696F6E20636FE8
S113454E6E6E65637465640D0053746174696F6E89
S113455E2049502069732025752E25752E25752E1C
S113456E25750D0A00736F636B65745F63623A2081
S113457E62696E642073756363657373210D0073D2
S113458E6F636B65745F63623A2062696E64206563
S113459E72726F72210D00736F636B65745F636269
S11345AE3A206C697374656E2073756363657373F7
S11345BE210D00736F636B65745F63623A206C69DF
S11345CE7374656E206572726F72210D00736F6362
S11345DE6B65745F63623A20616363657074207304
S11345EE756363657373210D00736F636B65745F1D
S11345FE63623A20616363657074206572726F72D0
S113460E210D005443502053657276657220546513
S113461E737420436F6D706C657465210D00636C4B
S113462E6F736520736F636B657400736F636B6573
S113463E745F63623A207265637620737563636593
S113464E7373210D00726F7461746500726F7461FF
S113465E74696E6720212100666F7277617264003F
S113466E6261636B776172640073746F7000636C64
S113467E6F7365002573200A200D2000736F636B22
S113468E65745F63623A2072656376206572726F39
S113469E72210D004D4348502E494F54006D6963ED
S11346AE726F63686970006D61696E3A2066616944
S11346BE6C656420746F2063726561746520544365
S11346CE502073657276657220736F636B65742008
S10B46DE6572726F72210D0078
S11346E64D6573736167652066726F6D20736572BD
S11346F67665722000000000000000000000000043
S11347060000000000000000FFFF0000000200009F
S11347160000A901000000005E0400000000000083
S1074726000000018A
S9030000FC
