S025000053656E736F724D61747269784F6E655F41546D656761343830395F76322E7372656384
S11300000C94E6000C9403010C9403010C943D1031
S11300100C9403010C9403010C9403010C9403014C
S11300200C9403010C9403010C9403010C9403013C
S11300300C9403010C9403010C9403010C9403012C
S11300400C9403010C9403010C9403010C9403011C
S11300500C9403010C9403010C9403010C9403010C
S11300600C94FB120C9403010C9403010C940301F3
S11300700C9403010C9403010C9403010C940301EC
S11300800C9403010C9403010C9403010C940301DC
S11300900C9403010C9403010C9403010C940301CC
S11300A0211C1A1C2F1C281C441C361C3D1CEC2A29
S11300B0EC2A362BC22AD72ADD2A0D2B0D2B662BD0
S11300C0AC2A982B982B982B982BE32A0009121B07
S11300D0242D363F48415A536C657E7719100B0224
S11300E03D342F265158434A757C676E323B202994
S11300F0161F040D7A7368615E574C452B22393004
S11301000F061D14636A7178474E555C646D767FE3
S11301104049525B2C253E3708011A137D746F66E3
S113012059504B42353C272E1118030A565F444D53
S1130130727B60691E170C053A3328214F465D54C3
S11301406B627970070E151C232A31384148535AC3
S1130150656C777E09001B122D243F3658514A43A3
S11301607C756E671019020B343D262F737A616813
S1130170575E454C3B3229201F160D046A63787183
S11301804E475C55222B3039060F141D252C373E63
S11301900108131A6D647F7649405B523C352E2763
S11301A018110A03747D666F5059424B171E050CD3
S11301B0333A21285F564D447B7269600E071C1543
S11301C02A233831464F545D626B707911241FBE67
S11301D0CFEFCDBFDFE3DEBF18E2A0E0B8E2E4EF8B
S11301E0F0E802C005900D92AE30B107D9F729E2CC
S11301F0AEE0B8E201C01D92AF32B207E1F70E944F
S113020014020C94D53F0C940000CF93DF93CDB728
S1130210DEB70E94AB0A0000DF91CF910895CF931F
S1130220DF931F92CDB7DEB7898384E090E0FC01B1
S11302308281282F30E08981482F50E081E090E0CE
S113024002C0880F991F4A95E2F78223932321E085
S1130250892B09F420E0822F0F90DF91CF9108952C
S1130260CF93DF93CDB7DEB782E00E940F01DF9119
S1130270CF9108950F931F93CF93DF93CDB7DEB73C
S11302802A97CDBFDEBF8F83688749875A878885C1
S1130290882F90E08630910569F187309105F1F05F
S11302A0059709F074C089859A858B839C838B811B
S11302B09C81892B59F08B819C81FC01818188234D
S11302C02CF081E080930F28000061C08091002809
S11302D00E94CB398FEF8093002859C08091002869
S11302E000E010E0980142E350E06EE278E20E9400
S11302F0E1384DC089859A858D839E838D819E8149
S1130300892BE1F18D819E81FC01828193811816F4
S11303101906A4F5000019821A8212C08D819E81EB
S1130320FC012081318189819A81820F931FFC0114
S113033080810E94CD1089819A81019689839A8354
S11303408D819E81FC01828193819C0189819A81A6
S11303508217930718F38D819E81FC018481958116
S1130360892BA1F08091002800E010E0980142E37D
S113037050E06EE278E20E94E13808C080910028E3
S11303800E94CB398FEF8093002800C0000000004A
S11303902A96CDBFDEBFDF91CF911F910F910895B3
S11303A00F931F93CF93DF93CDB7DEB72597CDBFC0
S11303B0DEBF8B836C837D838B81882F90E08C32AE
S11303C0910519F0C29709F126C08C819D8189831A
S11303D09A8389819A81FC018081813019F40E9479
S11303E0802118C089819A81FC018081882391F43D
S11303F010920E280FEF10E02EEA3FEB42E069E086
S113040088EB9FEB0E944C1F05C081E080930E286F
S1130410000001C0000000002596CDBFDEBFDF91C3
S1130420CF911F910F910895AF92BF92CF92DF9217
S1130430EF92FF920F931F93CF93DF93CDB7DEB765
S1130440CA58D109CDBFDEBF81E08A831982CE01AB
S113045085599F4FFC011082118278940E940501F6
S11304600E94F00780E090E0AAE7B4E4898F9A8FB5
S1130470AB8FBC8F20E030E44CE155E4698D7A8D7C
S11304808B8D9C8D0E941E3CDC01CB018D8F9E8F39
S1130490AF8FB8A320E030E040E85FE36D8D7E8D40
S11304A08F8D98A10E94983B88232CF481E090E0E2
S11304B089A39AA33FC020E03FEF4FE757E46D8D37
S11304C07E8D8F8D98A10E94193C18164CF520E062
S11304D030E040E251E4698D7A8D8B8D9C8D0E94D1
S11304E01E3CDC01CB01BC01CD010E949D3BDC0123
S11304F0CB0189A39AA30FC08AEF90E08BA39CA39E
S11305008BA19CA10197F1F78BA39CA389A19AA12C
S1130510019789A39AA389A19AA1892B69F714C089
S11305206D8D7E8D8F8D98A10E949D3BDC01CB014A
S113053089A39AA389A19AA18DA39EA38DA19EA10B
S11305400197F1F78DA39EA30E94480B8F839F818F
S113055081E08927882309F0FFCF0E944F13CE0141
S113056083589F4F20ED31E0FC0120833183CE017D
S113057083589F4F0E94F71E882309F0FFCFCE01B6
S113058083599F4F22E030E0FC0120833183CE0168
S113059083599F4F23E238E2FC01228333839E0177
S11305A023593F4F80EC98EAA0E0B3E3F901848338
S11305B09583A683B7830E94773660E070E08AE370
S11305C091E00E9498360FEF10E02EEA3FEB42E0F4
S11305D069E088EB9FEB0E944C1F80E090E00E9452
S11305E03E1F80910E288130C1F780910028882316
S11305F014F540E061E082E090E00E94B53680931B
S113060000288091002888230CF4DBC42091002862
S1130610CE0183599F4F40E1BC01822F0E9497373E
S11306208887888588233CF4809100280E94CB39F0
S11306308FEF8093002880910F28882371F20000A7
S11306400E943001982F81E08927882331F2CE015E
S1130650875A9F4F4CE050E060E070E00E94E13C1C
S11306600E94ED0B282FCE018B599F4FFC01208354
S1130670CE018B599F4FFC0180818823E9F0CE0184
S1130680875A9F4F28E6E1ECFFEBDC0101900D92C5
S11306902A95E1F7CE01875A9F4F0E94E83CAC01AE
S11306A0E0910028CE01875A9F4F20E030E0BC0142
S11306B08E2F0E942E38CCC381E00E948C0C282FF0
S11306C0CE018B599F4FFC012083CE018B599F4F44
S11306D0FC0180818823E9F0CE01875A9F4F2BE6E5
S11306E0E9E2F0ECDC0101900D922A95E1F7CE01EC
S11306F0875A9F4F0E94E83CAC01E0910028CE014C
S1130700875A9F4F20E030E0BC018E2F0E942E3884
S11307109FC34AE050E060E070E081E00E94330D46
S1130720A22EB32EC42ED52EE62EF72E082F192F67
S11307302A2D3B2D4C2D5D2D6E2D7F2D802F912F3D
S1130740FE01EA59FF4F208331834283538364833C
S1130750CE018A599F4FFC018081882309F455C03A
S1130760CE018A599F4FFC0180818930E9F4CE0182
S1130770875A9F4F2FE1E4E9F0ECDC0101900D92E0
S11307802A95E1F7CE01875A9F4F0E94E83CAC01BD
S1130790E0910028CE01875A9F4F20E030E0BC0151
S11307A08E2F0E942E3854C3CE018A599F4FFC01CC
S11307B08081882F90E0292F2F938F9383EB90ECE7
S11307C0892F8F9383EB90EC8F93CE01875A9F4FA1
S11307D0292F2F938F930E94F13C0F900F900F902D
S11307E00F900F900F90CE01875A9F4F0E94E83CC4
S11307F0AC01E0910028CE01875A9F4F20E030E001
S1130800BC018E2F0E942E3823C3CE018A599F4FDC
S1130810FC0181819281039709F051C1CE01875A6D
S11308209F4F2DE0E7EBF0ECDC0101900D922A954F
S1130830E1F7CE01875A9F4F0E94E83CAC01E0915A
S11308400028CE01875A9F4F20E030E0BC018E2F54
S11308500E942E3819822CC186E00E9436089C0121
S1130860CE0185599F4FFC012083318380E090E0C5
S1130870A8E4B2E48B839C83AD83BE8320E030E4A0
S11308804CE155E46B817C818D819E810E941E3CEC
S1130890DC01CB018FA398A7A9A7BAA720E030E079
S11308A040E85FE36FA178A589A59AA50E94983BCB
S11308B088232CF481E090E08BA79CA73FC020E024
S11308C03FEF4FE757E46FA178A589A59AA50E9449
S11308D0193C18164CF520E030E040E251E46B81FD
S11308E07C818D819E810E941E3CDC01CB01BC0178
S11308F0CD010E949D3BDC01CB018BA79CA70FC0BF
S11309008AEF90E08DA79EA78DA59EA50197F1F78C
S11309108DA79EA78BA59CA501978BA79CA78BA5AC
S11309209CA5892B69F714C06FA178A589A59AA500
S11309300E949D3BDC01CB018BA79CA78BA59CA5AA
S11309408FA798AB8FA598A90197F1F78FA798ABBC
S113095042E350E060E070E080E698E20E94E13C0F
S1130960CE0185599F4FFC0180819181292F2F93BE
S11309708F9384EC90EC892F8F9384EC90EC8F937D
S113098080E698E2892F8F9380E698E28F930E9405
S1130990F13C0F900F900F900F900F900F9080E606
S11309A098E20E94E83CE091002820E030E0AC01AD
S11309B060E678E28E2F0E942E380E943001982F34
S11309C081E08927882311F081E0898380E090E029
S11309D0AAE7B4E489879A87AB87BC8720E030E430
S11309E04CE155E469857A858B859C850E941E3C83
S11309F0DC01CB0189AB9AABABABBCAB20E030E004
S1130A0040E85FE369A97AA98BA99CA90E94983B55
S1130A1088232CF481E090E08DAB9EAB3FC020E0B6
S1130A203FEF4FE757E469A97AA98BA99CA90E94D3
S1130A30193C18164CF520E030E040E251E4698599
S1130A407A858B859C850E941E3CDC01CB01BC0110
S1130A50CD010E949D3BDC01CB018DAB9EAB0FC051
S1130A608AEF90E08FAB98AF8FA998AD0197F1F71B
S1130A708FAB98AF8DA99EA901978DAB9EAB8DA925
S1130A809EA9892B69F714C069A97AA98BA99CA985
S1130A900E949D3BDC01CB018DAB9EAB8DA99EA931
S1130AA089AF9AAF89AD9AAD0197F1F789AF9AAF43
S1130AB0998181E08927882309F0CECEC9C1CE016E
S1130AC0875A9F4F2DE2E7ECF0ECDC0101900D9288
S1130AD02A95E1F7CE01875A9F4F0E94E83CAC016A
S1130AE0E0910028CE01875A9F4F20E030E0BC01FE
S1130AF08E2F0E942E381982A5C186E00E943608E6
S1130B009C01CE0185599F4FFC012083318380E0F5
S1130B1090E0A8E4B2E48D879E87AF87B88B20E08D
S1130B2030E44CE155E46D857E858F8598890E947B
S1130B301E3CDC01CB018BAF9CAFADAFBEAF20E060
S1130B4030E040E85FE36BAD7CAD8DAD9EAD0E94BF
S1130B50983B882344F421E030E0CE01CF96FC0199
S1130B60208331835FC020E03FEF4FE757E46BAD54
S1130B707CAD8DAD9EAD0E94193C18160CF044C09E
S1130B8020E030E040E251E46D857E858F859889D0
S1130B900E941E3CDC01CB01BC01CD010E949D3BA7
S1130BA0DC01CB019E01215C3F4FF90180839183DD
S1130BB023C0CE018F5B9F4F2AEF30E0FC012083DE
S1130BC03183CE018F5B9F4FFC018081918101971E
S1130BD0F1F79E012F5B3F4FF90180839183CE0192
S1130BE0CF96FC01808191819C0121503109CE0175
S1130BF0CF96FC0120833183CE01CF96FC01808106
S1130C009181892BB1F628C06BAD7CAD8DAD9EADC5
S1130C100E949D3BDC01CB019E01215C3F4FF90109
S1130C2080839183CE018D5B9F4F9E01215C3F4F5A
S1130C30F90120813181FC0120833183CE018D5B58
S1130C409F4FFC01808191810197F1F79E012D5BFB
S1130C503F4FF9018083918342E350E060E070E00C
S1130C6080E698E20E94E13CCE0185599F4FFC0149
S1130C7080819181292F2F938F9384EC90EC892F7D
S1130C808F9384EC90EC8F9380E698E2892F8F9376
S1130C9080E698E28F930E94F13C0F900F900F90A2
S1130CA00F900F900F9080E698E20E94E83CE0914C
S1130CB0002820E030E0AC0160E678E28E2F0E944C
S1130CC02E380E943001982F81E08927882311F063
S1130CD081E0898380E090E0AAE7B4E4898B9A8B71
S1130CE0AB8BBC8B8E010B5B1F4F20E030E44CE1DF
S1130CF055E469897A898B899C890E941E3CDC01B0
S1130D00CB01F80180839183A283B383CE018B5BF3
S1130D109F4F20E030E040E85FE3FC016081718197
S1130D20828193810E94983B88234CF4CE01875B97
S1130D309F4F21E030E0FC012083318369C0CE0164
S1130D408B5B9F4F20E03FEF4FE757E4FC0160814E
S1130D507181828193810E94193C18160CF046C05F
S1130D6020E030E040E251E469897A898B899C89EA
S1130D700E941E3CDC01CB018E01075B1F4FBC01AE
S1130D80CD010E949D3BDC01CB01F801808391835E
S1130D9024C0CE01855B9F4F2AEF30E0FC01208305
S1130DA03183CE01855B9F4FFC0180819181019746
S1130DB0F1F79E01255B3F4FF90180839183CE01BA
S1130DC0875B9F4F9E01275B3F4FF9012081318153
S1130DD021503109FC0120833183CE01875B9F4F71
S1130DE0FC0180819181892BA1F62CC08E01075BC7
S1130DF01F4FCE018B5B9F4FFC016081718182810B
S1130E0093810E949D3BDC01CB01F8018083918397
S1130E10CE01835B9F4F9E01275B3F4FF9012081E9
S1130E203181FC0120833183CE01835B9F4FFC0120
S1130E30808191810197F1F79E01235B3F4FF90176
S1130E4080839183998181E08927882309F055CE95
S1130E5080E090E0AFE2B4E48D8B9E8BAF8BB88FD3
S1130E608E01015B1F4F20E030E44CE155E46D89B5
S1130E707E898F89988D0E941E3CDC01CB01F8018C
S1130E8080839183A283B383CE01815B9F4F20E053
S1130E9030E040E85FE3FC016081718182819381ED
S1130EA00E94983B88234CF4CE018D5A9F4F21E039
S1130EB030E0FC012083318369C0CE01815B9F4F08
S1130EC020E03FEF4FE757E4FC01608171818281AC
S1130ED093810E94193C18160CF046C020E030E0C3
S1130EE040E251E46D897E898F89988D0E941E3C71
S1130EF0DC01CB018E010D5A1F4FBC01CD010E94B4
S1130F009D3BDC01CB01F8018083918324C0CE0199
S1130F108B5A9F4F2AEF30E0FC0120833183CE01AE
S1130F208B5A9F4FFC01808191810197F1F79E01BB
S1130F302B5A3F4FF90180839183CE018D5A9F4FE5
S1130F409E012D5A3F4FF9012081318121503109F1
S1130F50FC0120833183CE018D5A9F4FFC01808197
S1130F609181892BA1F62EC08E010D5A1F4FCE01FF
S1130F70815B9F4FFC0160817181828193810E941A
S1130F809D3BDC01CB01F80180839183CE01895A1A
S1130F909F4F9E012D5A3F4FF90120813181FC0161
S1130FA020833183CE01895A9F4FFC018081918136
S1130FB00197F1F79E01295A3F4FF90180839183EC
S1130FC00CCB00000ACBCF93DF93CDB7DEB780E024
S1130FD096E021E0FC01208380E0DF91CF91089529
S1130FE0CF93DF93CDB7DEB780E096E020E036E024
S1130FF0F90120812160FC0120830000DF91CF9161
S11310000895CF93DF931F92CDB7DEB7898380E035
S113101096E02981FC01268380E096E021E0FC0132
S1131020208700000F90DF91CF910895CF93DF9335
S1131030CDB7DEB780E096E0FC018385882F90E091
S11310408170992721E0892B09F420E0822FDF9118
S1131050CF910895CF93DF93CDB7DEB780E096E0CC
S1131060FC0180899189DF91CF910895CF93DF931B
S113107000D01F92CDB7DEB78B838B810E9401080D
S113108000000E941608982F81E089278823C9F759
S11310900E942A0889839A8380E096E020E036E063
S11310A0F90123852160FC01238789819A81239694
S11310B0CDBFDEBFDF91CF910895CF93DF9300D0F2
S11310C01F92CDB7DEB789839A836B8389819A8116
S11310D04B8168ED0E94C20E00002396CDBFDEBF97
S11310E0DF91CF910895CF93DF93CDB7DEB761E061
S11310F081E690E00E945D0880E0DF91CF91089541
S1131100CF93DF9300D000D0CDB7DEB78B836C8351
S11311108B81882F90E0805D9B4F89839A838C819B
S1131120813059F489819A81FC018081282F2860BB
S113113089819A81FC0120830DC08C81882351F41C
S113114089819A81FC018081282F277F89819A8156
S1131150FC01208300002496CDBFDEBFDF91CF9138
S11311600895CF93DF9300D0CDB7DEB789836A8328
S11311708A81882F90E081309105E1F082309105D9
S113118071F1892B09F03BC084E090E024E030E069
S1131190F9012081622F2981422F50E021E030E0C3
S11311A002C0220F331F4A95E2F720952623FC0143
S11311B0208325C084E090E024E030E0F901208120
S11311C0622F2981422F50E021E030E002C0220F3B
S11311D0331F4A95E2F7262BFC01208310C0898136
S11311E0882F90E0805D9B4F2981222F30E0205D85
S11311F03B4FF90120812860FC012083000000009E
S11312000F900F90DF91CF910895CF93DF9300D08B
S1131210CDB7DEB789836A838A818823A9F084E005
S113122090E024E030E0F9012181622F2981422FEE
S113123050E021E030E002C0220F331F4A95E2F76C
S1131240262BFC01218315C084E090E024E030E0EB
S1131250F9012181622F2981422F50E021E030E001
S113126002C0220F331F4A95E2F720952623FC0182
S1131270218300000F900F90DF91CF910895CF93B9
S1131280DF9300D000D0CDB7DEB78B836C838B8126
S1131290882F90E080599B4F89839A838C81813079
S11312A059F489819A81FC018081282F28608981E1
S11312B09A81FC0120830DC08C81882351F489819B
S11312C09A81FC018081282F277F89819A81FC01E2
S11312D0208300002496CDBFDEBFDF91CF91089517
S11312E0CF93DF9300D000D0CDB7DEB78B836C8370
S11312F08B81882F90E080599B4F89839A838981C1
S11313009A81FC018081982F987F8C81892B282FCA
S113131089819A81FC01208300002496CDBFDEBF21
S1131320DF91CF910895CF93DF931F92CDB7DEB7AE
S11313308983698186E00E943F0900000F90DF9154
S1131340CF910895CF93DF931F92CDB7DEB78983F2
S1131350698186E00E94700900000F90DF91CF91AF
S11313600895CF93DF931F92CDB7DEB78983698148
S113137080E00E94B10800000F90DF91CF910895A2
S1131380CF93DF931F92CDB7DEB78983698180E065
S11313900E94050900000F90DF91CF910895CF932B
S11313A0DF931F92CDB7DEB78983698181E00E9404
S11313B0800800000F90DF91CF910895CF93DF93C1
S11313C01F92CDB7DEB78983698181E00E94B1089D
S11313D000000F90DF91CF910895CF93DF93CDB7A5
S11313E0DEB72697CDBFDEBF198212C08981882F50
S11313F090E0805F9B4F2981222F30E0205F3B4F9C
S1131400F90120812860FC01208389818F5F898311
S11314108981883058F31A8212C08A81882F90E01B
S1131420805D9B4F2A81222F30E0205D3B4FF901E4
S113143020812860FC0120838A818F5F8A838A81CE
S1131440883058F31B8212C08B81882F90E0805B18
S11314509B4F2B81222F30E0205B3B4FF9012081F1
S11314602860FC0120838B818F5F8B838B81883084
S113147058F31C8212C08C81882F90E080599B4FB6
S11314802C81222F30E020593B4FF9012081286024
S1131490FC0120838C818F5F8C838C81883058F38E
S11314A01D8212C08D81882F90E080579B4F2D8123
S11314B0222F30E020573B4FF90120812860FC01A6
S11314C020838D818F5F8D838D81883058F31E82B8
S11314D012C08E81882F90E080559B4F2E81222F41
S11314E030E020553B4FF90120812860FC01208326
S11314F08E818F5F8E838E81883058F3000026960C
S1131500CDBFDEBFDF91CF910895CF93DF93CDB7E9
S1131510DEB780E00E94DE0980E00E94CF0981E00E
S11315200E94B10981E00E94C0090E94A710000036
S1131530DF91CF910895CF93DF93CDB7DEB784E0E9
S11315400E94A20980E00E9493090E94E307000020
S1131550DF91CF910895CF93DF93CDB7DEB70E948B
S1131560ED090E949B0A0E9473080E94850A0000EC
S1131570DF91CF910895CF93DF93CDB7DEB7259751
S1131580CDBFDEBF8B839C836D8319821A8213C007
S113159089819A819C012F5F3F4F29833A839C0163
S11315A08B819C81820F931FFC0180810E94CD104E
S11315B08D8181508D838D81882351F7000025967C
S11315C0CDBFDEBFDF91CF9108950F931F93CF93CB
S11315D0DF93CDB7DEB72597CDBFDEBF8B839C836A
S11315E06D8319821A8215C089819A819C012F5FAB
S11315F03F4F29833A839C018B819C818C01020F8C
S1131600131F0E94BB10F801808300008D8181505C
S11316108D838D81882341F700002596CDBFDEBFE1
S1131620DF91CF911F910F910895CF93DF93CDB7A1
S1131630DEB72797CDBFDEBF8B839C836D837E830C
S11316404F8319821A8215C089819A812B813C812A
S1131650820F931F29813A814D815E81240F351FAA
S1131660F9012081FC01208389819A810196898373
S11316709A838F81282F30E089819A81821793077A
S11316801CF300002796CDBFDEBFDF91CF910895F4
S1131690CF93DF93CDB7DEB7E297CDBFDEBF8FEE3A
S11316A091E089839A838FEF9FEFDC018B839C8386
S11316B0AD83BE8381E08F8380E094E0888799873F
S11316C087E18A871B8680E09CE18C879D872DE0DB
S11316D0CE010196FC01DE01969601900D922A95A9
S11316E0E1F7CE0186966DE00E94BB0ACE014A96D0
S11316F06CE00E94E50A9E01265E3F4FCE010E96E5
S11317004CE0B9010E94150B8E859F859827892787
S113171098278E879F8788899989AA89BB89582F9A
S113172044273327222788899989AA89BB8988274E
S1131730AA27BB27BA2FA92F982F8827282B392B04
S11317404A2B5B2B88899989AA89BB898827992781
S1131750BB27892F9A2FAB2FBB27282B392B4A2B3A
S11317605B2B88899989AA89BB898B2F9927AA27FA
S1131770BB27822B932BA42BB52B888B998BAA8BFD
S1131780BB8B8D899E899827892798278D8B9E8B63
S1131790888D998D982789279827888F998F8C8988
S11317A0282F30E08D899E89280F391F8F89882F33
S11317B090E0280F391F888D998D2817390709F073
S11317C090CF8F89882311F080E001C081E0E296F8
S11317D0CDBFDEBFDF91CF910895CF93DF93CDB717
S11317E0DEB7E097CDBFDEBF8FEE91E089839A83A9
S11317F08FEF9FEFDC018B839C83AD83BE8381E0FD
S11318008F8380E093E08887998781E08A8780E0EE
S113181095E08B879C872CE0CE010196FC01DE01CC
S1131820959601900D922A95E1F7CE0185966CE08C
S11318300E94BB0ACE0149966CE00E94E50A9E0113
S1131840275E3F4FCE010D964CE0B9010E94150B67
S11318508D859E859827892798278D879E878F85D4
S11318609889A989BA89582F4427332722278F8535
S11318709889A989BA898827AA27BB27BA2FA92FAB
S1131880982F8827282B392B4A2B5B2B8F859889F7
S1131890A989BA8988279927BB27892F9A2FAB2F23
S11318A0BB27282B392B4A2B5B2B8F859889A98939
S11318B0BA898B2F9927AA27BB27822B932BA42B7A
S11318C0B52B8F87988BA98BBA8B8C899D89982788
S11318D0892798278C8B9D8B8F89988D98278927AA
S11318E098278F8B988F8B89282F30E08C899D893E
S11318F0280F391F8E89882F90E0280F391F8F8970
S1131900988D2817390709F090CF8E89E096CDBFBE
S1131910DEBFDF91CF910895CF93DF93CDB7DEB7CC
S1131920E397CDBFDEBF8BAB8FEE91E089839A83C3
S11319308FEF9FEFDC018B839C83AD83BE8381E0BB
S11319408F8380E094E08887998782E08A878BA9D7
S11319508B878BA9882F90E007969827892798274B
S11319608C879D872DE0CE010196FC01DE019696C1
S113197001900D922A95E1F7CE0186966DE00E94C2
S1131980BB0ACE014A966CE00E94E50A9E01265EDF
S11319903F4FCE010E964CE0B9010E94150B8E8587
S11319A09F859827892798278E879F878889998973
S11319B0AA89BB89582F44273327222788899989E4
S11319C0AA89BB898827AA27BB27BA2FA92F982FB2
S11319D08827282B392B4A2B5B2B88899989AA893C
S11319E0BB8988279927BB27892F9A2FAB2FBB2721
S11319F0282B392B4A2B5B2B88899989AA89BB8987
S1131A008B2F9927AA27BB27822B932BA42BB52B8B
S1131A10888B998BAA8BBB8B8D899E899827892764
S1131A2098278D8B9E8B888D998D98278927982749
S1131A30888F998F8C89282F30E08D899E89280F73
S1131A40391F8F89882F90E0280F391F888D998D31
S1131A502817390709F090CF8F89E396CDBFDEBFF1
S1131A60DF91CF9108952F923F924F925F926F92A0
S1131A707F928F929F92AF92BF92CF92DF92EF921A
S1131A80FF920F931F93CF93DF93CDB7DEB7C35568
S1131A90D109CDBFDEBF9E01215B3F4FF901808399
S1131AA0CE01805B9F4FFC0160837183CE018E5A0F
S1131AB09F4FFC01408351838FEE91E08E839F837F
S1131AC08FEF9FEFDC0188879987AA87BB8781E026
S1131AD08C8780E098E08D879E8784E08F87CE0195
S1131AE0815B9F4FFC018081888BCE01805B9F4F7F
S1131AF0FC0180819181982789279827898B9A8B6B
S1131B00CE018E5A9F4FFC018081918198278927AD
S1131B1098278B8B9C8BCE01815B9F4FFC0180812E
S1131B20282F30E0CE01805B9F4FFC0180819181A2
S1131B30280F391FCE018E5A9F4FFC01808191815D
S1131B40820F931F0D968FAB98AFCE01815B9F4F91
S1131B50FC018081282F30E0CE01805B9F4FFC0187
S1131B6080819181280F391FCE018E5A9F4FFC012D
S1131B7080819181820F931F0D969827892798273A
S1131B808D8B9E8B81E1FE013696DE01D996019004
S1131B900D928A95E1F7CE01C99661E10E94BB0AD4
S1131BA0CE01879660E10E94E50A9E01295D3F4FC0
S1131BB0CE01479640E1B9010E94150B8F89988D9B
S1131BC0382F22278F89988D892F9927822B932B41
S1131BD08F8B988F898D9A8DAB8DBC8D582F442710
S1131BE033272227898D9A8DAB8DBC8D8827AA2710
S1131BF0BB27BA2FA92F982F8827282B392B4A2B9C
S1131C005B2B898D9A8DAB8DBC8D88279927BB273B
S1131C10892F9A2FAB2FBB27282B392B4A2B5B2BD1
S1131C20898D9A8DAB8DBC8D8B2F9927AA27BB27C5
S1131C30822B932BA42BB52B898F9A8FAB8FBC8FC0
S1131C408E8D9F8D382F22278E8D9F8D892F9927DA
S1131C50822B932B8E8F9F8F89A19AA1382F2227B5
S1131C6089A19AA1892F9927822B932B89A39AA3BF
S1131C708BA19CA1382F22278BA19CA1892F992766
S1131C80822B932B8BA39CA38DA19EA1382F22275B
S1131C908DA19EA1892F9927822B932B8DA39EA37F
S1131CA08D8D282F30E08E8D9F8D280F391F88A1B0
S1131CB0882F90E0280F391F89A19AA1280F391F76
S1131CC08BA19CA1280F391F8DA19EA1281739072C
S1131CD009F061CF28A1CE01865B9F4FFC012083D0
S1131CE029A13AA1CE01865B9F4FFC012183328357
S1131CF02BA13CA1CE01865B9F4FFC01238334833F
S1131D00CE01865B9F4F25E0FC01CE010196DC01EC
S1131D1001900D922A95E1F740E0498130E03A8143
S1131D2020E02B8190E09C8180E08D81242E332E55
S1131D30422E592E682EA22CB32CC42CD52CE62C62
S1131D40F72C082D192D2A2D3B2D4C2D5D2D6E2D94
S1131D507F2D802F912FCD5ADF4FCDBFDEBFDF9176
S1131D60CF911F910F91FF90EF90DF90CF90BF9094
S1131D70AF909F908F907F906F905F904F903F9027
S1131D802F9008951BBEFC0164BF40830895CF9338
S1131D90DF93CDB7DEB780EC98E021E3FC0120832C
S1131DA0109210280000DF91CF910895CF93DF9314
S1131DB0CDB7DEB780EC98E020EC38E0F901208163
S1131DC02160FC0120830000DF91CF910895CF931F
S1131DD0DF931F92CDB7DEB789830000809110286E
S1131DE08230E1F380EC98E02981FC012483000037
S1131DF080EC98E0FC0183818823D4F780EC98E0A0
S1131E00FC0184810F90DF91CF910895CF93DF93EC
S1131E1000D0CDB7DEB789839A8380E090E0DC01FF
S1131E20BC01CD010F900F90DF91CF910895CF9316
S1131E30DF93CDB7DEB780E491E020E431E0F9012F
S1131E4022812E7FFC0122831092152810921628DD
S1131E50109217281092182810921D280000DF9164
S1131E60CF910895EF92FF920F931F93CF93DF9337
S1131E7000D000D0CDB7DEB769837A838B839C838F
S1131E802FEF3FEF40E050E089819A81AB81BC8124
S1131E9079018A01E81AF90A0A0B1B0BD801C70158
S1131EA08093192890931A28A0931B28B0931C2878
S1131EB020E431E08091192890911A28A0911B28E0
S1131EC0B0911C28F90180879187000080E491E09B
S1131ED0FC018181882F90E082709927892BB1F7CA
S1131EE000002496CDBFDEBFDF91CF911F910F91EB
S1131EF0FF90EF900895CF93DF9300D000D0CDB73B
S1131F00DEB780E491E020E431E0F90122812E7F04
S1131F10FC0122838091112890911228892B19F4B5
S1131F200E94170F68C08091112890911228892B64
S1131F3051F08091112890911228FC01868197819B
S1131F40A085B18503C080E090E0DC0120911528D4
S1131F50309116284091172850911828821B930B12
S1131F60A40BB50B89839A83AB83BC8389819A8143
S1131F70AB81BC810097A140B10548F1809115283F
S1131F8090911628A0911728B09118280197AF4F67
S1131F90BF4F8093072890930828A0930928B093F3
S1131FA00A288091112890911228809305289093F3
S1131FB0062881E098E280931128909312288FEFED
S1131FC09FEFA0E0B0E089839A83AB83BC838981CF
S1131FD09A81AB81BC81BC01CD010E94320F80E4A7
S1131FE091E020E431E0F90122812160FC012283A7
S1131FF081E080931D282496CDBFDEBFDF91CF9171
S11320000895CF93DF9300D000D0CDB7DEB78B8394
S11320109C838B819C81FC011482158280911328FE
S113202090911428892B39F48B819C8180931328F7
S1132030909314281CC080911328909114288983AC
S11320409A8307C089819A81FC018481958189835F
S11320509A8389819A81FC0184819581892B91F7E6
S113206089819A812B813C81FC01248335832496C8
S1132070CDBFDEBFDF91CF9108951F920F920090E4
S11320803F000F9211242F933F934F935F936F93CD
S11320907F938F939F93AF93BF93EF93FF93CF93CC
S11320A0DF9300D0CDB7DEB780911128909112282C
S11320B0FC018481958189839A8380911128909170
S11320C01228FC0186819781A085B185809315280B
S11320D090931628A0931728B093182810921928C3
S11320E010921A2810921B2810921C2880911128F3
S11320F0909112288150984231F08091112890914A
S113210012280E94011089819A818093112890934A
S113211012280E947B0F80E491E021E0FC012383DC
S113212000000F900F90DF91CF91FF91EF91BF913D
S1132130AF919F918F917F916F915F914F913F915B
S11321402F910F9000923F000F901F901895CF93FE
S1132150DF93CDB7DEB780E698E026EB32E0FC01F2
S11321602087318780E698E020ECFC01268380E01C
S1132170DF91CF910895CF93DF93CDB7DEB7000001
S113218080E698E0FC0184818823D4F780E698E017
S1132190FC018081DF91CF910895CF93DF931F924B
S11321A0CDB7DEB78983000080E698E0FC01848126
S11321B0882F90E080729927892BB1F380E698E00C
S11321C02981FC01228300000F90DF91CF910895B3
S11321D0CF93DF9300D0CDB7DEB789836A838A813A
S11321E0882F90E081309105E1F08230910571F102
S11321F0892B09F03BC020E030E080E090E0FC0156
S11322008081682F8981482F50E081E090E002C0EE
S1132210880F991F4A95E2F780958623F9018083F8
S113222025C020E030E080E090E0FC018081682F50
S11322308981482F50E081E090E002C0880F991F07
S11322404A95E2F7862BF901808310C08981882F93
S113225090E0805F9B4F2981222F30E0205F3B4F2D
S1132260F90120812860FC012083000000000F9008
S11322700F90DF91CF910895CF93DF9300D0CDB726
S1132280DEB789836A838A818823A9F020E030E05D
S113229080E090E0FC018181682F8981482F50E023
S11322A081E090E002C0880F991F4A95E2F7862BDF
S11322B0F901818315C020E030E080E090E0FC016A
S11322C08181682F8981482F50E081E090E002C02D
S11322D0880F991F4A95E2F780958623F901818337
S11322E000000F900F90DF91CF910895CF93DF936B
S11322F000D000D0CDB7DEB78B836C838B81882F61
S113230090E0805B9B4F89839A838C81813059F460
S113231089819A81FC018081282F286089819A8192
S1132320FC0120830DC08C81882351F489819A811A
S1132330FC018081282F277F89819A81FC012083D9
S113234000002496CDBFDEBFDF91CF910895CF93D7
S1132350DF9300D000D0CDB7DEB78B836C838B8145
S1132360882F90E0805B9B4F89839A8389819A812F
S1132370FC018081982F987F8C81892B282F89815B
S11323809A81FC01208300002496CDBFDEBFDF913B
S1132390CF910895CF93DF9300D0CDB7DEB7898373
S11323A06A838A81882F90E081309105E1F0823040
S11323B0910571F1892B09F03BC088E090E028E099
S11323C030E0F9012081622F2981422F50E021E081
S11323D030E002C0220F331F4A95E2F720952623EE
S11323E0FC01208325C088E090E028E030E0F9017A
S11323F02081622F2981422F50E021E030E002C089
S1132400220F331F4A95E2F7262BFC01208310C0CC
S11324108981882F90E0805B9B4F2981222F30E0B7
S1132420205B3B4FF90120812860FC0120830000E0
S113243000000F900F90DF91CF910895CF93DF9319
S113244000D0CDB7DEB789836A838A818823A9F057
S113245088E090E028E030E0F9012181622F2981B1
S1132460422F50E021E030E002C0220F331F4A9592
S1132470E2F7262BFC01218315C088E090E028E0D8
S113248030E0F9012181622F2981422F50E021E0BF
S113249030E002C0220F331F4A95E2F7209526232D
S11324A0FC01218300000F900F90DF91CF910895DC
S11324B0CF93DF931F92CDB7DEB7898388E090E096
S11324C0FC018281282F30E08981482F50E081E08F
S11324D090E002C0880F991F4A95E2F78223932364
S11324E021E0892B09F420E0822F0F90DF91CF9116
S11324F00895CF93DF931F92CDB7DEB789836981A7
S113250082E00E94E81000000F90DF91CF910895BF
S1132510CF93DF931F92CDB7DEB78983698182E0C1
S11325200E943C1100000F90DF91CF910895CF934A
S1132530DF931F92CDB7DEB78983698183E00E9460
S1132540E81000000F90DF91CF910895CF93DF93AF
S11325501F92CDB7DEB78983698186E00E94761128
S113256000000F90DF91CF910895CF93DF931F92D6
S1132570CDB7DEB78983698186E00E94CA11000065
S11325800F90DF91CF910895CF93DF931F92CDB732
S1132590DEB78983698186E00E94A71100000F904D
S11325A0DF91CF910895CF93DF93CDB7DEB786E067
S11325B00E945812DF91CF910895CF93DF931F9219
S11325C0CDB7DEB78983698187E00E94CA11000014
S11325D00F90DF91CF910895CF93DF931F92CDB7E2
S11325E0DEB78983698187E00E941E1200000F9084
S11325F0DF91CF9108951F920F9200903F000F92A8
S113260011242F933F934F935F936F937F938F93F3
S11326109F93AF93BF93EF93FF93CF93DF93CDB784
S1132620DEB70E94D312982F81E08927882361F0B6
S113263080911E2890911F28892B31F080911E28AB
S113264090911F28FC0109958BE090E020ECFC019F
S113265020830000DF91CF91FF91EF91BF91AF9163
S11326609F918F917F916F915F914F913F912F91A6
S11326700F9000923F000F901F901895CF93DF9317
S1132680CDB7DEB781E00E94791281E00E94DD12AD
S113269081E00E9497120000DF91CF910895CF93BB
S11326A0DF93CDB7DEB710921E2810921F280E9428
S11326B03E130E946013789480E0DF91CF910895D7
S11326C0CF93DF93CDB7DEB780E00E94EC1280E0B9
S11326D00E94881261E070E080E090E00E94801324
S11326E081E00E94EC126AE070E080E090E00E94D9
S11326F0801381E00E9488120000DF91CF91089539
S1132700CF93DF93CDB7DEB76297CDBFDEBF6F87C0
S1132710788B898B9A8B72C080E090E0A0E8BFE34D
S113272089839A83AB83BC8320E030E44CE155E495
S113273069817A818B819C810E941E3CDC01CB01E2
S11327408D839E83AF83B88720E030E040E85FE369
S11327506D817E818F8198850E94983B88232CF41B
S113276081E090E089879A873FC020E03FEF4FE700
S113277057E46D817E818F8198850E94193C1816DB
S11327804CF520E030E040E251E469817A818B81AC
S11327909C810E941E3CDC01CB01BC01CD010E9446
S11327A09D3BDC01CB0189879A870FC08AEF90E0BB
S11327B08B879C878B859C850197F1F78B879C87FA
S11327C089859A85019789879A8789859A85892B2E
S11327D069F714C06D817E818F8198850E949D3B2D
S11327E0DC01CB0189879A8789859A858D879E87A5
S11327F08D859E850197F1F78D879E878F859889B2
S1132800A989BA899C01AD012150310941095109B5
S11328102F87388B498B5A8B892B8A2B8B2B09F06A
S11328207BCF00006296CDBFDEBFDF91CF910895CC
S1132830CF93DF9300D0CDB7DEB789839A838981A4
S11328409A8180931E2890931F2880E00E94B512DD
S113285081E00E94A61283E00E94C41283E00E94D9
S1132860C412789400000F900F90DF91CF910895D7
S1132870CF93DF931F92CDB7DEB7898389818823F5
S113288021F083E00E94C41203C080E00E94C412BD
S113289000000F90DF91CF910895CF93DF9300D084
S11328A0CDB7DEB789836A838A81882F90E081302F
S11328B09105E1F08230910571F1892B09F03BC05B
S11328C020E030E080E090E0FC018081682F898185
S11328D0482F50E081E090E002C0880F991F4A958C
S11328E0E2F780958623F901808325C020E030E05B
S11328F080E090E0FC018081682F8981482F50E0BE
S113290081E090E002C0880F991F4A95E2F7862B78
S1132910F901808310C08981882F90E0805F9B4FEC
S11329202981222F30E0205F3B4FF901208128606C
S1132930FC012083000000000F900F90DF91CF91E5
S11329400895CF93DF9300D0CDB7DEB789836A8330
S11329508A818823A9F020E030E080E090E0FC0147
S11329608181682F8981482F50E081E090E002C086
S1132970880F991F4A95E2F7862BF901818315C0C8
S113298020E030E080E090E0FC018181682F8981C3
S1132990482F50E081E090E002C0880F991F4A95CB
S11329A0E2F780958623F901818300000F900F9050
S11329B0DF91CF910895CF93DF931F92CDB7DEB708
S11329C08983698184E00E944D1400000F90DF9197
S11329D0CF910895CF93DF931F92CDB7DEB789834C
S11329E0698184E00E94A11400000F90DF91CF91CF
S11329F00895CF93DF931F92CDB7DEB789836981A2
S1132A0085E00E944D1400000F90DF91CF9108954E
S1132A10CF93DF931F92CDB7DEB78983698186E0B8
S1132A200E944D1400000F90DF91CF910895CF9331
S1132A30DF931F92CDB7DEB78983698186E00E9458
S1132A40A11400000F90DF91CF910895CF93DF93ED
S1132A501F92CDB7DEB78983698187E00E944D1448
S1132A6000000F90DF91CF910895CF93DF931F92D1
S1132A70CDB7DEB78983698187E00E94A114000085
S1132A800F90DF91CF910895CF93DF93CDB7DEB749
S1132A902D97CDBFDEBF888799876A877B874C8750
S1132AA05D871F8219821A821B821C821D821E82EC
S1132AB088859985892B39F4CE010796888799876B
S1132AC081E089830DC08A859B85892B39F4CE01E9
S1132AD007968A879B8781E08A8302C08AEF34C085
S1132AE080E00E94351528C088859985FC01808185
S1132AF0882F90E08B839C838B819C810E94E70EBE
S1132B008D839E832D818A859B85FC0120838C8502
S1132B109D8501978C879D878A81882329F48A85DE
S1132B209B8501968A879B878981882329F48885D8
S1132B3099850196888799878C859D85892BA1F62F
S1132B4081E00E94351580E02D96CDBFDEBFDF9178
S1132B50CF910895CF93DF9300D01F92CDB7DEB706
S1132B608A839B83198281E00E94261581E00E945A
S1132B70351581E00E94DB1481E00E94EA1480E0B4
S1132B800E94F91481E00E94081580E00E94171544
S1132B900E94C70E0E94D60E0E94601361E070E08E
S1132BA080E090E00E94801389812396CDBFDEBF30
S1132BB0DF91CF910895CF93DF93CDB7DEB72697FA
S1132BC0CDBFDEBF8C836D837E8319828C81882F79
S1132BD090E00397C1F48D819E818A839B838A81CF
S1132BE09B81FC01448155818A819B81FC01228166
S1132BF033818A819B81FC0180819181B9010E948A
S1132C004415898303C08FEF898300008981269648
S1132C10CDBFDEBFDF91CF910895CF93DF93CDB7C2
S1132C20DEB780E0DF91CF910895CF93DF93CDB7E6
S1132C30DEB72897CDBFDEBF89839A836B837C83FD
S1132C402D833E834F8358878D819E81AF81B885C4
S1132C50892B8A2B8B2B31F18B819C81FC01208168
S1132C6089819A81FC01208389819A8101968983D3
S1132C709A838B819C8101968B839C838D819E8119
S1132C80AF81B8850197A109B1098D839E83AF8374
S1132C90B8878D819E81AF81B885892B8A2B8B2B38
S1132CA0D9F601C000002896CDBFDEBFDF91CF91D9
S1132CB00895CF93DF93CDB7DEB72797CDBFDEBF9F
S1132CC089839A836B832C833D834E835F838C81BA
S1132CD09D81AE81BF81892B8A2B8B2BF1F0898159
S1132CE09A812B81FC01208389819A8101968983B1
S1132CF09A838C819D81AE81BF810197A109B1091D
S1132D008C839D83AE83BF838C819D81AE81BF8183
S1132D10892B8A2B8B2B19F701C000002796CDBF76
S1132D20DEBFDF91CF910895CF93DF9300D000D021
S1132D30CDB7DEB78B839C8319821A820AC089813E
S1132D409A81019689839A838B819C8101968B83D6
S1132D509C838B819C81FC018081882381F78981FC
S1132D609A812496CDBFDEBFDF91CF910895CF9392
S1132D70DF93CDB7DEB7809195288F5F8093952838
S1132D800000DF91CF910895CF93DF93CDB7DEB7E5
S1132D902597CDBFDEBF19821092942881E00E944E
S1132DA03814CE010296AC0160E770E180E090E057
S1132DB00E949A26898389818823B9F48A819B8118
S1132DC0AC81BD8182608A839B83AC83BD838A810D
S1132DD09B81AC81BD819C01AD0160E770E180E025
S1132DE090E00E94B826898301C00000898125965D
S1132DF0CDBFDEBFDF91CF910895CF93DF93CDB7E1
S1132E00DEB72797CDBFDEBF89836A837B832C839C
S1132E103D834E835F8300002796CDBFDEBFDF91E5
S1132E20CF910895CF93DF931F92CDB7DEB7198268
S1132E3080919428882311F0898116C08091932869
S1132E40882351F480919228882331F00E94C92369
S1132E5089838981882331F4809193288F5F8093BB
S1132E60932801C0000089810F90DF91CF910895CC
S1132E70CF93DF93CDB7DEB780919328882329F0D1
S1132E808091932881508093932880E0DF91CF91A3
S1132E900895CF93DF931F92CDB7DEB71982809147
S1132EA09328882329F08091932881508093932834
S1132EB080919328882339F480919228882319F0EB
S1132EC00E943423898389810F90DF91CF910895E3
S1132ED0CF93DF9300D0CDB7DEB789839A832AE1FD
S1132EE030E040E050E060E082E998E20E94591648
S1132EF087EB96E10E9418146DEF76E183E00E945F
S1132F00FB1B80E00F900F90DF91CF910895CF923B
S1132F10DF92EF92FF920F931F93CF93DF93CDB77E
S1132F20DEB76F97CDBFDEBF8C8B6D8B4E8B5F8B07
S1132F30288F398F0A8F1B8FEC8EFD8ECE8EDF8EFD
S1132F408FEF89838D898F778B838C898A8388E03F
S1132F5090E08C839D838A8D9B8D892B69F02C81D5
S1132F603D814E8D5F8D8C8D9D8D840F951F820FBD
S1132F70931F8C839D8308C02C813D81888D998DFE
S1132F80820F931F8C839D830E94121789838981EA
S1132F90882309F0A6C11A861B861C861D861E86F8
S1132FA01F861E821F82188619868C89282F30E07E
S1132FB040E050E08E819F81A885B985822B932BB8
S1132FC0A42BB52B8E839F83A887B9878D89882FDF
S1132FD090E0A0E0B0E02227382F492F5A2F8E81AD
S1132FE09F81A885B985822B932BA42BB52B8E8327
S1132FF09F83A887B9878C819D81CC01A0E0B0E034
S1133000AC01332722278E819F81A885B985822B25
S1133010932BA42BB52B8E839F83A887B9878E818E
S11330209F81A885B9859C01AD016CE870E180E0C1
S113303090E00E94B82689838981882309F045C1DC
S11330401E821F82188619868E819F81A885B98564
S113305082608E839F83A887B9878E819F81A8858C
S1133060B9859C01AD0168E770E180E090E00E94C1
S1133070B82689838981882309F029C11A861B8689
S11330801C861D861E861F863DC0CE010696AC0199
S113309068E770E180E090E00E949A268983898144
S11330A08823B9F58E859F85843F914040F08E85B5
S11330B09F8561E070E080E090E00E9480138E8143
S11330C09F81A885B98582709927AA27BB27892B58
S11330D08A2B8B2B91F4CE010A96AC0160E074E04C
S11330E085E190E00E949A2689838981882399F05A
S11330F01A861B861C861D86F1C08E859F850196C7
S11331008E879F878E859F85883E934008F4BDCF28
S113311003C0000001C000008A859B85AC85BD8585
S1133120892B8A2B8B2B09F4C5C08A859B85AC859A
S1133130BD85888B998BAA8BBB8B8C819D818C835D
S11331409D8388899989AA89BB89AE014E5F5F4FA7
S113315008E010E020E030E0BC01CD010E94BD2772
S113316089838981882309F0B4C088899989AA89C7
S1133170BB890896A11DB11D888B998BAA8BBB8B2B
S11331808E899F89892B41F1888D998D9C0140E01E
S113319050E088899989AA89BB896E897F898901C8
S11331A09A01AB01BC01CD010E94BD2789838981AD
S11331B0882309F090C0888D998D9C0140E050E0EF
S11331C088899989AA89BB89820F931FA41FB51F77
S11331D0888B998BAA8BBB8B8A8D9B8D892B09F449
S11331E03FC02E8D3F8D888D998DA901481B590BA9
S11331F0CA019C0140E050E088899989AA89BB8969
S1133200820F931FA41FB51F888B998BAA8BBB8B2E
S11332108C8D9D8D9C0140E050E088899989AA8914
S1133220BB896A8D7B8D89019A01AB01BC01CD01FB
S11332300E94BD2789838981882309F04EC08C8D23
S11332409D8D9C0140E050E088899989AA89BB89B9
S1133250820F931FA41FB51F888B998BAA8BBB8BDE
S11332608A859B85AC85BD85880F991FAA1FBB1FC6
S1133270880F991FAA1FBB1F8E839F83A887B987B6
S11332808E819F81A885B98582608E839F83A8875C
S1133290B9878E819F81A885B9859C01AD016CE6B3
S11332A070E180E090E00E94B826898389818823B8
S11332B039F014C00E94491789838DEF898312C0A5
S11332C00E944917898389810EC0000007C000004D
S11332D005C0000003C0000001C000000E943817B0
S11332E001C0000089816F96CDBFDEBFDF91CF9111
S11332F01F910F91FF90EF90DF90CF9008950F935F
S11333001F93CF93DF93CDB7DEB72F97CDBFDEBF2B
S11333101982CE010496AC0160E770E180E090E090
S11333200E949A2689838981882309F070C18C813F
S11333309D81AE81BF8181709927AA27BB27892BE4
S11333408A2B8B2B09F460C180E00E9438148C8195
S11333509D81AE81BF818E7F8C839D83AE83BF832D
S11333608C819D81AE81BF819C01AD0160E770E1DC
S113337080E090E00E94B82689838981882309F03F
S113338048C181E0809394288C819D81AE81BF8166
S1133390B695A79597958795B695A795979587958B
S11333A09F708A839B838A819B81892B09F429C11D
S11333B01C861D861E861F86CE010C96AC0164E811
S11333C070E180E090E00E949A26898389818823B5
S11333D021F081E00E9438141DC18C859D85AE8545
S11333E0BF858093962890939728A0939828B093AC
S11333F099288A819B81CC01A0E0B0E080939A282F
S113340090939B28A0939C28B0939D288C859D85A0
S1133410AE85BF85AE01485F5F4F04E010E020E059
S113342030E0BC01CD010E94FA2689838A859B8500
S11334308A879B878981882321F081E00E94381440
S1133440E9C02A853B858A819B812817390781F049
S11334508A859B852A813B81A901481B590BCA0196
S1133460059730F081E00E9438148AEF8983D2C036
S113347088858130E9F480919E2890919F28892B3A
S113348009F4B7C0E0919E28F0919F288C859D8512
S1133490AE85BF850896A11DB11D2A853B85B9015E
S11334A06850710919859C01AD01812F0995A1C04E
S11334B088858230E9F48091A0289091A128892BF5
S11334C009F497C0E091A028F091A1288C859D85EE
S11334D0AE85BF850896A11DB11D2A853B85B9011E
S11334E06850710919859C01AD01812F099581C02E
S11334F088858430E9F48091A2289091A328892BAF
S113350009F477C0E091A228F091A3288C859D85C9
S1133510AE85BF850896A11DB11D2A853B85B901DD
S11335206850710919859C01AD01812F099561C00D
S113353088858630E9F48091A8289091A928892B60
S113354009F457C0E091A828F091A9288C859D859D
S1133550AE85BF850896A11DB11D2A853B85B9019D
S11335606850710919859C01AD01812F099541C0ED
S113357088858730E1F48091A4289091A528892B2F
S1133580C1F1E091A428F091A5288C859D85AE8594
S1133590BF850896A11DB11D2A853B85B9016850D8
S11335A0710919859C01AD01812F099522C0888577
S11335B08530E1F48091AA289091AB28892BC9F039
S11335C0E091AA28F091AB288C859D85AE85BF85B6
S11335D00896A11DB11D2A853B85B9016850710962
S11335E019859C01AD01812F099503C08AEF898358
S11335F011C080919428882369F00E94C41689839D
S113360009C08EEF898306C084EF898303C000005C
S113361001C0000089812F96CDBFDEBFDF91CF911D
S11336201F910F910895CF93DF931F92CDB7DEB70B
S113363019820BC0809195288150809395280E940F
S11336407F19898389818823D1F7809195288823DC
S113365089F789810F90DF91CF910895EF92FF92BE
S11336600F931F93CF93DF93CDB7DEB72A97CDBFC8
S1133670DEBF6A837B838C839D834E835F8328872D
S113368039870A8719828A819B81AC81BD81892B04
S11336908A2B8B2B41F08E819F81892B21F0888589
S11336A09985892B51F48A85882321F00E94C416B8
S11336B0898396C084EF898393C0888599859C010A
S11336C040E050E080919A2890919B28A0919C28FA
S11336D0B0919D2882179307A407B50718F484EFC7
S11336E089837EC02091962830919728409198280C
S11336F0509199288A819B81AC81BD81821793075F
S1133700A407B50730F1888599859C0140E050E015
S11337108A819B81AC81BD81280F391F4A1F5B1FA1
S1133720E0909628F0909728009198281091992875
S113373080919A2890919B28A0919C28B0919D28D3
S11337408E0D9F1DA01FB11F82179307A407B507F5
S113375018F484EF898344C0888599859C0140E0EE
S113376050E06E817F818A819B81AC81BD8189011A
S11337709A01AB01BC01CD010E94FA26898389819B
S1133780882369F5209196283091972840919828AC
S11337905091992880919A2890919B28A0919C28D7
S11337A0B0919D28280F391F4A1F5B1F8885998572
S11337B07C0100E010E08A819B81AC81BD818E0D8B
S11337C09F1DA01FB11F281739074A075B0719F06F
S11337D08A85882329F00E94C416898301C00000C9
S11337E089812A96CDBFDEBFDF91CF911F910F91C2
S11337F0FF90EF900895CF93DF9300D000D0CDB722
S1133800DEB78A836B837C8319828A81882F90E058
S1133810092E000CAA0BBB0B41E050E026E030E07F
S1133820841B950B28173907B0F1805B9F4FFC016F
S11338300C94C73C8B819C818093A0289093A128F1
S11338402DC08B819C8180939E2890939F2826C0B5
S11338508B819C818093A2289093A3281FC08B8185
S11338609C818093A6289093A72818C08B819C8163
S11338708093A8289093A92811C08B819C81809360
S1133880A4289093A5280AC08B819C818093AA28A0
S11338909093AB2803C084EF898300008981249628
S11338A0CDBFDEBFDF91CF9108950F93CF93DF9308
S11338B0CDB7DEB7C55AD109CDBFDEBFFE01E15693
S11338C0FF4F8083CE0180569F4FFC01608371833C
S11338D0CE018E559F4FFC01208331834283538355
S11338E0CE0181569F4FFC0180818C3239F5AE01A7
S11338F0475F5F4FCE018E559F4FFC0180819181C0
S1133900A281B38100E024E030E0BC01CD010E943B
S11339102E1B882309F062C28091222890912328CB
S1133920892B09F45BC22091222830912328CE01EF
S11339300996BC018CE2F901099550C2CE01815669
S11339409F4FFC0180818B3139F5AE01435F5F4F9E
S1133950CE018E559F4FFC0180819181A281B3815C
S113396000E028E030E0BC01CD010E942E1B88233A
S113397009F034C28091222890912328892B09F4DC
S11339802DC22091222830912328CE010D96BC010E
S11339908BE1F901099522C2CE0181569F4FFC01AA
S11339A08081863039F5AE01455C5F4FCE018E557E
S11339B09F4FFC0180819181A281B38101E020E3CA
S11339C030E0BC01CD010E942E1B882309F006C201
S11339D08091222890912328892B09F4FFC12091FA
S11339E0222830912328CE01CB96BC0186E0F90130
S11339F00995F4C1CE0181569F4FFC0180818E3020
S1133A0009F4ECC1CE0181569F4FFC0180818233C1
S1133A1039F5AE014B5E5F4FCE018E559F4FFC01D1
S1133A2080819181A281B38100E024E130E0BC0176
S1133A30CD010E942E1B882309F0D0C18091222839
S1133A4090912328892B09F4C9C12091222830910F
S1133A502328CE014596BC0182E3F9010995BEC134
S1133A60CE0181569F4FFC0180818F3281F5CE01BA
S1133A70CB9624E630E040E050E060E00E94591626
S1133A80AE01455C5F4FCE018E559F4FFC01808196
S1133A909181A281B38100E024E630E0BC01CD0134
S1133AA00E942E1B882309F099C1809122289091AD
S1133AB02328892B09F492C12091222830912328AC
S1133AC0CE01CB96BC018FE2F901099587C1CE01E5
S1133AD081569F4FFC018081843331F5AE01475DEF
S1133AE05F4FCE018E559F4FFC0180819181A28151
S1133AF0B38100E024E030E0BC01CD010E942E1B24
S1133B00882309F06BC18091222890912328892B66
S1133B1009F464C1209122283091232860E070E0E8
S1133B2084E3F90109955AC1CE0181569F4FFC01E6
S1133B308081813161F510922128AE01435D5F4F90
S1133B40CE018E559F4FFC0180819181A281B3816A
S1133B5000E024E030E0BC01CD010E942E1B88234C
S1133B6009F03CC18DA58093202880912228909152
S1133B702328892B09F432C120912228309123284B
S1133B80CE018D96BC0181E1F901099527C1CE01D1
S1133B9081569F4FFC018081833139F5AE01455C2C
S1133BA05F4FCE018E559F4FFC0180819181A28190
S1133BB0B38100E02CE230E0BC01CD010E942E1B59
S1133BC0882309F00BC18091222890912328892B06
S1133BD009F404C12091222830912328CE01CB96E8
S1133BE0BC0183E1F9010995F9C0CE0181569F4FCB
S1133BF0FC018081843039F5CE018E559F4FFC0144
S1133C0080819181A281B38100E024E030E0AE01A3
S1133C104F5F5F4FBC01CD010E942E1B882309F02A
S1133C20DDC08091222890912328892B09F4D6C0E5
S1133C302091222830912328CE010196BC0184E0F2
S1133C40F9010995CBC0CE0181569F4FFC018081BB
S1133C50853639F5CE018E559F4FFC0180819181C7
S1133C60A281B38100E024E030E0AE014F5F5F4FFA
S1133C70BC01CD010E942E1B882309F0AFC08091A6
S1133C80222890912328892B09F4A8C02091222866
S1133C9030912328CE010196BC0185E6F9010995EE
S1133CA09DC0CE0181569F4FFC018081893039F53A
S1133CB0AE01455C5F4FCE018E559F4FFC01808164
S1133CC09181A281B38101E024E630E0BC01CD0101
S1133CD00E942E1B882309F081C080912228909194
S1133CE02328892B09F47AC0209122283091232893
S1133CF0CE01CB96BC0189E0F90109956FC0CE01D4
S1133D0081569F4FFC0180818A3239F5AE014F5CA8
S1133D105F4FCE018E559F4FFC0180819181A2811E
S1133D20B38101E024E030E0BC01CD010E942E1BF0
S1133D30882309F053C08091222890912328892B4D
S1133D4009F44CC02091222830912328CE01C19639
S1133D50BC018AE2F901099541C0CE0181569F4F09
S1133D60FC0180818032D1F5AE014B5C5F4FCE0106
S1133D708E559F4FFC0180819181A281B38100E027
S1133D8026E030E0BC01CD010E942E1B882331F5D2
S1133D902FA938AD4DA95EA9CE018E559F4FFC01C8
S1133DA080819181A281B3810696A11DB11D01E09C
S1133DB0BC01CD010E942E1B882381F4809122280E
S1133DC090912328892B51F0209122283091232887
S1133DD0CE01C596BC0180E2F90109950000CB55DE
S1133DE0DF4FCDBFDEBFDF91CF910F910895CF9309
S1133DF0DF93CDB7DEB7AA97CDBFDEBF89A79AA759
S1133E00198281E088A789A59AA5892B19F484EFE2
S1133E1089832DC089A59AA5FC0180819181809315
S1133E2022289093232810922128CE0188960E945C
S1133E305B29898389818823C9F480E090E00E940A
S1133E40681789838981882359F465E57CE181E0D9
S1133E500E94FB1BCE0102960E945F28898307C043
S1133E60000080E090E00E94AE2901C0000089813A
S1133E70AA96CDBFDEBFDF91CF910895CF93DF9394
S1133E8000D0CDB7DEB789839A830E94131B0F90AD
S1133E900F90DF91CF910895EF920F931F93CF93DB
S1133EA0DF93CDB7DEB72897CDBFDEBF89839A8372
S1133EB06B834C832D833E830F8318874F815885F2
S1133EC02D813E8189819A81E12C8A014C816B810B
S1133ED00E94731F2896CDBFDEBFDF91CF911F9143
S1133EE00F91EF900895CF92DF92EF92FF920F938C
S1133EF01F93CF93DF93CDB7DEB7C358D109CDBF9E
S1133F00DEBFFE01E758FF4F80839183CE018558C1
S1133F109F4FDC016C93CE0184589F4FFC0140837A
S1133F20CE0183589F4FDC012D933C93CE018158E1
S1133F309F4FFC0100831183CE018F579F4FDC01FB
S1133F40EC921982CE0184589F4FFC01808181300C
S1133F5009F475C0CE0183589F4FDC018D919C916B
S1133F60892B19F484EF8983BDC1CE0184589F4FF6
S1133F70FC018081823009F062C0CE0183589F4FDA
S1133F80DC018D919C910E9494168034910509F076
S1133F9056C01A82CE0183589F4FFC0180819181C3
S1133FA08B839C8348C08A81882F90E02B813C813D
S1133FB0820F931FDC018C918033B8F18A81882FA2
S1133FC090E02B813C81820F931FFC0180818A3316
S1133FD058F08A81882F90E02B813C81820F931FB7
S1133FE0DC018C91813408F18A81882F90E02B8147
S1133FF03C81820F931FFC018081873458F08A81B1
S1134000882F90E02B813C81820F931FDC018C91DF
S1134010813658F08A81882F90E02B813C81820F71
S1134020931FFC018081873618F084EF89835AC17D
S11340308A818F5F8A838A81803408F4B4CFCE0169
S113404085589F4FDC018C91882339F0CE01855827
S11340509F4FFC018081813218F084EF898342C133
S1134060CE0181589F4FDC018D919C91892B41F0A9
S1134070CE0181589F4FFC01808191810F9760F0A0
S1134080CE0181589F4FDC018D919C918F3F91050A
S113409019F084EF898326C1CE0185589F4FFC0116
S11340A08081882F90E0A0E0B0E09E0127583F4F28
S11340B0F901608171819E01235F3F4FF901EA5B41
S11340C0FF4F9C01AD01CF010E941516CE0185580A
S11340D09F4FDC018C91882F90E09E012D5A3F4F19
S11340E0820F931FFC011082CE018F5A9F4F9E01B5
S11340F021583F4FD9012D913C91FC0120833183FC
S1134100CE018F579F4F21E0DC018C91882309F465
S113411020E0CE018C589F4FFC012083CE010D96E8
S11341208D839E838D819E818F5B9F4F9E0124583A
S11341303F4FD9012C91FC012083CE0184589F4F1D
S1134140DC018C91833009F05FC0CE0183589F4F0E
S1134150FC01808191818F8398878D819E818987DD
S11341609A878F819885DC018C912FEF280F8985A0
S11341709A85FC01208389859A85DC018C918430A1
S113418018F084EF8983AEC08F819885FC0181810A
S11341902FEF280F89859A85DC0111962C93898548
S11341A09A85FC0181818A3051F089859A85DC01E8
S11341B011968C918A3119F084EF898393C08F8191
S11341C09885FC018181882F90E0A0E0B0E02F81E8
S11341D03885B9016E5F7F4F29853A85F90132969A
S11341E09C01AD01CF010E9415168F819885DC01D9
S11341F011968C91882F90E029853A85820F931F20
S11342000296FC0110825EC0CE0184589F4FDC01EF
S11342108C918230A9F5CE0183589F4FFC01808197
S113422091810E9494168B879C878B859C85892B12
S113423029F08B859C858134910518F084EF89835E
S113424051C08B859C850196CC01A0E0B0E0ED8146
S1134250FE81CE57DF4FE883F983C258D0409E01D8
S113426023583F4FF901608171819C01AD01CE5704
S1134270DF4F88819981C258D0400E94151622C010
S1134280CE0184589F4FDC018C91843089F4ED81F8
S1134290FE81CE0183589F4FDC018D919C912EE3CA
S11342A030E040E050E0BC01CF010E9415160AC086
S11342B0CE0184589F4FFC018081813019F084EF36
S11342C0898310C0CE010D96C12CD12CE12CF12C88
S11342D000E010E02CE630E0AC0168E281E00E94EE
S11342E0871789838981CD57DF4FCDBFDEBFDF912B
S11342F0CF911F910F91FF90EF90DF90CF90089591
S1134300CF93DF93CDB7DEB780E0DF91CF910895EF
S1134310CF93DF93CDB7DEB72D97CDBFDEBF6A87CE
S11343207B878C879D8719828A859B85AC85BD8513
S11343308A839B83AC83BD838A819B81AC81BD814D
S113434091608A839B83AC83BD838A819B81AC818A
S1134350BD819C01AD0160EA74E180E090E00E94BF
S1134360B8268A819B81AC81BD81892B8A2B8B2BBA
S1134370F9F01E821F8218861986CE010696AC01BA
S113438060EA74E180E090E00E949A268983898142
S11343908823D9F62E813F81488559858A819B815E
S11343A0AC81BD81281739074A075B0719F0CDCFC7
S11343B0000001C0000080E02D96CDBFDEBFDF917C
S11343C0CF910895CF93DF93CDB7DEB72597CDBFB7
S11343D0DEBF1A821B821C821D821982CE010296C4
S11343E0AC0168E074E180E090E00E949A26898341
S11343F089818823E9F58A819B81AC81BD819160A3
S11344008A839B83AC83BD838A819B81AC81BD817C
S11344109C01AD0168E074E180E090E00E94B82660
S113442089838981882331F5CE010296AC0160E04D
S11344307AE180E090E00E949A268983898188232A
S1134440D9F48A819B81AC81BD81A1608A839B83DD
S1134450AC83BD838A819B81AC81BD819C01AD010C
S113446060E07AE180E090E00E94B826898305C08C
S1134470000003C0000001C0000089812596CDBF63
S1134480DEBFDF91CF910895CF93DF9300D000D0AA
S1134490CDB7DEB78091242890912528A0912628B5
S11344A0B0912728892B8A2B8B2B09F0CDC044E2AD
S11344B058E260E070E180E090E00E949A26882350
S11344C061F0109224281092252810922628109228
S11344D0272880E090E0DC01BFC0CE010196AC014A
S11344E064EF73E180E090E00E949A26882361F0F3
S11344F010922428109225281092262810922728FA
S113450080E090E0DC01A8C08091242890912528C7
S1134510A0912628B0912728803A9240A041B10565
S1134520B1F489819A81AB81BC810197A105B10560
S113453009F468C081EA92E0A0E1B0E08093242805
S113454090932528A0932628B09327285BC08091B8
S1134550242890912528A0912628B0912728803BD3
S11345609240A041B10559F589819A81AB81BC8102
S11345700397A105B10509F445C089819A81AB81EE
S1134580BC810497A105B10569F481EB92E0A0E137
S1134590B0E08093242890932528A0932628B093F4
S11345A0272830C082EB92E0A0E1B0E08093242879
S11345B090932528A0932628B093272823C0809180
S11345C0242890912528A0912628B0912728803F5F
S11345D09105A041B105B1F444E258E260E070E015
S11345E08BE390E00E949A26882361F0109224289D
S11345F010922528109226281092272880E090E017
S1134600DC012AC08091242890912528A091262895
S1134610B0912728A07F8093242890932528A093E5
S11346202628B09327288091242890912528A091AA
S11346302628B0912728A5608093242890932528C4
S1134640A0932628B0932728809124289091252888
S1134650A0912628B0912728BC01CD012496CDBF76
S1134660DEBFDF91CF910895CF93DF93CDB7DEB74F
S11346702597CDBFDEBF1982CE010296AC0160E161
S113468070E080E090E00E949A26898389818823E3
S113469009F071C08A819B81AC81BD8181709927A9
S11346A0AA27BB27892B8A2B8B2B09F0E5CF000087
S11346B0CE010296AC0161E070E080E090E00E94DF
S11346C09A2689838981882309F057C08A819B812E
S11346D0AC81BD8182709927AA27BB27892B8A2B9D
S11346E08B2BC9F08A819B81AC81BD818D7F8A83AC
S11346F09B83AC83BD838A819B81AC81BD819C01FA
S1134700AD0161E070E080E090E00E94B82689830A
S113471089818823A1F5CE010296AC016BE070E09B
S113472080E090E00E949A2689838981882349F554
S11347308A819B81AC81BD8181709927AA27BB277F
S1134740892B8A2B8B2BF1F08A819B81AC81BD81D3
S11347508E7F8A839B83AC83BD838A819B81AC815A
S1134760BD819C01AD016BE070E080E090E00E94AF
S1134770B826898307C0000005C0000003C00000FC
S113478001C0000089812596CDBFDEBFDF91CF91A6
S11347900895CF93DF93CDB7DEB72D97CDBFDEBF9E
S11347A019821E821F82188619861A861B861C8609
S11347B01D861A821B821C821D82CE010696AC01C4
S11347C06BE070E080E090E00E949A268983898102
S11347D0882309F083C08E819F81A885B985817063
S11347E09927AA27BB27892B8A2B8B2B91F48E819F
S11347F09F81A885B98581609C01AD016BE070E063
S113480080E090E00E94B82689838981882309F09A
S113481067C0CE010696AC0161E070E080E090E0F4
S11348200E949A2689838981882309F05BC08E813E
S11348309F81A885B98582709927AA27BB27892BD0
S11348408A2B8B2B91F48E819F81A885B9858260F8
S11348509C01AD0161E070E080E090E00E94B82628
S113486089838981882309F03FC0CE010A96AC016F
S11348706FE070E080E090E00E949A26898389814D
S11348808823A1F58A859B85AC85BD85847099278D
S1134890AA27BB27892B8A2B8B2BE1F462E070E0DB
S11348A080E090E00E9480138A819B81AC81BD816D
S11348B00196A11DB11D8A839B83AC83BD838A812C
S11348C09B81AC81BD810597A105B10570F28CEF88
S11348D089830DC000000E94722609C0000007C031
S11348E0000005C0000003C0000001C00000898171
S11348F02D96CDBFDEBFDF91CF910895CF93DF9387
S1134900CDB7DEB76297CDBFDEBF8A8B1D86198215
S11349101A821B821C821D821E821F82188619869F
S11349201A861B861C8682E593E1DC018E879F87AD
S1134930A88BB98B19821A821B821C8264E170E1F4
S113494080E090E00E947E26DC01CB0189839A837B
S1134950AB83BC8389819A81AB81BC81BB233CF04E
S113496061E070E080E090E00E948013E7CF0000F7
S11349706CEB77E082E090E00E947E26DC01CB01C4
S113498089839A83AB83BC8389819A81AB81BC81FF
S113499081709927AA27BB2789839A83AB83BC8319
S11349A089819A81AB81BC81892B8A2B8B2B51F510
S11349B019821A821B821C821CC061E070E080E0B4
S11349C090E00E9480136CE070E0CB010E947E2690
S11349D0DC01CB0189839A83AB83BC838D819E8167
S11349E0AF81B8850196A11DB11D8D839E83AF83D0
S11349F0B88789819A81AB81BC818E39904DAD4A4B
S1134A00B041D9F68A898230A9F42DE735ED4CE11D
S1134A105CE36CEA77E082E090E00E94B82620E054
S1134A2030E040E150E06CE870E180E090E00E940A
S1134A30B8263BC08A898330A1F42DE735ED4CE1DB
S1134A405CE36CEA77E082E090E00E94B82620E024
S1134A5030E0A9016CE870E180E090E00E94B826A3
S1134A6024C08A898430A9F480E890E0A0E0B0E012
S1134A7089879A87AB87BC878E859F85A889B989E2
S1134A809C01AD016CE870E180E090E00E94B826E2
S1134A900CC08E859F85A889B9899C01AD016CE8FD
S1134AA070E180E090E00E94B8260E944422DC017C
S1134AB0CB019F70AA27BB27803A9340A105B1057B
S1134AC050F089859A85AB85BC858260BC01CD0197
S1134AD00E94882108C089859A85AB85BC85BC0164
S1134AE0CD010E94882121E63FE242E55FEE6CE0C1
S1134AF070E0CB010E94B8268D856296CDBFDEBFE3
S1134B00DF91CF910895CF93DF93CDB7DEB766974A
S1134B10CDBFDEBF8E8B19821A821B821C821D823E
S1134B201E821F82188619868FEF9FEFDC018A8709
S1134B309B87AC87BD878CE890E1A0E0B0E08E87CE
S1134B409F87A88BB98B86E396E2A3E5B2E08A8BB4
S1134B509B8BAC8BBD8B8E89823021F08E89833008
S1134B6009F040C08CEA97E0A2E0B0E08E879F870E
S1134B70A88BB98B83EC91ECADE5B7ED8A8B9B8B5D
S1134B80AC8BBD8B2FC062E070E080E090E00E94AF
S1134B9080138E859F85A889B989BC01CD010E94A7
S1134BA07E26DC01CB018A839B83AC83BD838E810B
S1134BB09F81A885B9850196A11DB11D8E839F8310
S1134BC0A887B9872E813F81488559858A859B8529
S1134BD0AC85BD85281739074A075B0718F08BEFAA
S1134BE089831FC02A893B894C895D898A819B817D
S1134BF0AC81BD81281739074A075B0721F68A89EA
S1134C009B89AC89BD8986339642A345B24049F459
S1134C1020E030E0A9016CE870E180E090E00E94BF
S1134C20B82689816696CDBFDEBFDF91CF91089506
S1134C30CF93DF93CDB7DEB72597CDBFDEBF1A8202
S1134C401B821C821D82CE010296AC0160E074E1DD
S1134C5080E090E00E949A26898389818823B9F4B0
S1134C608A819B81AC81BD819B7F8A839B83AC833A
S1134C70BD838A819B81AC81BD819C01AD0160E0D3
S1134C8074E180E090E00E94B826898301C00000AE
S1134C9089812596CDBFDEBFDF91CF910895CF9353
S1134CA0DF9300D01F92CDB7DEB78A839B8319822E
S1134CB08A819B810E94AA15898389812396CDBF0D
S1134CC0DEBFDF91CF910895CF93DF931F92CDB7CD
S1134CD0DEB719820E940D16898389810F90DF91B6
S1134CE0CF910895CF93DF931F92CDB7DEB719828A
S1134CF00E9416300F90DF91CF910895CF93DF93E8
S1134D0000D000D0CDB7DEB769837A838B839C83D0
S1134D1089819A81AB81BC81BC01CD010E94B630EE
S1134D20DC01CB01BC01CD012496CDBFDEBFDF91F8
S1134D30CF910895CF93DF93CDB7DEB72697CDBF3C
S1134D40DEBF69837A838B839C834D835E832D814D
S1134D503E8189819A81AB81BC81A901BC01CD01CD
S1134D600E94D9302696CDBFDEBFDF91CF91089542
S1134D70CF93DF93CDB7DEB72897CDBFDEBF69836E
S1134D807A838B839C832D833E834F8358872D8125
S1134D903E814F81588589819A81AB81BC81BC0158
S1134DA0CD010E9400312896CDBFDEBFDF91CF91A7
S1134DB00895CF93DF93CDB7DEB72897CDBFDEBF7D
S1134DC069837A838B839C834D835E832F833887A7
S1134DD02F8138854D815E8189819A81AB81BC8127
S1134DE0BC01CD010E942A312896CDBFDEBFDF91E0
S1134DF0CF910895EF92FF920F931F93CF93DF9378
S1134E00CDB7DEB76197CDBFDEBF688779878A8764
S1134E109B874C875D870E871F87288B398B8091F2
S1134E200B2890910C2808978E839F8319821A82ED
S1134E301B821C821D828E819F819C0140E050E078
S1134E408E859F85A889B989281739074A075B0782
S1134E50B8F06E857F8589819A812C853D85A9016D
S1134E60480F591F88859985AA85BB859B01BC017C
S1134E70CD010E94D926982F8D81890F8D8351C031
S1134E8089819A812C853D85A901480F591F2E815E
S1134E903F8188859985AA85BB85BC01CD010E9487
S1134EA0D926982F8D81890F8D838D818823C1F513
S1134EB08E819F81CC01A0E0B0E02E853F8548899A
S1134EC0598979018A01E81AF90A0A0B1B0BD801DE
S1134ED0C7018E879F87A88BB98B8E819F81CC0158
S1134EE0A0E0B0E029813A814B815C81820F931F5D
S1134EF0A41FB51F89839A83AB83BC838E819F8152
S1134F00CC01A0E0B0E0288539854A855B85820F15
S1134F10931FA41FB51F88879987AA87BB878BCF48
S1134F2000008D816196CDBFDEBFDF91CF911F91CF
S1134F300F91FF90EF900895CF93DF93CDB7DEB735
S1134F402897CDBFDEBF69837A838B839C834D838F
S1134F505E832F8338872F8138854D815E818981D7
S1134F609A81AB81BC81BC01CD010E945431289649
S1134F70CDBFDEBFDF91CF910895EF92FF920F93E3
S1134F801F93CF93DF93CDB7DEB76197CDBFDEBF5D
S1134F90688779878A879B874C875D870E871F87F9
S1134FA0288B398B80910B2890910C2808978E833D
S1134FB09F8319821A821B821C821D828E819F818B
S1134FC09C0140E050E08E859F85A889B989281707
S1134FD039074A075B07B8F06E857F8589819A8116
S1134FE02C853D85A901480F591F88859985AA8577
S1134FF0BB859B01BC01CD010E949C27982F8D810C
S1135000890F8D8351C089819A812C853D85A901A1
S1135010480F591F2E813F8188859985AA85BB85B4
S1135020BC01CD010E949C27982F8D81890F8D830F
S11350308D818823C1F58E819F81CC01A0E0B0E0F1
S11350402E853F854889598979018A01E81AF90A28
S11350500A0B1B0BD801C7018E879F87A88BB98BBE
S11350608E819F81CC01A0E0B0E029813A814B81FF
S11350705C81820F931FA41FB51F89839A83AB831E
S1135080BC838E819F81CC01A0E0B0E02885398566
S11350904A855B85820F931FA41FB51F8887998754
S11350A0AA87BB878BCF00008D816196CDBFDEBF01
S11350B0DF91CF911F910F91FF90EF9008950F937F
S11350C01F93CF93DF93CDB7DEB76597CDBFDEBF18
S11350D08C8B9D8B188619861A861B86198228E06C
S11350E0CE010C96FC01322F11923A95E9F78C8986
S11350F09D89892B09F4D6C08C899D8926E230E0EC
S113510040E050E060E00E945916CE010896AC01E0
S113511068E070E08CE090E00E949A26898389819F
S1135120882309F0BFC088859985AA85BB85892B0A
S11351308A2B8B2B09F4B4C088859985AA85BB85F5
S1135140A360AE01445F5F4F08E010E020E030E070
S1135150BC01CD010E94FA2689838981882309F044
S1135160A1C088899989AA89BB8988879987AA87D0
S1135170BB8788859985AA85BB85AA27BB2788878D
S11351809987AA87BB8788859985AA85BB85892B3A
S11351908A2B8B2B09F481C088859985AA85BB85C8
S11351A0A3604C895D8906E210E020E030E0BC0198
S11351B0CD010E94FA2689838981882309F072C06F
S11351C08C899D89FC018481882F90E0382F2227C7
S11351D08C899D89FC018581882F90E08295929528
S11351E0907F9827807F98279927282B392B8C89A3
S11351F09D89FC018681882F90E08F709927822BEE
S1135200932B8A839B8382E593E18C839D838C8992
S11352109D89FC018781882F90E0382F22278C8973
S11352209D89FC018085882F90E082959295907FDE
S11352309827807F98279927282B392B8C899D893B
S1135240FC018185882F90E08F709927822B932B06
S11352508E839F838A819B81892B41F08E819F81DC
S1135260892B21F08E819F81892B19F484EF898306
S113527019C02C813D818E819F812817390718F42C
S113528083EF89830FC02C813D818A819B818217A2
S1135290930740F483EF898305C084EF898302C0B8
S11352A084EF898389816596CDBFDEBFDF91CF917D
S11352B01F910F910895CF93DF9300D000D0CDB705
S11352C0DEB78B839C8319828B819C81892B71F03F
S11352D08B819C81FC0180818A838A81882319F0D7
S11352E08A81853028F081E08A8302C081E08A8344
S11352F080E090E00E944F2689838981882331F5DC
S11353000E943C308A810E947E248983898188237B
S1135310A9F48A810E94832589838981882381F461
S11353208A818230A1F08A81833089F00E94E2214F
S113533089838981882331F489810AC0000003C0EC
S1135340000001C000000E94642601C000008981A1
S11353502496CDBFDEBFDF91CF910895CF93DF9325
S113536000D01F92CDB7DEB78A839B830E94182694
S113537089838981882381F480E00E94213B898389
S11353808981882359F40E9464268983898188232A
S113539039F40E94AC3005C0000003C0000001C015
S11353A0000089812396CDBFDEBFDF91CF910895A0
S11353B0CF93DF93CDB7DEB72A97CDBFDEBF8F8300
S11353C0988769877A8719821A828F8198858B8357
S11353D09C8389859A858D839E83CE010196BC0129
S11353E083E00E94DB152A96CDBFDEBFDF91CF910B
S11353F00895CF93DF93CDB7DEB72A97CDBFDEBF35
S11354008F83988769877A878F81988589839A8320
S11354101B821C8289859A858D839E83CE01019689
S1135420BC0183E00E94DB152A96CDBFDEBFDF916D
S1135430CF910895CF93DF93CDB7DEB72597CDBF36
S1135440DEBF8C836D838C81882F90E09C01220FBA
S1135450331F8D81882F90E08227932784539F4F99
S113546089839A8389819A81FC0184918B838B81BE
S11354702596CDBFDEBFDF91CF910895CF93DF9303
S1135480CDB7DEB72797CDBFDEBF89836A837B8321
S11354902C833D834E835F830EC08A819B819C0154
S11354A02F5F3F4F2A833B83FC018081682F8981D2
S11354B00E941A2A89838C819D81AE81BF819C01BF
S11354C0AD0121503109410951092C833D834E839B
S11354D05F83892B8A2B8B2B01F789812796CDBF7C
S11354E0DEBFDF91CF910895AF92CF92DF92EF921A
S11354F0FF920F931F93CF93DF93CDB7DEB76997D6
S1135500CDBFDEBF8C874D875E876F87788B098B15
S11355101A8B2B8B3C8BCD8ADE8AEF8AF88EA98E70
S113552085E0898381E08A838C858B838C85882FB1
S113553090E0092E000CAA0BBB0B41EC50E02EE0CE
S113554030E0841B950B2817390708F4F1C0895AF9
S11355509F4FFC010C94C73C8D859E85AF85B8890F
S1135560CD01AA27BB278C838D859E85AF85B889FD
S1135570892F9A2FAB2FBB278D838D858E8385E052
S11355808983D8C08D859E85AF85B889892F9A2F48
S1135590AB2FBB278C83898D882319F08C8180687D
S11355A08C838D858D831E8285E08983C3C01C8294
S11355B01D821E8285E08983BDC01C821D821E82DD
S11355C085E08983B7C08FEF8C838FEF8D838FEF56
S11355D08E8385E08983AEC08D859E85AF85B8892D
S11355E0CD01AA27BB278C838D859E85AF85B8897D
S11355F0892F9A2FAB2FBB278D838D858E838D8921
S11356009E89AF89B88D892F9A2FAB2FBB278F83A3
S11356108D89888787E089838DC08D859E85AF8538
S1135620B889CD01AA27BB278C838D859E85AF853C
S1135630B889892F9A2FAB2FBB278D838D858E83B5
S11356408D899E89AF89B88DCD01AA27BB278F8309
S11356508D899E89AF89B88D892F9A2FAB2FBB274F
S113566088878D89898788E0898364C08D859E8534
S1135670AF85B889892F9A2FAB2FBB278C83898D4F
S1135680882319F08C8180688C838D858D8389892A
S11356909A89AB89BC898B2F9927AA27BB278E832C
S11356A089899A89AB89BC89CD01AA27BB278F83B5
S11356B089899A89AB89BC89892F9A2FAB2FBB27FB
S11356C088878989898788E0898334C08D859E8508
S11356D0AF85B889CD01AA27BB278C838D859E858C
S11356E0AF85B889892F9A2FAB2FBB278D838D85E2
S11356F08E8389899A89AB89BC898B2F9927AA279C
S1135700BB278F8389899A89AB89BC89CD01AA2754
S1135710BB27888789899A89AB89BC89892F9A2F65
S1135720AB2FBB27898789898A8789E0898302C04F
S11357301A8200008A81882389F18091282888238D
S1135740F9F48981882F90E08C0101501109898135
S1135750882F90E00197092E000CAA0BBB0BBE0109
S11357606D5F7F4F9C01AD018FE70E943E2A282F79
S1135770220FCE010396800F911FFC01208303C0EA
S11357808981815089838981282F30E0CE01039655
S1135790B9010E94F929882309F01A828A8169963D
S11357A0CDBFDEBFDF91CF911F910F91FF90EF909E
S11357B0DF90CF90AF900895CF93DF93CDB7DEB74E
S11357C02697CDBFDEBF8E8381E08A83809128280F
S11357D0882319F482E0898302C083E08983898164
S11357E0282F30E0CE010396B9010E94D8298823DE
S11357F011F01A821CC08981882F90E001979E01C4
S11358002D5F3F4F820F931FFC018081882369F431
S11358108981882F90E002979E012D5F3F4F820F70
S1135820931FFC018081833C11F01A8200008A815D
S11358302696CDBFDEBFDF91CF910895CF93DF933E
S113584000D000D0CDB7DEB78C8381E089838C8112
S11358508F3C31F08C81853C19F08C81863C51F46D
S1135860CE01039661E070E00E94D829882311F0EC
S113587019822BC08AE08A83CE01039661E070E02E
S11358800E94D829882311F019821FC09B818C8122
S1135890981731F08A81982F91509A83181664F3DF
S11358A08AE08A83CE01039661E070E00E94D829E1
S11358B0882311F0198209C08B81882331F08A81F1
S11358C0982F91509A8318166CF389812496CDBF32
S11358D0DEBFDF91CF910895CF93DF93CDB7DEB7CD
S11358E02F97CDBFDEBF8B879C876D877E874F87C1
S11358F081E08F831B821C828D859E85813090423E
S113590028F48D859E858D839E8304C080E090E27B
S11359108D839E838AE090E089839A83CE010A96E0
S113592061E070E00E94D829882311F01F8214C01E
S11359308A8582958F70882F90E08F7099270F97B2
S113594051F089819A819C012150310929833A833C
S1135950892B21F701C000008F81882309F43FC0FF
S113596089819A811816190614F01F8239C04D8155
S11359705E818B819C812B853C85820F931FBA01AC
S11359800E94D829882311F01F822AC08F8588237A
S113599071F480912828882351F4CE01089662E09E
S11359A070E00E94D829882311F01F8219C02B812E
S11359B03C818D819E81820F931F8B839C838D817B
S11359C09E812D853E85A901481B590BCA018D87EF
S11359D09E878D859E85892B09F08ECF01C000009E
S11359E08F812F96CDBFDEBFDF91CF910895CF93E6
S11359F0DF93CDB7DEB72D97CDBFDEBF8A879B87F8
S1135A006C877D8781E08D831886198619821A82B6
S1135A108C859D858130904228F48C859D858B836F
S1135A209C8304C080E090E28B839C8380EF8F830F
S1135A3089819A81892B59F48C859D858130904286
S1135A4018F483E08E830DC081E08E830AC08C85B8
S1135A509D858130904218F483E08E8302C082E0F9
S1135A608E839F818E81892B8F83CE01079661E07F
S1135A7070E00E94F929882311F01D8234C08981C5
S1135A809A812A853B85820F931F2B813C81B90122
S1135A900E94F929882311F01D8225C080912828AD
S1135AA0882351F4CE01089662E070E00E94F9293F
S1135AB0882311F01D8217C029813A818B819C8132
S1135AC0820F931F89839A832C853D858B819C81CA
S1135AD0A901481B590BCA018C879D878C859D851C
S1135AE0892B09F095CF8D812D96CDBFDEBFDF9137
S1135AF0CF910895AF92CF92DF92EF92FF920F93DE
S1135B001F93CF93DF93CDB7DEB72C97CDBFDEBF06
S1135B106D837E838F83988729873A874B875C8739
S1135B208AE0898381E08A8389EC8B831C828D815E
S1135B309E81AF81B885C197A105B10528F483EC96
S1135B408B8381E08C8303C089EC8B831C82298541
S1135B503A854B855C858D819E81AF81B885AC800B
S1135B60C12CD12C76016894C2F889019A01AC0148
S1135B70BD018B810E94742A8A838A81813029F431
S1135B808B810E941E2C8A8301C000008A8181308F
S1135B9019F161E070E080E090E00E948013A12C94
S1135BA0C12CD12C760100E010E0980140E050E0D7
S1135BB0BA018FEC0E94742A8FEC0E941E2C61E0C3
S1135BC070E080E090E00E94801389818150898395
S1135BD08981882309F0ABCF8A812C96CDBFDEBFA3
S1135BE0DF91CF911F910F91FF90EF90DF90CF90B5
S1135BF0AF900895AF92CF92DF92EF92FF920F93FE
S1135C001F93CF93DF93CDB7DEB72B97CDBFDEBF06
S1135C106C837D838E839F83488759872A873B873C
S1135C208AE08A8387EC8B838A859B85019721F49C
S1135C3082E090E08A879B878A859B859C0140E06F
S1135C4050E08C819D81AE81BF81A12C69017A01D4
S1135C5000E010E09801AC01BD018B810E94742A20
S1135C60898389818130B9F48B810E941E2C8983B8
S1135C708981813091F42A853B8588859985B9018C
S1135C800E94F72C89838981813049F48B810E9499
S1135C90DC2B898305C0000003C0000001C00000A4
S1135CA08981813019F161E070E080E090E00E9428
S1135CB08013A12CC12CD12C760100E010E09801B6
S1135CC040E050E0BA018FEC0E94742A8FEC0E94ED
S1135CD01E2C61E070E080E090E00E9480138A81D5
